:10000000A4C0BEC052C4BCC0BBC0BAC0B9C0B8C096
:10001000B9C2B6C0B5C0B4C05BC4B2C0B1C0000004
:1000200000000000000000000000000000000000D0
:1000300000000000000000000000000000000000C0
:1000400000000000000000000000000000000000B0
:1000500000000000000000000000000000000000A0
:10006000010304050708090B0C0E0F1113141618D1
:10007000191B1D1F21232527292B2D3032343739F9
:100080003B3E404346484B4E5154575A5D60636671
:10009000696D7073777A7E8185898D9094989CA024
:1000A000A5A9ADB1B6BABFC3C8CDD1D6DBE0E5EAEC
:1000B000EFF4FAFF01010202030304040506070836
:1000C000090A0C0D0E0F11131416181A1D1F2224E5
:1000D000272A2D3033373B3E42464B4F54595D6300
:1000E000686E73797F868C939AA1A8B0B8C0C8D186
:1000F000D9E2ECF5FFFFFFFFFFFFFFFFFFFFFFFF70
:10010000FFFFFFFFFFFFFFFFFFFFFFFFFFFFFFFFFF
:10011000FFFFFFFFFFFFFFFFFFFFFFFFFFFFFFFFEF
:10012000FFFFFFFFFFFFFFFFFFFFFFFFFFFFFFFFDF
:10013000FFFFFFFFFFFFFFFFFFFFFFFFFFFFFFFFCF
:10014000FFFFFFFFFFFFFFFFFF0011241FBECFE5F2
:10015000D2E0DEBFCDBF10E0A0E6B0E0E0EEFCE113
:1001600002C005900D92AE38B107D9F721E0AEE894
:10017000B0E001C01D92A735B207E1F729DDAECD91
:100180003FCF20915401222361F080910A01909188
:100190000B019595879590919700891B281B2093BB
:1001A000970080915501882319F0825E8093730037
:1001B00080917300873418F086E48093730008956B
:1001C00080915401811180936600089520918F00E1
:1001D0009091540180915501222381F091119093C7
:1001E0006E00882321F097E9981B90936D00809111
:1001F0005601882361F080936C00089591119093CB
:100200007000882321F097E9981B90936F00089560
:100210008CEF93E00197F1F70895FF920F931F93EE
:10022000CF93DF938C01EB01842FF22E20910701F5
:1002300030910801232B29F0E0910701F09108018A
:1002400009951093080100930701012B61F0E091DB
:100250000701F0910801BE018F2DDF91CF911F9111
:100260000F91FF900994DF91CF911F910F91FF9013
:100270000895DC0190919600983090F4E92FF0E019
:10028000EE0FFF1FEC5BFE4FB183A0839F5F909347
:10029000960028E049E0CD01C0DF809196000895E6
:1002A0008FEF0895CF93DF93E0919600EE2359F0FE
:1002B000E150E0939600F0E0EE0FFF1FEC5BFE4F85
:1002C000C081D18102C0C0E0D0E0E0919600EE2371
:1002D00041F0F0E0EE0FFF1FEE5BFE4F8081918159
:1002E00002C080E090E02AE049E060E070E095DF45
:1002F000CE01DF91CF9108950F931F93CF93DF939A
:10030000EC018B01CFDFB801CE01DF91CF911F91BE
:100310000F91AFCF813C29F460E070E084E598E074
:1003200006C0823C31F460E070E08EEB91E0E4DFE7
:1003300007C0843C39F460E070E08BEB9CE099DF0F
:1003400080E0089581E00895813C29F460E070E048
:1003500084E598E006C0823C31F460E070E08AE811
:1003600091E0CADF07C0843C39F460E070E08FEBB5
:100370009CE07FDF80E0089581E00895813C29F4CE
:1003800060E070E084E598E006C0823C39F460E00B
:1003900070E080E897E0B0DF80E0089581E00895A4
:1003A0001092410181E08093910008951092F7002E
:1003B0001092F60090914101803159F4892F8069A3
:1003C0009F709E3020F08093410181E008958F5FFF
:1003D000FACF882329F090689093410180E0089536
:1003E000892F8F7E95FD02C08068EDCF806CEBCFAA
:1003F000482FDB0120E030E0C90163E070E010DC51
:10040000FC01E05FFE4F8081882331F02F5F3F4F7A
:100410002031310589F703C04083B283A183089559
:1004200020E030E0F22FE32F2F5F3F4FC90163E060
:1004300070E0F6DBDC01A05FBE4F4C918F2F9E2F4A
:1004400063E070E0EDDBFC01E05FFE4F408311965E
:100450008D919C911297928381832F30310511F7F2
:1004600010923D0110923F0110923E01089590E8D4
:1004700022E048EA57E0815040F096BD26BDFA01DF
:100480003197F1F796BD16BCF6CF08950F931F93E1
:10049000CF93DF93D82F8B01C0919600C150C7FD39
:1004A0000FC0EC2FEE0FFF0BEC5BFE4F0190F081C5
:1004B000E02DB8018D2F09958111F0CF80E001C0AA
:1004C00081E0DF91CF911F910F91089580911001EC
:1004D000882349F0609111017091120180911001FF
:1004E000D5DF9EDFF3CF0895AF92BF92CF92DF9218
:1004F000EF92FF920F931F93CF93DF93E09007014A
:10050000F0900801EC0110E888EAC82E87E0D82EA8
:1005100002E09AEEA92EBB24B3942097E1F08091DB
:10052000930016BD853018F406BDC50102C016BC87
:10053000C6010197F1F716BD16BC8091910081119B
:100540000CC020910701309108012197E216F306B3
:1005500029F4BCDFE2CF81E001C080E0DF91CF91E0
:100560001F910F91FF90EF90DF90CF90BF90AF90D1
:1005700008953ECF9093F7008093F600BC018091E0
:10058000410136CF1F920F920FB60F9211242F9375
:100590003F934F935F936F937F938F939F93AF930B
:1005A000BF93EF93FF9380910E01882309F433C129
:1005B00010920E0164B175B180919200860F809304
:1005C00092008091F5008F5F83708093F5008130F9
:1005D00039F580E098E541DB6B5F7F4F7695679555
:1005E00060930F018091F400882321F08150809363
:1005F000F40009C180910F018D3178F48091F300EE
:10060000843020F48F5F8093F300FDC060E070E0E1
:1006100084E0EEDE84E18093F4001092F300F3C0F6
:10062000833009F0F0C08091970063517140680FEA
:10063000711D87FD7A95809172008823F9F01092E0
:100640007200E3EEF0E083EF90E0619371938E1718
:100650009F07D9F7660F771FE3ECF0E083EE90E099
:10066000619371938E179F07D9F7E3EBF0E06193E5
:10067000719320E0E33CF207D1F719C0E3EEF0E01C
:1006800041EF50E080E090E022813381219331936B
:10069000820F931F4E175F07B9F77093F2006093B4
:1006A000F100680F791F759567957595679570933B
:1006B0000B0160930A0180910A0190910B01E3EC18
:1006C000F0E021EE30E042815381419351932E17A7
:1006D0003F07C9F79093E2008093E1002091C300A7
:1006E0003091C400AC01421B530B9A0154E0220F1D
:1006F000331F5A95E1F7280F391F30934301209398
:1007000042018091B200E82FF0E0EE0FFF1FED54A0
:10071000FF4F318320838F5F87708093B200E3EBBC
:10072000F0E043EC50E080E090E061917191860F41
:10073000971F4E175F0771F46091730070E0660FAA
:10074000771FAB01435151092417350744F010922C
:10075000B1000AC080386EE396073CF3EDCF261750
:10076000370714F41092B0002091AF00222321F03B
:1007700021502093AF0047C097FD079623E0959541
:1007800087952A95E1F768177907DCF42091B00086
:10079000243020F42F5F2093B00035C01092B000B9
:1007A00024E12093AF009C01261B370BB90193E095
:1007B000759567959A95E1F71616170624F585E065
:1007C00021C06451710986179707ECF42091B1009C
:1007D000243020F42F5F2093B10015C01092B10097
:1007E00024E12093AF00681B790B83E07595679532
:1007F0008A95E1F71616170634F480910F018E31B1
:1008000010F086E0F5DD8091F500823010F48CE088
:1008100001C08FE887B9FF91EF91BF91AF919F9190
:100820008F917F916F915F914F913F912F910F9099
:100830000FBE0F901F901895A89581B5886181BD56
:1008400080E481BD08950F931F9361E04DE750E070
:1008500026B38091A8009091A900A091AA00B09120
:10086000AB00880F991FAA1FBB1F23FB222720F96B
:100870002627822B8093A8009093A900A093AA001A
:10088000B093AB00FA013197F1F78C019D01015053
:100890001109210931090E3F1F4F2F4F3F4FC0F261
:1008A00080930D011F910F9108951895CF93C82F34
:1008B000882311F080E101C080E078DD882331F0E9
:1008C000C0930D0180E090E0CF9154CECF91089578
:1008D0001F920F920FB60F9211242F933F934F93B5
:1008E0005F936F937F938F939F93AF93BF93CF93B8
:1008F000DF93EF93FF9381E08093950080919400C4
:10090000882399F0C091AD00D091AE00BE0183E084
:100910006FDDCE010196CC27D078C82BD92BD09390
:10092000AE00C093AD00D2DD4DC01092AE0010926B
:10093000AD00C0910D0187DFC813B8DF8091F600CC
:100940009091F700EC01219688279078C82BD92B3D
:10095000D093F700C093F60080914101807F803BE7
:1009600019F460E070E001C0BE0181E041DD8091DA
:10097000410184FF0DC085FF02C0CE0107C068970A
:10098000A0F080628093410180E090E0F3DD0DC033
:10099000882359F085FD08C0689738F080648093FB
:1009A000410180E090E0E6DDFBDC8091AC008F5FF0
:1009B0008093AC00837031F486B1886486B981E09D
:1009C00080930E01FF91EF91DF91CF91BF91AF9195
:1009D0009F918F917F916F915F914F913F912F9157
:1009E0000F900FBE0F901F901895A89581B5886144
:1009F00081BD83E481BD379826DF8111FDCFD0DC36
:100A00008BB780628BBF809194008823C9F01092CD
:100A1000950085B7877E806185BF85B7806285BF79
:100A200085B7846885BF8B7F85BF889585B78F7DA7
:100A300085BF809195008111E6CF10929400E3CF9D
:100A400081E0809372008CE087B986EC86B9F4CEA1
:100A500085B7877E85BF85B7806285BF889585B756
:100A60008F7D85BF089580910C0190919300891727
:100A700020F480919300815007C0909193009817C3
:100A800018F4809193008F5F6FEF680F262F30E08E
:100A9000A9014C545F4FFA0194917091930067172C
:100AA00028F469B5611102C09F3F59F069B5691713
:100AB00018F499B59F5F05C069B5961718F499B5F4
:100AC000915099BD225E3F4FF901949168B5691725
:100AD00018F498B59F5F05C068B5961718F498B5D7
:100AE000915098BD99B5FA014491941307C098B5F7
:100AF000F9012491921302C0809393000895E0912C
:100B00006400F09165003196FB70F460F09365002D
:100B1000E0936400809192008B5A80939200E4915C
:100B2000809192008E0F08950F931F93CF93DF93C0
:100B3000F89480E091E0B8D8853A89F408EF10E0A5
:100B4000C1E0D1E0CE01B0D8F80181938F012196A8
:100B5000C031F1E0DF07B1F7789481E002C078940A
:100B600080E0DF91CF911F910F9108950F931F9314
:100B7000CF93DF93F89408EF10E0C1E0D1E0F801E3
:100B800061918F01CE0198D82196C031F1E0DF0745
:100B9000B1F765EA80E091E08FD87894DF91CF914A
:100BA0001F910F91089580919300853020F480E883
:100BB00086BD82E005C08E3028F480E886BD81E0E5
:100BC00086BD089580E886BD16BC0895882321F06F
:100BD000813029F4BC9804C0BC98C4980895BC9A8C
:100BE000C49A0895CF93C82F8093930080930C01EB
:100BF00080919400811101C0E9DFC11103C019BCCB
:100C000018BC0DC0C1508C2F90E0FC01EC54FF4F7C
:100C1000E491E9BDFC01E25EFF4FE491E8BDCF91B4
:100C2000C2CFCF93C82F882381F089E1DBDF88EC26
:100C300090E05ADC80E0D6DF80E991E055DCC150DD
:100C4000A1F788E592E0CF914FCC89E1CBDF88E036
:100C500090E04ADC80E0C6DF80E991E045DCF1CF3E
:100C6000CF93DF93C82F843638F08CE98C0F84360D
:100C700028F0C85C82E004C080E002C0C82F81E098
:100C8000D0E0CA3018F0DF5FCA50FBCF882381F074
:100C9000C8DF882381F08D2FC4DF882361F08C2F7B
:100CA000C0DF882341F088EE93E0DF91CF911CCC28
:100CB000D111F1CFF4CF80E0DF91CF9108958091F1
:100CC0000F01CECF982F8079803919F4809171006F
:100CD00003C0803821F480E085DF80E00895913002
:100CE00051F480919300811106C0633A734020F063
:100CF00090939400089581E00895CF93DF93883016
:100D000059F410929C0060939B0010929A001092EC
:100D100099001092980081C0813009F068C09091CC
:100D20009A00892F8D7F81F420919800309199004D
:100D30002F31310538F42F5F3F4F309399002093C6
:100D400098006EC09F5F25C0913051F580919B0047
:100D50008823F1F0C0919800D09199009E012F71E5
:100D600033272A30310511F485E204C024313105DE
:100D700019F480E037DF06C02F31310519F48150B6
:100D800080939B002196D0939900C093980045C012
:100D900092E090939A00109299001092980040C0AF
:100DA0009330E9F4C0919800D09199002196D093A6
:100DB0009900C0939800CE0183709927009711F491
:100DC00089E103C0029711F482E10CDFCB3BD1052E
:100DD00020F180E007DF84E080939A001EC0943009
:100DE000E1F480919C00809340015CDA16C0813868
:100DF000B1F4D6DA80919A00833079F480919C0026
:100E00008F5F80939C0010929900109298008BE461
:100E1000E9DE84E02CDB80E0E5DE80E001C081E0FB
:100E2000DF91CF9108950F931F93CF93DF93EC0140
:100E30006091700080916F0090918F00992321F054
:100E400060916E0080916D00262F30E0C217D307AD
:100E50000CF440C0282F30E02C173D07E4F18091BE
:100E60008F00811102C08C2F36C0E0916D008091FF
:100E70006E00E81B60916C00F0E070E06150710959
:100E8000CF01FFD66093090180916E006695262FF1
:100E900030E010E090916C001917E8F440916C007C
:100EA00000916E00812F90E0BF01BAD6642F70E0F0
:100EB00061507109D2D6802F860FAE01481B5109AF
:100EC00057FF03C0519541955109241735071CF46C
:100ED0001F5FE0CF862FDF91CF911F910F91089573
:100EE000CF93C82FCC2351F085E27CDE82E0BFDABD
:100EF00080E078DE89E1BBDAC150F4CFCF9108956C
:100F0000883049F41092A1001092A00082E0E8DF3E
:100F100088E168DE07C0813C39F460E070E084E578
:100F200098E0EAD980E00895823C29F460E070E01E
:100F300084EA91E0F6CF8130D9F48091A0009091BD
:100F4000A1000196853524E2920728F49093A10030
:100F50008093A000E7CF1092A1001092A000809192
:100F6000930081503FDE809193008111DBCFD5CF7C
:100F700081E00895CF93DF93CDB7DEB760970FB6CA
:100F8000F894DEBF0FBECDBF90E1E4E7F0E0DE01F4
:100F9000119601900D929A95E1F78F70E1E0F0E0E3
:100FA000EC0FFD1FE80FF11D808160960FB6F894DD
:100FB000DEBF0FBECDBFDF91CF9108CE982F880F37
:100FC00097FD80950895B0DD8823E1F18091F800C8
:100FD00080938F008091F900809370008091FA00D7
:100FE00080936F008091FB0080936E008091FC00E5
:100FF00080936D008091FD0080936C008091FE00D5
:1010000080936A008091FF008093680080910001C6
:1010100080936900809101018093670080910201B3
:101020008093660080910301809390008091040179
:101030008093730080910501809397008091060151
:1010400080936B00089580918F00E8EFF0E080833B
:1010500080917000818380916F00828380916E0007
:10106000838380916D00848380916C00858380915F
:101070006A008683A8E6B0E08C91878311968C91F4
:101080008087809167008187809166008287809148
:101090009000838780917300848780919700858773
:1010A00080916B00868762CDCF93883051F480E0C9
:1010B00099DD80916B00837089DD81E080939400DD
:1010C00089C0813059F46D37710508F483C080936D
:1010D000940080916B00837079DD7CC0833049F48B
:1010E00080916B008370833009F074C0862F42DFDB
:1010F00071C0813919F481E090E01FC0813BB1F4E7
:101100006115710541F4C091930080E06BDD82E0D0
:10111000AED98C2F26C080918F00811104C0683118
:10112000710508F45AC061E070E013C0813ED9F344
:10113000813829F48091710090E075DE12C0813C05
:1011400021F46091710070E004C0823B29F466E9EB
:1011500070E08FEE98E02FC0823CC9F3833919F418
:1011600080E040DD37C0833C29F460E070E08EEB26
:1011700091E021C0833B29F460E070E08FE49AE0C5
:101180001AC0843C39F482E0ABDE60E070E08DE7A9
:101190009BE011C0853C39F481E0A2DE60E070E0A4
:1011A00082E696E008C0863C41F481E099DE60E08A
:1011B00070E080EF9BE0A0D80DC0873C69F490916F
:1011C0006B0081E0890F83709C7F982B90936B005C
:1011D000FDDC39DF80E001C081E0CF9108951F93ED
:1011E000CF93DF93CDB7DEB728970FB6F894DEBF65
:1011F0000FBECDBF9B019091700010916F00409188
:101200008F00442339F090916E0010916D00409151
:10121000090101C041E0883029F08A30B1F4209101
:10122000710030E0892F90E08217930738F4812F06
:1012300090E02817390710F420937100C901F3DDFD
:1012400080938E00CFDC81E069C0813C31F460E0A6
:1012500070E084E598E050D815C1823C59F4809143
:101260009300863910F486E902C080917100809362
:101270008E007DC0833CA1F490918F0081E091119C
:1012800080E080938F008091930090E0CCDD80938C
:10129000710080938E00D7DE80E0A4DC85E064C01E
:1012A000843C31F460E070E085EB9CE0E2D7EAC07A
:1012B000813B79F580918F00882339F0C90168E17D
:1012C00070E0CBD4892B09F0DDC02230310538F431
:1012D00080919300811718F08FEF80936300209125
:1012E000930080916300642F70E0082E000C990B2E
:1012F00097D4820F911D97DD8093710080938E00AB
:1013000090919300891789F1813459F118132DC0F8
:1013100028C0813E31F48091630081958093630001
:10132000B1C0823B31F581E08093630080918F00F2
:10133000882339F0C90168E170E08FD4892B09F066
:10134000A1C08091930090E0841B91096CDD809393
:10135000710080938E0090919300891731F0813451
:1013600021F480E03FDC82E082D8809171003ADC99
:1013700089C0813009F04AC02E33310511F48093C1
:10138000630020FF05C080919300893608F47AC07D
:1013900080919300893640F09091930080910C01E8
:1013A000891710F460DB6EC088E0E4E8F0E0DE014D
:1013B000119601900D928A95E1F79091A7009F5F99
:1013C0009093A70020910C0180919300821728F43C
:1013D00080910C012091930004C080919300209192
:1013E0000C01821B20E0882319F02F5F8695FBCF2C
:1013F000E1E0F0E0EC0FFD1FE20FF11D80818917A5
:1014000008F040C030DB1092A7003CC0853009F5E1
:10141000809193008A3630F089E680930C018093A6
:101420008E0030C080919300823460F180919300EF
:1014300090E0821B930B8134910534F0873991053C
:1014400028F086E990E002C081E490E080930C01EE
:1014500019C08630C9F49091930080918E0098173E
:1014600088F490919300290F311D90E08217930723
:1014700034F02134310524F421E430E001C09C0132
:1014800020930C0180E001C081E028960FB6F8940B
:10149000DEBF0FBECDBFDF91CF911F910895AF92F8
:1014A000BF92CF92DF92EF92FF920F931F93CF9351
:1014B000DF93E0916A00883019F41092A6007AC098
:1014C000EB01813C31F460E070E084E598E014D7F2
:1014D00071C0823C59F48E2F90E0019665E070E077
:1014E000D0D380936A001092A60051C0813B11F5C1
:1014F000E23060F460FD5EC0F0E0E859FF4F8081AB
:10150000893008F457C08081815022C0E33039F41B
:10151000809162008B3408F04DC08F5F22C0E430B0
:1015200009F048C080916700883748F580916700CE
:101530008F5F23C0823B39F5E23060F460FD3AC032
:10154000F0E0E859FF4F80818F3FA1F180818F5FEC
:10155000808330C0E33041F480916200823050F1EA
:1015600081508093620026C0E43021F580916700AD
:10157000833028F0809167008150809367008091CC
:10158000670030DB17C09FE1980F923010F45BDDED
:1015900011C0833C89F4E33069F48091A600843E55
:1015A00048F4855E8093A60080919300805E1ADBEC
:1015B00082E05DD780E096C0813009F092C08091D2
:1015C0009200860F80939200E330A1F72091A6004D
:1015D000FB01FF70213069F48091620090E0449635
:1015E000BF0134E0769567953A95E1F719D3B92EA6
:1015F00001C0B12CEF3FFF4061F4222351F0215094
:101600002093A600211105C060E070E084E598E019
:1016100073D6C090A5008C2DD1DCF82ED090A400FC
:101620008D2DCCDCA82E00916100E090A3008E2DC2
:10163000C5DC482F109160002F2D30E083E0220F91
:10164000331F8A95E1F7209162002B19230F602F39
:1016500070E08A2D90E0E4D2290F612F70E0842F92
:1016600090E0DED2822F890F87FD80E0BBDAC0FDDB
:1016700005C045DA8170C80EC092A5008091A20015
:10168000D80ED092A4003BDA65E2DBD2E90EE092FC
:10169000A30035DA8F7329F432DA6DE0D2D2909359
:1016A000A200002331F02BDA8F7319F4015000935C
:1016B000610025DA811105C087E0809361001092F6
:1016C000A400133030F01BDA8F7119F4115010930D
:1016D000600015DA8F7709F06DCF95E09093600088
:1016E00001C081E0DF91CF911F910F91FF90EF90AA
:1016F000DF90CF90BF90AF900895EF92FF921F932D
:10170000CF93DF9300D0CDB7DEB7182F7B01807960
:101710008039D1F480917000898380916E008A8332
:10172000812F8F70823029F490918F0081E089277A
:1017300002C080918F00E1E0F0E0EC0FFD1FE80FA8
:10174000F11D80814FDA1CC0803819F480E04ADA3C
:1017500009C0183039F480916B008695869536DA89
:1017600081E036C0113061F48DE7E816F10488F0AD
:101770001093940080916B008695869527DA09C0B6
:10178000133049F480916B008C708C3011F48E2DE5
:10179000F1DB80E01DC0133C89F490916B00892F30
:1017A000869586958F5F8370282F220F220F937066
:1017B000920F90936B000ADA46DCEBCF81E0143C89
:1017C00039F48EDB60E070E084E598E095D5E1CFF8
:1017D0000F900F90DF91CF911F91FF90EF900895A0
:1017E000CF93883061F4C1E0C0939F00C093900014
:1017F0002ADCC0939E0085E38093710036C0813956
:1018000039F480919E00882309F483C086E110C0DA
:10181000813841F480919E00882309F47AC0809138
:10182000710006C0823931F481E080939E0080E02F
:10183000D9D96FC0813C51F490919E0081E08927F5
:1018400080939E00882389F080E00EC0813B31F5B3
:1018500060FD0BC080919E00882349F010929E008D
:1018600081E080939F0086E1BDD980E053C09091D4
:1018700093006230710528F4953518F08FEF80934E
:101880009F0080919F00890F863120F0863518F0E7
:1018900085E501C086E180937100E6CF813E31F499
:1018A00080919F00819580939F00DFCF863C59F403
:1018B00081E016DB10929000C6DB60E070E084E50A
:1018C00098E01AD5D2CF813081F46E33710511F4CE
:1018D00080939F0080919E00882339F26F337105B9
:1018E00020F281E080939400C0CF853009F4BBCF13
:1018F000843079F490919300809193009695869529
:101900008695890F863108F0AFCF81E080939E00E5
:10191000ACCF81E0CF910895883029F410929D00DA
:1019200080E060D920C0813081F460919D0064170F
:1019300038F470E06F5F7F4F8DE796E09AD413C064
:10194000F901099580DBAED40EC08A3061F4809134
:101950009D0090914001E82FF0E0EC5AFE4F9083FB
:101960008F5F80939D0080E0089540918F004E5FCF
:1019700026EE30E0D1CF21EC30E042E0CDCF20EEBA
:1019800030E041E0C9CFCF938091070190910801E9
:101990002AE08F34920729F469E170E08FEE98E035
:1019A00019C08F5E984091F480919300823070F05E
:1019B000C091930080919300C69586958695C80F37
:1019C0008C2F10D9C0938E00CF91089560E070E005
:1019D00084E598E0CF9190C4843019F4D4DF80E09E
:1019E000089581E0089582E1FDD883E040D580E04C
:1019F000F9D8E9DA80919000882329F065E370E056
:101A000080EF9BE004C060E070E084E598E031C4C2
:101A1000EF92FF920F931F93CF93DF938091070173
:101A2000909108012AE08F34920709F096C0C09186
:101A30006A00C230C8F4EC2FF0E0E859FF4FD081C3
:101A400086E9D0D8C11107C0DA3210F4E1D307C05B
:101A500081E090E003C08D2F869590E045D580E031
:101A6000C1D88D2F90E058C0C23009F05CC047D873
:101A70008F73E82EF12C43D867E0E3D0C1E0D0E0CB
:101A80008E0102C0000F111F9A95E2F738D88370BB
:101A900002C0CC0FDD1F8A95E2F7C00FD11F2FD8EF
:101AA00090E0BE01EED0C80FD91F8C2F9BD8C70184
:101AB0001BD58E0143E0159507954A95E1F7011175
:101AC00001C001E010E0C7010FD5C01BD10BD7FF4B
:101AD00002C0C0E0D0E08C2F85D811D8837031F4DB
:101AE000C70102D5CE01959587957CD8C230D10526
:101AF00054F705D86DE0A5D0C1E0D0E002C0CC0F0E
:101B0000DD1F9A95E2F7FBD790E0BE01A6D0C80F83
:101B1000D91F80E067D8CE01DF91CF911F910F913F
:101B2000FF90EF90E1C4C43009F04BC0C091670052
:101B3000CC0FC73908F0C6E9D4E08C2F53D885E024
:101B400090E0D2D4809167004DD881E490E0CCD46D
:101B5000D15099F780ED92E0DFCF21E08E3B9207E4
:101B600039F4DF91CF911F910F91FF90EF90A7C8AB
:101B700021E08A38920751F480910A0190910B017B
:101B8000959587956DD888EE93E0C6CF845A91409D
:101B900089F48091710026D884EF91E0A5D480E08B
:101BA00021D88091660090E068EE73E039D0845FC0
:101BB0009140B2CFDF91CF911F910F91FF90EF90A5
:101BC00047C7DF91CF911F910F91FF90EF9008953C
:101BD000F894B89A81E083BF81EA8ABDB99A88E017
:101BE00088BB85BB8BB780628BBF26D68CE087B95C
:101BF00086EC86B9789481E03AD4D2D360E070E084
:101C00008CEE9CE036D3EFDE61D480919400882383
:101C100019F080E0E7D7E9D6FBDE10929100F4CF0F
:101C20000024552704C0080E591F880F991F0097DC
:101C300029F076956795B8F37105B9F7802D952F42
:101C40000895991B79E004C0991F961708F0961B18
:101C5000881F7A95C9F780950895AA1BBB1B51E18F
:101C600007C0AA1FBB1FA617B70710F0A61BB70B0C
:101C7000881F991F5A95A9F780959095BC01CD01B1
:101C8000089597FB072E16F4009406D077FD08D030
:101C9000E4DF07FC05D03EF4909581959F4F0895B1
:101CA000709561957F4F0895E199FECF9FBB8EBBE4
:101CB000E09A99278DB30895262FE199FECF9FBB17
:101CC0008EBBE09A01970DB2021639F01CBA2DBBFB
:101CD0000FB6F894E29AE19A0FBE0895F894FFCFF8
:101CE00004071801000402412843030D0778147803
:101CF0000141012D0001020100000000000001006F
:0E1D000000000000F8804222110904020500D4
:00000001FF
