:100000001EC036C035C034C033C032C031C030C06D
:100010006AC02EC06A456F46734778487D49816043
:1000200086618A628F63936498659D66A167A668FE
:10003000AA69AF80B381B882BD83C184FF21112436
:100040001FBECFE9CDBF10E0A0E6B0E0E2EAF3E0EA
:1000500002C005900D92A037B107D9F720E0A0E7C4
:10006000B0E001C01D92A237B207E1F76CD097C192
:10007000C7CF9C0146EB53E02150310908F40895A5
:10008000CA010197F1F7F8CF369A3699FECF85B1BC
:100090000895EF92FF920F931F93CF93DF93C82F92
:1000A0008B01D7E27B01EE0CFF1CEE0CFF1CC11193
:1000B00007C0DF91CF911F910F91FF90EF900895AE
:1000C000D9BDC801D6DF19BCC701D3DFC150EFCFFE
:1000D000F894A89584B7877F84BF81B5886181BD76
:1000E00011BC789408951F920F920FB60F921124AD
:1000F0002F933F934F935F936F937F938F939F9330
:10010000AF93BF93EF93FF93809170008F3FA9F45B
:1001100081E080937200DCDFFF91EF91BF91AF919E
:100120009F918F917F916F915F914F913F912F910F
:100130000F900FBE0F901F9018958F5F80937000E7
:10014000863050F3E5CF82E087BBA29A81E687B97B
:1001500086EC86B9479A85B7877E85BF8091740003
:10016000811509F443C0109273001092710010922F
:10017000720010927400E0917100F0E0E05AFF4FBD
:1001800080818A3008F04AC081E28FBD81E083BF60
:10019000F894A89581B5886181BD85E481BD789486
:1001A000F12CDFEF32E4E32E0CEF10E044E6D42E26
:1001B000E0917100F0E0E05AFF4FC081CC3F09F4BC
:1001C0009BC008F044C0C93209F4B2C048F5C3303E
:1001D00008F4B3C0CF3009F4ABC0C9BD85B78062A5
:1001E00085BF889585B78F7D85BF63C0809173007B
:1001F000809371008091720081110BC08091710019
:100200008F5F80937100809171008F3010F0109299
:1002100071008091710080937300ABCF83E2B5CF02
:10022000C23509F47DC0CB3FC1F6C0E0D9BDC801DD
:100230000197F1F719BC8D2D8C1BC23308F48C2F5C
:10024000875F90E016DFCF5FC43681F732C0CD3FC5
:1002500009F442C0CE3F09F0C0CF19BC15DF88ECCD
:1002600090E007DF11DF90E0292F30E0F901EC5E2C
:10027000FF4FE491E81770F1F901EB5EFF4FC49175
:100280006EE370E08C2F82958695877002DF84EF95
:1002900091E0EFDE65E070E081E0FBDE8EEE92E063
:1002A000E8DE6EE370E08C2F8F71F3DE80ED97E077
:1002B000E0DE349B7DCFE8DE90E0209171002111DB
:1002C00050C023E730E0821793070CF44CC0F12CA8
:1002D000369A6ECF9E5FC8CFD9BD81E090E0C9DE6F
:1002E00019BC89EF90E0C5DED9BD81E090E0C1DEA8
:1002F00019BC8DEE92E0DCCFC0E0D9BD81E090E08A
:10030000B8DE19BC8E2D8C1BC13208F48C2F855E93
:1003100090E0880F991FADDECF5FC23471F7C9CF6F
:10032000D9BD81E090E0A5DE19BC8C2F90E0C0CF54
:10033000D9BDC8010197F1F7F7CFEC2FF0E0E05AF3
:10034000FF4FC580B780C4E0B9BC85E090E091DE86
:10035000C9BC81E490E08DDECA95B1F780ED92E0F2
:10036000A7CF21E8AFCFF39483E0F812B1CF80910B
:100370007100811531F01092710088EE93E079DE02
:10038000A6CF19BCA5DE85B7877E806185BF85B7FE
:10039000806285BF889585B78F7D85BFEECFF89445
:0203A000FFCF8D
:1003A200FEFD000102040E2778FF52290FFCFB001C
:00000001FF
