:10000000A4C0BEC052C4BCC0BBC0BAC0B9C0B8C096
:10001000B9C2B6C0B5C0B4C05BC4B2C0B1C0000004
:1000200000000000000000000000000000000000D0
:1000300000000000000000000000000000000000C0
:1000400000000000000000000000000000000000B0
:1000500000000000000000000000000000000000A0
:100060000000000000000000000000000000000090
:10007000000103040507080A0B0D0E1012131517D3
:10008000191B1D1F222426292B2E303336393C3FC5
:100090004245484C4F53575B5F63676B7074797E82
:1000A00083888D92989EA3A9AFB6BCC3CAD1D8DF6E
:1000B000E7EFF7FF0101020203030404050506064A
:1000C000070808090A0A0B0C0D0E0F101112131560
:1000D0001617191A1B1D1F20222426282A2C2E3100
:1000E0003336383B3E4144474A4E5155595D616570
:1000F0006A6E73787D82888D9399A0A6ADB4BBC3D8
:10010000CAD2DBE3ECF5FFFFFFFFFFFFFFFFFFFFBE
:10011000FFFFFFFFFFFFFFFFFFFFFFFFFFFFFFFFEF
:10012000FFFFFFFFFFFFFFFFFFFFFFFFFFFFFFFFDF
:10013000FFFFFFFFFFFFFFFFFFFFFFFFFFFFFFFFCF
:10014000FFFFFFFFFFFFFFFFFF0011241FBECFE5F2
:10015000D2E0DEBFCDBF10E0A0E6B0E0E4EBFCE112
:1001600002C005900D92AE3BB107D9F721E0AEEB8E
:10017000B0E001C01D92A738B207E1F713DD98CDBA
:100180003FCF20918401222361F080913A01909128
:100190003B01959587959091C700891B281B20935B
:1001A000C70080918501882319F0825E80937300D7
:1001B00080917300873418F086E48093730008956B
:1001C0008091840181118093660008952091BF0081
:1001D0009091840180918501222381F09111909367
:1001E0006E00882321F097E9981B90936D00809111
:1001F0008601882361F080936C000895911190939B
:100200007000882321F097E9981B90936F00089560
:100210008CEF93E00197F1F70895FF920F931F93EE
:10022000CF93DF938C01EB01842FF22E20913701C5
:1002300030913801232B29F0E0913701F0913801FA
:1002400009951093380100933701012B61F0E0917B
:100250003701F0913801BE018F2DDF91CF911F91B1
:100260000F91FF900994DF91CF911F910F91FF9013
:100270000895DC019091C600983090F4E92FF0E0E9
:10028000EE0FFF1FEC58FE4FB183A0839F5F90934A
:10029000C60028E049E0CD01C0DF8091C600089586
:1002A0008FEF0895CF93DF93E091C600EE2359F0CE
:1002B000E150E093C600F0E0EE0FFF1FEC58FE4F58
:1002C000C081D18102C0C0E0D0E0E091C600EE2341
:1002D00041F0F0E0EE0FFF1FEE58FE4F808191815C
:1002E00002C080E090E02AE049E060E070E095DF45
:1002F000CE01DF91CF9108950F931F93CF93DF939A
:10030000EC018B01CFDFB801CE01DF91CF911F91BE
:100310000F91AFCF813C29F460E070E08EE299E06C
:1003200006C0823C31F460E070E08EEB91E0E4DFE7
:1003300007C0843C39F460E070E086EA9CE099DF15
:1003400080E0089581E00895813C29F460E070E048
:100350008EE299E006C0823C31F460E070E08AE809
:1003600091E0CADF07C0843C39F460E070E08AEABB
:100370009CE07FDF80E0089581E00895813C29F4CE
:1003800060E070E08EE299E006C0823C39F460E003
:1003900070E08DE598E0B0DF80E0089581E0089599
:1003A0001092710181E08093C1000895109227019D
:1003B0001092260190917101803159F4892F806942
:1003C0009F709E3020F08093710181E008958F5FCF
:1003D000FACF882329F090689093710180E0089506
:1003E000892F8F7E95FD02C08068EDCF806CEBCFAA
:1003F000482FDB0120E030E0C90163E070E0FADB68
:10040000FC01E05CFE4F8081882331F02F5F3F4F7D
:100410002031310589F703C04083B283A183089559
:1004200020E030E0F22FE32F2F5F3F4FC90163E060
:1004300070E0E0DBDC01A05CBE4F4C918F2F9E2F63
:1004400063E070E0D7DBFC01E05CFE4F4083119677
:100450008D919C911297928381832F30310511F7F2
:1004600010926D0110926F0110926E01089590E844
:1004700022E048EA57E0815040F096BD26BDFA01DF
:100480003197F1F796BD16BCF6CF08950F931F93E1
:10049000CF93DF93D82F8B01C091C600C150C7FD09
:1004A0000FC0EC2FEE0FFF0BEC58FE4F0190F081C8
:1004B000E02DB8018D2F09958111F0CF80E001C0AA
:1004C00081E0DF91CF911F910F91089580914001BC
:1004D000882349F06091410170914201809140016F
:1004E000D5DF9EDFF3CF0895AF92BF92CF92DF9218
:1004F000EF92FF920F931F93CF93DF93E09037011A
:10050000F0903801EC0110E888EAC82E87E0D82E78
:1005100002E09AEEA92EBB24B3942097E1F08091DB
:10052000C30016BD863018F406BDC50102C016BC56
:10053000C6010197F1F716BD16BC8091C10081116B
:100540000CC020913701309138012197E216F30653
:1005500029F4BCDFE2CF81E001C080E0DF91CF91E0
:100560001F910F91FF90EF90DF90CF90BF90AF90D1
:1005700008953ECF9093270180932601BC0180917E
:10058000710136CF1F920F920FB60F9211242F9345
:100590003F934F935F936F937F938F939F93AF930B
:1005A000BF93EF93FF9380913E01882309F433C1F9
:1005B00010923E0164B175B18091C200860F8093A4
:1005C000C200809125018F5F837080932501813067
:1005D00039F580E098E52BDB6B5F7F4F769567956B
:1005E00060933F0180912401882321F08150809302
:1005F000240109C180913F018D3178F4809123015C
:10060000843020F48F5F80932301FDC060E070E0B0
:1006100084E0EEDE84E18093240110922301F3C094
:10062000833009F0F0C08091C70063517140680FBA
:10063000711D87FD7A95809172008823F9F01092E0
:100640007200E3E1F1E083E291E0619371938E1730
:100650009F07D9F7660F771FE3EFF0E083E191E0A2
:10066000619371938E179F07D9F7E3EEF0E06193E2
:10067000719320E0E33FF207D1F719C0E3E1F1E025
:1006800041E251E080E090E0228133812193319377
:10069000820F931F4E175F07B9F770932201609383
:1006A0002101680F791F759567957595679570930A
:1006B0003B0160933A0180913A0190913B01E3EF55
:1006C000F0E021E131E042815381419351932E17B3
:1006D0003F07C9F790931201809311012091F30015
:1006E0003091F400AC01421B530B9A0154E0220FED
:1006F000331F5A95E1F7280F391F30937301209368
:1007000072018091E200E82FF0E0EE0FFF1FED5143
:10071000FF4F318320838F5F87708093E200E3EE89
:10072000F0E043EF50E080E090E061917191860F3E
:10073000971F4E175F0771F46091730070E0660FAA
:10074000771FAB01435151092417350744F010922C
:10075000E1000AC080386EE396073CF3EDCF261720
:10076000370714F41092E0002091DF00222321F0DB
:1007700021502093DF0047C097FD079623E0959511
:1007800087952A95E1F768177907DCF42091E00056
:10079000243020F42F5F2093E00035C01092E00059
:1007A00024E12093DF009C01261B370BB90193E065
:1007B000759567959A95E1F71616170624F585E065
:1007C00021C06451710986179707ECF42091E1006C
:1007D000243020F42F5F2093E10015C01092E10037
:1007E00024E12093DF00681B790B83E07595679502
:1007F0008A95E1F71616170634F480913F018E3181
:1008000010F086E0F5DD80912501823010F48CE057
:1008100001C08FE887B9FF91EF91BF91AF919F9190
:100820008F917F916F915F914F913F912F910F9099
:100830000FBE0F901F901895A89581B5886181BD56
:1008400080E481BD08950F931F9361E04DE750E070
:1008500026B38091D8009091D900A091DA00B09190
:10086000DB00880F991FAA1FBB1F23FB222720F93B
:100870002627822B8093D8009093D900A093DA008A
:10088000B093DB00FA013197F1F78C019D01015023
:100890001109210931090E3F1F4F2F4F3F4FC0F261
:1008A00080933D011F910F9108951895CF93C82F04
:1008B000882311F080E101C080E078DD882331F0E9
:1008C000C0933D0180E090E0CF9154CECF91089548
:1008D0001F920F920FB60F9211242F933F934F93B5
:1008E0005F936F937F938F939F93AF93BF93CF93B8
:1008F000DF93EF93FF9381E08093C5008091C40064
:10090000882399F0C091DD00D091DE00BE0183E024
:100910006FDDCE010196CC27D078C82BD92BD09390
:10092000DE00C093DD00D2DD4DC01092DE001092DB
:10093000DD00C0913D0187DFC813B8DF809126013B
:1009400090912701EC01219688279078C82BD92B0C
:10095000D0932701C093260180917101807F803B55
:1009600019F460E070E001C0BE0181E041DD8091DA
:10097000710184FF0DC085FF02C0CE0107C06897DA
:10098000A0F080628093710180E090E0F3DD0DC003
:10099000882359F085FD08C0689738F080648093FB
:1009A000710180E090E0E6DDFBDC8091DC008F5F90
:1009B0008093DC00837031F486B1886486B981E06D
:1009C00080933E01FF91EF91DF91CF91BF91AF9165
:1009D0009F918F917F916F915F914F913F912F9157
:1009E0000F900FBE0F901F901895A89581B5886144
:1009F00081BD82E481BD379826DF8111FDCFD0DC37
:100A00008BB780628BBF8091C4008823C9F010929D
:100A1000C50085B7877E806185BF85B7806285BF49
:100A200085B7846885BF8B7F85BF889585B78F7DA7
:100A300085BF8091C5008111E6CF1092C400E3CF3D
:100A400081E0809372008CE087B986EC86B9F4CEA1
:100A500085B7877E85BF85B7806285BF889585B756
:100A60008F7D85BF089580913C019091C3008917C7
:100A700020F48091C300815007C09091C300981763
:100A800018F48091C3008F5F6FEF680F262F30E05E
:100A9000A9014C545F4FFA0194917091C3006717FC
:100AA00028F469B5611102C09F3F59F069B5691713
:100AB00018F499B59F5F05C069B5961718F499B5F4
:100AC000915099BD225E3F4FF901949168B5691725
:100AD00018F498B59F5F05C068B5961718F498B5D7
:100AE000915098BD99B5FA014491941307C098B5F7
:100AF000F9012491921302C08093C3000895E091FC
:100B00006400F09165003196FB70F460F09365002D
:100B1000E09364008091C2008B5A8093C200E491FC
:100B20008091C2008E0F08950F931F93CF93DF9390
:100B3000F89480E091E0A2D8853A89F408E211E0C7
:100B4000C1E0D1E0CE019AD8F80181938F012196BE
:100B5000C031F1E0DF07B1F7789481E002C078940A
:100B600080E0DF91CF911F910F9108950F931F9314
:100B7000CF93DF93F89408E211E0C1E0D1E0F801EF
:100B800061918F01CE0182D82196C031F1E0DF075B
:100B9000B1F765EA80E091E079D87894DF91CF9160
:100BA0001F910F9108958091C300863020F480E852
:100BB00086BD82E005C08D3028F480E886BD81E0E6
:100BC00086BD089580E886BD16BC0895882321F06F
:100BD000813029F4BC9804C0BC98C4980895BC9A8C
:100BE000C49A0895CF93C82F8093C30080933C018B
:100BF0008091C40081110AC091E0C11101C090E050
:100C000081E0C43508F480E0890FE0DFC11103C042
:100C100019BC18BC0DC0C1508C2F90E0FC01EC54E5
:100C2000FF4FE491E9BDFC01E25EFF4FE491E8BDB6
:100C3000CF91B9CFCF93C82F882381F089E1D2DF3C
:100C400088EC90E051DC80E0CDDF80E991E04CDC85
:100C5000C150A1F788E592E0CF9146CC89E1C2DF8F
:100C600088E090E041DC80E0BDDF80E991E03CDCA1
:100C7000F1CFCF93DF93C82F843638F08CE98C0FF7
:100C8000843628F0C85C82E004C080E002C0C82F2F
:100C900081E0D0E0CA3018F0DF5FCA50FBCF882374
:100CA00081F0C8DF882381F08D2FC4DF882361F0B5
:100CB0008C2FC0DF882341F088EE93E0DF91CF9145
:100CC00013CCD111F1CFF4CF80E0DF91CF91089513
:100CD00080913F01CECF982F8079803919F480918F
:100CE000710003C0803821F480E07CDF80E008954B
:100CF000913051F48091C300811106C0633A734072
:100D000020F09093C400089581E00895CF93DF937D
:100D1000883059F41092CC006093CB001092CA0036
:100D20001092C9001092C80081C0813009F068C0DB
:100D30009091CA00892F8D7F81F42091C800309155
:100D4000C9002F31310538F42F5F3F4F3093C90070
:100D50002093C8006EC09F5F25C0913051F58091EF
:100D6000CB008823F1F0C091C800D091C9009E014A
:100D70002F7133272A30310511F485E204C0243164
:100D8000310519F480E02EDF06C02F31310519F44A
:100D900081508093CB002196D093C900C093C800A6
:100DA00045C092E09093CA001092C9001092C8000A
:100DB00040C09330E9F4C091C800D091C900219699
:100DC000D093C900C093C800CE01837099270097C3
:100DD00011F489E103C0029711F482E103DFCB3BF8
:100DE000D10520F180E0FEDE84E08093CA001EC0C1
:100DF0009430E1F48091CC008093700153DA16C0F6
:100E00008138B1F4CDDA8091CA00833079F48091D1
:100E1000CC008F5F8093CC001092C9001092C80064
:100E20008BE4E0DE84E023DB80E0DCDE80E001C0F8
:100E300081E0DF91CF910895982F880F97FD8095DD
:100E40000895AF92BF92CF92DF92EF92FF920F93ED
:100E50001F93CF93DF93883019F41092D60024C0EB
:100E6000823CD9F3813B31F4809162008B34E0F411
:100E70008F5F07C0823B41F4809162008230A0F016
:100E800081508093620010C0EB01833C79F4809123
:100E9000D600843E48F4855E8093D6008091C300DE
:100EA000805EA0DE82E0E3DA80E08FC0813009F06E
:100EB0008BC02091D600FB01FF70213069F4809136
:100EC000620090E04496BF0134E0769567953A95CC
:100ED000E1F790D6B92E01C0B12CEF3FFF4061F48D
:100EE000222351F021502093D600211105C060E04B
:100EF00070E08EE299E000DAC090D5008C2D9CDF86
:100F0000F82ED090D4008D2D97DFA82E009161008F
:100F1000E090D3008E2D90DF482F109160002F2D90
:100F200030E083E0220F331F8A95E1F720916200C1
:100F30002B19230F602F70E08A2D90E05BD6290FCC
:100F4000612F70E0842F90E055D6822F890F87FDA6
:100F500080E048DEC0FD05C0D2DD8170C80EC092C1
:100F6000D5008091D200D80ED092D400C8DD65E2C1
:100F700052D6E90EE092D300C2DD8F7329F4BFDDB3
:100F80006DE049D69093D200002331F0B8DD8F7325
:100F900019F4015000936100B2DD811105C087E0B2
:100FA000809361001092D400133030F0A8DD8F716F
:100FB00019F4115010936000A2DD8F7709F074CFFF
:100FC00095E09093600001C081E0DF91CF911F9187
:100FD0000F91FF90EF90DF90CF90BF90AF9008956A
:100FE0000F931F93CF93DF93EC016091700080917A
:100FF0006F009091BF00992321F060916E00809165
:101000006D00262F30E0C217D3070CF440C0282F04
:1010100030E02C173D07E4F18091BF00811102C040
:101020008C2F36C0E0916D0080916E00E81B6091BE
:101030006C00F0E070E061507109CF010CD6609354
:10104000390180916E006695262F30E010E0909176
:101050006C001917E8F440916C0000916E00812F2C
:1010600090E0BF01C7D5642F70E061507109DFD5F2
:10107000802F860FAE01481B510957FF03C05195C1
:1010800041955109241735071CF41F5FE0CF862FC7
:10109000DF91CF911F910F910895CF93C82FCC234B
:1010A00051F085E29FDD82E0E2D980E09BDD89E1BD
:1010B000DED9C150F4CFCF910895883049F4109211
:1010C000D1001092D00082E0E8DF88E18BDD07C01C
:1010D000813C39F460E070E08EE299E00DD980E067
:1010E0000895823C29F460E070E084EA91E0F6CF54
:1010F0008130D9F48091D0009091D100019685354E
:1011000024E2920728F49093D1008093D000E7CF97
:101110001092D1001092D0008091C300815062DD06
:101120008091C3008111DBCFD5CF81E00895CF93AB
:10113000DF93CDB7DEB7C054D1090FB6F894DEBF48
:101140000FBECDBF90E4E4E7F0E0DE011196019020
:101150000D929A95E1F78F73E1E0F0E0EC0FFD1F3F
:10116000E80FF11D8081C05CDF4F0FB6F894DEBF41
:101170000FBECDBFDF91CF9129CDD6DC8823E1F121
:10118000809128018093BF00809129018093700095
:1011900080912A0180936F0080912B0180936E00D3
:1011A00080912C0180936D0080912D0180936C00C3
:1011B00080912E0180936A0080912F0180936800B6
:1011C00080913001809369008091310180936700A4
:1011D0008091320180936600809133018093C0003A
:1011E0008091340180937300809135018093C70012
:1011F0008091360180936B0008958091BF00E8E2F2
:10120000F1E0808380917000818380916F00828300
:1012100080916E00838380916D00848380916C0047
:10122000858380916A008683A8E6B0E08C918783ED
:1012300011968C91808780916700818780916600EC
:1012400082878091C000838780917300848780911A
:10125000C700858780916B00868788CCCF938830C4
:1012600051F480E0BFDC80916B008370AFDC81E0E3
:101270008093C40089C0813059F46D37710508F43A
:1012800083C08093C40080916B0083709FDC7CC01E
:10129000833049F480916B008370833009F074C00F
:1012A000862F45DF71C0813919F481E090E01FC0BD
:1012B000813BB1F46115710541F4C091C30080E038
:1012C00091DC83E0D4D88C2F26C08091BF0081119F
:1012D00004C06831710508F45AC061E070E013C0C1
:1012E000813ED9F3813829F48091710090E078DE55
:1012F00012C0813C21F46091710070E004C0823B17
:1013000029F466E970E089EC99E02FC0823CC9F3CA
:10131000833919F480E066DC37C0833C29F460E04F
:1013200070E08EEB91E021C0833B29F460E070E037
:101330008CE19BE01AC0843C39F482E0AEDE60E0D0
:1013400070E087E89BE011C0853C39F481E0A5DEC0
:1013500060E070E08BE696E008C0863C41F481E0F6
:101360009CDE60E070E08BED9BE0C6D70DC0873C53
:1013700069F490916B0081E0890F83709C7F982BBA
:1013800090936B0023DC39DF80E001C081E0CF91D6
:1013900008951F93CF93DF93CDB7DEB728970FB68D
:1013A000F894DEBF0FBECDBF9B014091700010913D
:1013B0006F009091BF00992339F040916E00109119
:1013C0006D00E091390101C0E1E0883029F08A30F8
:1013D000B1F42091710030E0842F90E082179307E0
:1013E00038F4812F90E02817390710F4209371000A
:1013F000C901F6DD8093BE00F5DB81E06EC0813C63
:1014000031F460E070E08EE299E076D708C1823C6A
:1014100059F48091C300863910F486E902C08091A6
:1014200071008093BE0082C0833CA1F49091BF0004
:1014300081E0911180E08093BF008091C30090E033
:10144000CFDD809371008093BE00D7DE80E0CADBE1
:1014500085E069C0843C31F460E070E080EA9CE0A3
:1014600008D7DDC0813BA1F58091BF00882339F00A
:10147000C90168E170E0DBD3892B09F0D0C0232BD0
:1014800069F48091C300811710F08FEF05C080913F
:10149000C300481718F081E0809363002091C300D7
:1014A000809163006E2F70E0082E000C990BA2D380
:1014B000820F911D95DD809371008093BE00909105
:1014C000C300891789F1833559F118132DC028C03D
:1014D000813E31F4809163008195809363009FC0C9
:1014E000823B31F581E0809363008091BF008823C7
:1014F00039F0C90168E170E09AD3892B09F08FC0F7
:101500008091C30090E08E1B91096ADD8093710089
:101510008093BE009091C300891731F0833521F488
:1015200080E060DB82E0A3D7809171005BDB77C055
:10153000813009F042C02E33310511F480936300ED
:1015400020FF05C08091C300873808F468C088E098
:10155000E4EBF0E0DE01119601900D928A95E1F73F
:101560009091D7009F5F9093D70020913C0180918C
:10157000C300821728F480913C012091C30004C06D
:101580008091C30020913C01821B3091C30021E077
:10159000373808F420E0882319F02F5F8695FBCFB9
:1015A000E1E0F0E0EC0FFD1FE20FF11D80818917F3
:1015B000B0F559DA1092D70032C08530B9F4809175
:1015C000C3008D3360F18091C30090E0821B930BC8
:1015D0008C33910534F08739910528F086E990E045
:1015E00002C08CE390E080933C0119C08630C9F4BE
:1015F0009091C3008091BE00981788F49091C30029
:10160000290F311D90E08217930734F02C333105F8
:1016100024F42CE330E001C09C0120933C0180E0E5
:1016200001C081E028960FB6F894DEBF0FBECDBF93
:10163000DF91CF911F9108951F93CF93DF93D82F00
:10164000162FC0916A00C33009F4FBDBD13C31F4A2
:1016500060E070E08EE299E04FD652C0D23C49F48F
:101660008C2F90E0019665E070E0F5D280936A00DF
:101670003EC0D13BC1F4C23060F410FD41C0EC2F3C
:10168000F0E0E859FF4F80818930D0F180818150AE
:1016900019C0C430A9F580916700883700F58091A2
:1016A00067008F5F1AC0D23BF1F4C23068F410FDBE
:1016B00027C0EC2FF0E0E859FF4F80818F3F01F108
:1016C00080818F5F80831CC0C430D1F4809167001B
:1016D000833028F08091670081508093670080916B
:1016E000670080DA0DC08FE18D0F823010F485DD48
:1016F00007C0D13039F48091C200180F1093C20096
:1017000080E001C081E0DF91CF911F9108950F9398
:101710001F93CF93C82F8B018079803929F481E002
:1017200090E05EDC5FDA1BC0803819F480E05ADAA2
:1017300009C0C83039F480916B008695869546DAE9
:1017400081E035C0C13059F40D37110520F1C09347
:10175000C40080916B008695869538DA1CC0C33032
:1017600041F480916B008C708C30A9F4802FDFDC09
:1017700012C0C33C91F490916B00892F8695869599
:101780008F5F8370282F220F220F9370920F9093F8
:101790006B001CDA32DD80E00AC081E0C43C39F421
:1017A0007CDC60E070E08EE299E0A6D5F4CFCF91CA
:1017B0001F910F910895CF93883061F4C1E0C093D9
:1017C000CF00C093C00019DDC093CE008EE380939C
:1017D000710036C0813939F48091CE00882309F434
:1017E00083C086E110C0813841F48091CE00882307
:1017F00009F47AC08091710006C0823931F481E029
:101800008093CE0080E0EED96FC0813C51F490917E
:10181000CE0081E089278093CE00882389F080E084
:101820000EC0813B31F560FD0BC08091CE00882356
:1018300049F01092CE0081E08093CF0086E1D2D9AA
:1018400080E053C09091C3006230710528F4973650
:1018500018F08FEF8093CF008091CF00890F8631F1
:1018600020F0883618F087E601C086E18093710089
:10187000E6CF813E31F48091CF0081958093CF00F7
:10188000DFCF863C59F481E008DC1092C000B5DC63
:1018900060E070E08EE299E02FD5D2CF813081F404
:1018A0006E33710511F48093CF008091CE008823B0
:1018B00039F26F33710520F281E08093C400C0CF0C
:1018C000853009F4BBCF843079F49091C3008091C6
:1018D000C300969586958695890F863108F0AFCF1F
:1018E00081E08093CE00ACCF81E0CF910895883025
:1018F00029F41092CD0080E075D920C0813081F4A8
:101900006091CD00641738F470E06F5F7F4F86E818
:1019100096E0AFD413C0F90109956FDCC3D40EC0B3
:101920008A3061F48091CD0090917001E82FF0E051
:10193000EC57FE4F90838F5F8093CD0080E0089539
:101940004091BF004E5F26EE30E0D1CF21EC30E079
:1019500042E0CDCF20EE30E041E0C9CFCF9380917F
:101960003701909138012BE08C31920729F469E11D
:1019700070E089EC99E019C0895C994091F48091FC
:10198000C300823070F0C091C3008091C300C6953F
:1019900086958695C80F8C2F25D9C093BE00CF9110
:1019A000089560E070E08EE299E0CF91A5C48430A4
:1019B00019F4D4DF80E0089581E0089582E112D91E
:1019C00083E055D580E00ED9D8DB8091C000882314
:1019D00029F06EE370E08BED9BE004C060E070E006
:1019E0008EE299E046C4EF92FF920F931F93CF933C
:1019F000DF9380913701909138012BE08C31920771
:101A000009F095C0C0916A00C230F1F020F0C430F6
:101A100009F476C0C0C0EC2FF0E0E859FF4FD08148
:101A200086E9E0D8C11107C0DA3210F4F1D307C05B
:101A300081E090E003C08D2F869590E055D580E041
:101A4000D1D88D2F90E055C05AD88F73E82EF12C45
:101A500056D867E0E0D0C1E0D0E08E0102C0000FB0
:101A6000111F9A95E2F74BD8837002C0CC0FDD1F8F
:101A70008A95E2F7C00FD11F42D890E0BE01EBD0AB
:101A8000C80FD91F8C2FAED8C7012ED58E0143E0C9
:101A9000159507954A95E1F7011101C001E010E0A5
:101AA000C70122D5C01BD10BD7FF02C0C0E0D0E0D8
:101AB0008C2F98D824D8837031F4C70115D5CE0166
:101AC000959587958FD8C230D10554F718D86DE019
:101AD000A2D0C1E0D0E002C0CC0FDD1F9A95E2F7A2
:101AE0000ED890E0BE01A3D0C80FD91F80E07AD8ED
:101AF000CE01DF91CF911F910F91FF90EF90F4C431
:101B0000C0916700CC0FC73908F0C6E9D4E08C2F2C
:101B100069D885E090E0E8D48091670063D881E4DB
:101B200090E0E2D4D15099F780ED92E0E2CF21E04D
:101B30008E3B920739F4DF91CF911F910F91FF9067
:101B4000EF90C6C821E0843A920789F48091710031
:101B500049D884EF91E0C8D480E044D880916600F1
:101B600090E068EE73E046D0845F9140C2CF8A581F
:101B7000914051F480913A0190913B019595879560
:101B800078D888EE93E0B5CFDF91CF911F910F9178
:101B9000FF90EF905DC7DF91CF911F910F91FF9064
:101BA000EF900895F894B89A81E083BF81EA8ABDE6
:101BB000B99A88E088BB85BB8BB780628BBF3CD667
:101BC0008CE087B986EC86B9789481E050D4E8D36C
:101BD00060E070E087ED9CE04CD3F0DE77D480913C
:101BE000C400882319F080E0FDD7FFD6FCDE1092F8
:101BF000C100F4CF0024552704C0080E591F880FD8
:101C0000991F009729F076956795B8F37105B9F794
:101C1000802D952F0895991B79E004C0991F961780
:101C200008F0961B881F7A95C9F780950895AA1B1E
:101C3000BB1B51E107C0AA1FBB1FA617B70710F0B7
:101C4000A61BB70B881F991F5A95A9F780959095E9
:101C5000BC01CD01089597FB072E16F4009406D021
:101C600077FD08D0E4DF07FC05D03EF49095819520
:101C70009F4F0895709561957F4F0895E199FECF2C
:101C80009FBB8EBBE09A99278DB30895262FE199CB
:101C9000FECF9FBB8EBBE09A01970DB2021639F0C2
:101CA0001CBA2DBB0FB6F894E29AE19A0FBE0895C4
:041CB000F894FFCFD6
:101CB4000407180100040253284303090778147821
:101CC4000153012D01020101010101010101010181
:101CD40001010101010101010101010101010101F0
:101CE40001010101010101010101010101010101E0
:101CF40001010101010101010101010101010101D0
:0E1D040001010101F8804222110904020500CC
:00000001FF
