:10000000A9C0C3C0E8CCC1C0C0C0BFC0BEC0BDC0D5
:1000100095CCBBC0BAC0B9C0CFCCB7C0B6C0323027
:10002000323030363139000000000000000000009E
:1000300000000000000000000000000000000000C0
:1000400000000000000000000000000000000000B0
:1000500000000000000000000000000000000000A0
:10006000000000000000000000010304050708096B
:100070000B0C0E0F1113141618191B1D1F2123250D
:1000800027292B2D30323437393B3E404346484BED
:100090004E5154575A5D606366696D7073777A7E0E
:1000A0008185898D9094989CA0A5A9ADB1B6BABF61
:1000B000C3C8CDD1D6DBE0E5EAEFF4FAFF010102D7
:1000C000020303040405060708090A0C0D0E0F11AC
:1000D000131416181A1D1F2224272A2D3033373BDC
:1000E0003E42464B4F54595D63686E73797F868CF0
:1000F000939AA1A8B0B8C0C8D1D9E2ECF5FFFFFF30
:10010000FFFFFFFFFFFFFFFFFFFFFFFFFFFFFFFFFF
:10011000FFFFFFFFFFFFFFFFFFFFFFFFFFFFFFFFEF
:10012000FFFFFFFFFFFFFFFFFFFFFFFFFFFFFFFFDF
:10013000FFFFFFFFFFFFFFFFFFFFFFFFFFFFFFFFCF
:10014000FFFFFFFFFFFFFFFFFFFFFFFFFFFFFFFFBF
:10015000FFFF000011241FBECFE5D2E0DEBFCDBF00
:1001600010E0A0E6B0E0EEEEFEE102C005900D92D8
:10017000A638B107D9F721E0A6E8B0E001C01D928A
:10018000A432B207E1F736DCB0CE3ACF482FDB011C
:1001900020E030E0C90163E070E049DEFC01EF508F
:1001A000FF4F8081882331F02F5F3F4F2031310591
:1001B00089F703C04083B283A183089590E822E0C9
:1001C00048EA57E030E0815070F00FB6F89496BDE1
:1001D00026BD0FBEFA013197F1F70FB6F89496BD20
:1001E00036BD0FBEF0CF08950F931F93CF93DF93CB
:1001F0008091F100882309F43FC00091F200109132
:10020000F300D091F100C091CE00C150C7FD0DC0E8
:10021000EC2FEE0FFF0BE153FF4F0190F081E02D2B
:10022000B8018D2F09958111F0CF20E030E0F22F39
:10023000E32F2F5F3F4FC90163E070E0F8DDDC0181
:10024000AF50BF4F4C918F2F9E2F63E070E0EFDDDA
:10025000FC01EF50FF4F408311968D919C911297B6
:10026000928381832F30310511F710921E01109275
:10027000200110921F01BCCFDF91CF911F910F91F0
:1002800008959093220180932101BC018091230164
:100290007DCF86B383FB882780F991E089278093FF
:1002A000CB000895E0916600F09167003196FB70F5
:1002B000F460F0936700E09366008091C7008B5A6A
:1002C0008093C700E4918091C7008E0F089581E06C
:1002D00008958091B300882369F02091E200309165
:1002E000E3009091E100291B821B8093E10081E0F3
:1002F000809374008091B400882319F0835E80930A
:10030000750080917500873418F086E4809375003D
:1003100008958091B30081118093680008950F9330
:100320001F93CF93DF938091AD008093B7008091AE
:1003300072008093B800809171008093B900809121
:1003400070008093BA0080916F008093BB00809111
:100350006E008093BC008091AE008093BD008091C0
:100360006C008093BE0080916A008093BF008091F2
:100370006B008093C000809169008093C1008091E0
:1003800068008093C2008091B0008093C300809188
:1003900075008093C4008091E1008093C500809136
:1003A0006D008093C600F89407EB10E0C1E0D1E047
:1003B000F80161918F01CE0186DD2196C131F1E016
:1003C000DF07B1F765EA80E091E07DDD7894DF91A9
:1003D000CF911F910F910895882321F0813029F446
:1003E000BC9804C0BC98C4980895BC9AC49A089557
:1003F000CF93C82F8093C9008093C8008091CA0012
:1004000081110AC091E0C11101C090E081E0C234C5
:1004100008F480E0890FE0DFC11103C019BC18BCEB
:100420000DC0C1508C2F90E0FC01E354FF4FE491CC
:10043000E9BDFC01E95DFF4FE491E8BD8091C90091
:10044000853010F492E005C08E3010F491E001C0C8
:1004500090E080E80FB6F89486BD96BD0FBECF91B0
:1004600008958093AB00C4CFCF93C82FCC2351F015
:1004700085E2BEDF82E0A2DE80E0BADF89E19EDEB7
:10048000C150F4CFCF910895CF93C091C90080E0BF
:10049000AFDF83E093DE8C2FCF91AACF2091AD0008
:1004A0009091B3008091B400222381F09111909338
:1004B0007000882321F097E9981B90936F0080913A
:1004C000B500882361F080936E0008959111909398
:1004D0007200882321F097E9981B9093710008958A
:1004E0000F931F93CF93DF93EC0160917200809183
:1004F00071009091AD00992321F06091700080917E
:100500006F00262F30E0C217D3070CF440C0282F0D
:1005100030E02C173D07E4F18091AD00811102C05D
:100520008C2F36C0E0916F0080917000E81B6091C5
:100530006E00F0E070E061507109CF01A9DC6093BA
:10054000AC00809170006695262F30E010E090910D
:100550006E001917E8F440916E0000917000812F31
:1005600090E0BF0164DC642F70E0615071097CDCB5
:10057000802F860FAE01481B510957FF03C05195CC
:1005800041955109241735071CF41F5FE0CF862FD2
:10059000DF91CF911F910F910895CF93DF93CDB746
:1005A000DEB760970FB6F894DEBF0FBECDBF909157
:1005B000E4009D3110F480E011C090E1E6E7F0E046
:1005C000DE01119601900D929A95E1F78F70E1E0AE
:1005D000F0E0EC0FFD1FE80FF11D808160960FB673
:1005E000F894DEBF0FBECDBFDF91CF91F5CEFF9265
:1005F0000F931F93CF93DF938C01EB01F42E809127
:10060000DF009091E000892B31F0E091DF00F09164
:10061000E00089E009951093E0000093DF00012BD2
:1006200061F0E091DF00F091E000BE018F2DDF91DD
:10063000CF911F910F91FF900994DF91CF911F915E
:100640000F91FF900895CF93DF93E091CE00EE23BA
:1006500059F0E150E093CE00F0E0EE0FFF1FE153C0
:10066000FF4FC081D18102C0C0E0D0E0E091CE0058
:10067000EE2341F0F0E0EE0FFF1FE353FF4F8081C8
:10068000918102C080E090E04AE060E070E0AFDF7E
:10069000CE01DF91CF9108959C019091CE009830CA
:1006A00088F4E92FF0E0EE0FFF1FE153FF4F318395
:1006B00020839F5F9093CE0048E0C90198DF80912E
:1006C000CE0008958FEF08950F931F93CF93DF937C
:1006D000EC018B01B8DFB801CE01DF91CF911F9102
:1006E0000F91DACF883049F410928F0010928E006B
:1006F00082E0BADE88E17CDE07C0813C39F460E04C
:1007000070E086ED93E0E0DF80E00895823C29F41C
:1007100060E070E089EB95E0F6CF8130D9F480910C
:100720008E0090918F000196853524E2920728F47F
:1007300090938F0080938E00E7CF10928F001092DD
:100740008E008091C900815053DE8091C9008111D3
:10075000DBCFD5CF81E00895843031F58091DF0083
:100760009091E0002AE0833D920729F469E170E06E
:1007700083ED95E017C0835D954081F48091C900B9
:10078000823060F02091C9009091C9002695892F90
:1007900086958695820F65DE80E0089560E070E0C2
:1007A00086ED93E091DFF8CF81E00895CF93DF935A
:1007B000EB01883069F480E01BDE80916D0083706E
:1007C0000BDECD2B19F481E08093CA00C0E095C008
:1007D000813051F469317105C8F38093CA0080916A
:1007E0006D008370F9DDF2CF833041F480916D00AC
:1007F0008370833059F7862FD0DEE8CF813B69F4D0
:1008000081E090E06DDEF4DD8091AD00811102C0E9
:100810006897E0F261E070E026C0813ED9F381384C
:1008200071F4C091AE00CC2321F08C2F90E058DE03
:1008300022C08091730090E053DEDADD5EC0813C1F
:1008400071F4C091AE00CC2319F06C2F70E00BC096
:100850006091730070E083ED95E036DF4EC0823B1F
:1008600029F466E970E083ED95E044C0823CC9F369
:10087000833919F480E0BCDDA9CF833C29F460E022
:1008800070E08FEE98E036C0833B29F460E070E0C2
:1008900083ED9AE02FC0843C39F482E0E5DD60E02E
:1008A00070E081E894E026C0853C39F481E0DCDD2D
:1008B00060E070E08AE59CE01DC0863C39F481E090
:1008C000D3DD60E070E084EF94E014C0873C61F415
:1008D00090916D0081E0890F83709C7F982B90939D
:1008E0006D007ADD1CDD72CF8F3C31F460E070E08A
:1008F00087E691E0E9DE6ACFC1E08C2FDF91CF91EE
:100900000895EF92FF921F93CF93DF9300D0CDB75E
:10091000DEB7182F7B0180798039D1F48091720085
:100920008983809170008A83812F8F70823029F4AF
:100930009091AD0081E0892702C08091AD00E1E097
:10094000F0E0EC0FFD1FE80FF11D808151DD1CC0B0
:10095000803819F480E04CDD09C0183039F48091FA
:100960006D008695869538DD81E036C0113061F4E2
:1009700089E1E816F10488F01093CA0080916D00B7
:100980008695869529DD09C0133049F480916D0064
:100990008C708C3011F48E2D00DE80E01DC0133C75
:1009A00089F490916D00892F869586958F5F83706D
:1009B000282F220F220F9370920F90936D000CDD61
:1009C000AEDCEBCF81E0143C39F44EDD60E070E04A
:1009D00086ED93E079DEE1CF0F900F90DF91CF911C
:1009E0001F91FF90EF900895CF93883061F4C1E09C
:1009F000C0938D00C093B00092DCC0938C0085E35F
:100A00008093730036C0813939F480918C0088233B
:100A100009F492C086E110C0813841F480918C00C5
:100A2000882309F489C08091730006C0823931F4AB
:100A300081E080938C0080E0DBDC7EC0813C51F45F
:100A400090918C0081E0892780938C00882389F025
:100A500080E00EC0813B31F560FD0BC080918C00C1
:100A6000882349F010928C0081E080938D0086E10C
:100A7000BFDC80E062C09091C9006230710528F44B
:100A8000953518F08FEF80938D0080918D00890F40
:100A9000863120F0863518F085E501C086E1809327
:100AA0007300E6CF813E31F480918D008195809373
:100AB0008D00DFCF863C59F481E0D6DC1092B00087
:100AC0002EDC60E070E086ED93E0FEDDD2CF813079
:100AD00081F46E33710511F480938D0080918C0048
:100AE000882339F26F33710520F281E08093CA00C8
:100AF000C0CF853081F480918C008111BACF809174
:100B0000C90090E0861B970B863191050CF0B0CFA1
:100B100086E190E0ADCF843079F49091C900809166
:100B2000C900969586958695890F863108F0A0CFE5
:100B300081E080938C009DCF81E0CF910895813C2E
:100B400029F460E070E086ED93E006C0823C31F469
:100B500060E070E08FEE98E0B7DD07C0843C39F4C8
:100B600060E070E08EEB97E097DD80E0089581E033
:100B70000895813C29F460E070E086ED93E006C0C2
:100B8000823C31F460E070E08FE995E09DDD07C0C4
:100B9000843C39F460E070E082EC97E07DDD80E039
:100BA000089581E00895CF93DF939B0140917200F7
:100BB000C09171009091AD00992339F0409170007F
:100BC000C0916F00D091AC0001C0D1E0982F9D7F03
:100BD0009830B9F41092B2008A3019F42091730061
:100BE00030E0842F90E08217930730F4D0E02C1788
:100BF0003D0710F420937300C90172DC32DC81E000
:100C000081C0813C31F460E070E086ED93E05CDD12
:100C10007FC1823C49F48091C900863910F486E98D
:100C200095C08091730092C0833C81F49091AD0097
:100C300081E0911180E08093AD0071DB25DC809133
:100C4000C90090E04DDC8093730080C0843C31F497
:100C500060E070E088EB97E01FDD5AC1813B09F04E
:100C60004CC08091AD00882339F0C90168E170E083
:100C7000FBD8892B09F04CC12115310571F4809105
:100C8000C9008C1710F08FEF05C08091C90048177C
:100C9000C8F081E08093650015C0273381E03807F4
:100CA00088F08091C9008C1770F72D36324050F0D3
:100CB0008091C900481730F0E7DB60E070E081E820
:100CC00094E002DD2091C900809165006D2F70E0F5
:100CD000082E000C990BABD8820F911D01DCD82F88
:100CE000809373008091C900D81729F0D13411F096
:100CF000CD1301C0C9DB8D2F29C0813E31F4809115
:100D0000650081958093650003C1823B09F581E010
:100D1000809365008091AD00882339F0C90168E1B6
:100D200070E0A2D8892B09F0F3C08091C90090E04F
:100D30008D1B9109D5DBC82F809373008091C9006A
:100D4000C81719F0C13409F49FDB8C2F8ADBE0C08F
:100D5000853C29F48091C9008093AE0007C0853B93
:100D600041F4232B09F0D6C01092AE00D8DA8CDB08
:100D7000D1C0813009F083C02E33310511F4809346
:100D800065008091C8002091C90090E0821B910904
:100D900040919500509196004F5F5F4F50939600A1
:100DA00040939500009709F4B3C097FF07C02091C6
:100DB000C900283830F020E430E005C020E032E0FF
:100DC00002C020E031E03695279597FD0196959574
:100DD00087950097C1F72417350708F099C08091CF
:100DE000C8009091C900891720F48091C9008150F2
:100DF00007C09091C900981718F48091C9008F5FBF
:100E00006FEF680F262F30E0A90143545F4FFA01BE
:100E100094917091C900671728F469B5611102C0F7
:100E20009F3F59F069B5691718F499B59F5F05C0E0
:100E300069B5961718F499B5915099BD295D3F4F42
:100E4000F901949168B5691718F498B59F5F05C0CA
:100E500068B5961718F498B5915098BD99B5FA01F0
:100E60004491941307C098B5F9012491921302C0DC
:100E70008093C900109296001092950049C0853069
:100E8000B1F48091C900823408F442C08091C90055
:100E900090E0821B930B8134910534F087399105E2
:100EA000A8F186E990E032C081E490E02FC086305E
:100EB000C1F49091C9008091AB00981748F59091CA
:100EC000C900290F311D90E08217930734F02134B7
:100ED000310524F421E430E001C09C012093C800D6
:100EE00017C08730B9F49091C8008091C900891764
:100EF00020F48091C9008F5F09C09091C800809153
:100F0000C900981728F48091C90081508093C800C7
:100F100080E001C081E0DF91CF910895883029F40D
:100F200010928B0080E064DA21C0813089F48091D6
:100F30008B00861740F4682F70E06F5F7F4F81E071
:100F400099E0AADB13C0FA010995E9D97CDB0EC050
:100F50008A3061F480918B009091AF00E82FF0E02F
:100F6000ED54FF4F90838F5F80938B0080E0089556
:100F70006091AD006E5F4EE452E0D0CF49E651E0A3
:100F800062E0CCCF49E851E061E0C8CF8CE287B99C
:100F90001092EE001092EF0086B1886486B9089531
:100FA0001092F00024B195B13091C700229526959A
:100FB00026952370892F90E0880F991F880F991F1D
:100FC000820F911D830F8093C7008091E5008823D5
:100FD00009F404C11092E5008091EE009091CA00DE
:100FE000992319F037981092EE00811143C0809137
:100FF000CA00811107C06091E6007091E7006F3F61
:10100000710540F46091EA007091EB007093E70085
:101010006093E600605F7F4FA6E076956795AA959E
:10102000E1F780E098E520D7695F7F4F7695679577
:101030006093E4008091AA00882311F0815009C0D8
:101040008091E4008D3138F460E070E084E09ED857
:1010500085E08093AA008091CA008111BFC08FEA09
:1010600087B981E08093EE001092EF0086B188642A
:1010700086B90895813009F0B1C080917400811162
:1010800043C08091E8009091E90040969C0145E0C2
:10109000369527954A95E1F7A091E100A90156956B
:1010A00047950A2E000CBB0BCD0183519140840F54
:1010B000951F9093E3008093E20080919900E82FC0
:1010C000F0E0EE0FFF1FE656FF4F40815181B9015E
:1010D000641B750B318320838F5F87708093990029
:1010E000CB01880F991F880F991F4091750050E020
:1010F0004D5E5E4F4A1B5B0B440F551F841B950BC7
:10110000820F931F23E01EC0109274008091EC00A8
:101110009091ED009093E9008093E800409635E0CF
:10112000969587953A95E1F7EAE9F0E081939193F6
:1011300020E0EA3AF207D1F7A4CF009709F0019630
:10114000215029F018161906C4F70197F9CF18167F
:101150001906E4F477FD39C02091980012160CF1BD
:10116000880F991FBC016350710977FF02C06F5F40
:101170007F4F759567951616170614F061E070E0BD
:1011800088E1861B8093980085E026C08C3F2FEF76
:101190009207DCF477FF19C02091980027FF05C063
:1011A0002450281B2093980018C024EE281B20935D
:1011B00098002091E4002F3180F06CEF7FEF681BE6
:1011C000790B7595679586E007C08091E4008E31B4
:1011D00020F060E070E087E0D9D7D8CE0895813C58
:1011E00029F460E070E086ED93E006C0823C39F4BB
:1011F00060E070E082E793E067DA80E0089581E0E4
:101200000895CF93DF93883059F410928A00609349
:10121000890010928800109287001092860085C085
:10122000813009F068C090918800892F8D7F81F40A
:1012300020918600309187002F31310538F42F5FDF
:101240003F4F309387002093860072C09F5F25C078
:10125000913051F5809189008823F1F0C09186008A
:10126000D09187009E012F7133272A30310511F468
:1012700085E204C02431310519F480E0B9D806C0F4
:101280002F31310519F48150809389002196D09334
:101290008700C093860049C092E090938800109226
:1012A00087001092860044C09330E9F4C091860014
:1012B000D09187002196D0938700C0938600CE01FD
:1012C00083709927009711F489E103C0029711F404
:1012D00082E18ED8CB3BD10540F180E089D884E013
:1012E0008093880022C0943001F580918A00809319
:1012F000AF00A9D91AC08138D1F41092230181E03E
:101300008093B60080918800833079F480918A00C0
:101310008F5F80938A0010928700109286008BE482
:1013200067D884E04BD780E063D880E001C081E0DB
:10133000DF91CF9108950F931F93CF931092CD001B
:1013400080912101909122019C012F5F3F4F8827BE
:101350009078822B932B9093220180932101C0914E
:10136000CB0097D7C817F1F01092CA002091230143
:101370001092220110922101922F882331F090695E
:101380002F702F3041F09F5F06C09F7E25FD02C069
:10139000906801C0906C909323018093CB0080E013
:1013A00090E06FD700912101109122018091CA0035
:1013B000882379F0B80183E0E9D616D70F73112797
:1013C000012B09F044C010929700E0DD87EE86B94A
:1013D0002EC0C09123018C2F807F803B19F460E0E8
:1013E00070E001C0B80181E0D1D6C4FF0EC0C5FFD6
:1013F00002C0C80108C008311105C8F0C062C0931E
:10140000230180E090E03DD712C0CC2381F0C5FDE0
:1014100009C00231110558F0C064C093230180E077
:1014200090E02FD71092230181E08093B600809145
:101430009700811106C086B1886486B981E08093E7
:10144000E500809197008F5F8F7180939700CF9117
:101450001F910F9108958091F0008111A1DD80917D
:10146000CD00811168CF0895AF92BF92CF92DF92E5
:10147000EF92FF920F931F93CF93DF93E090DF00E3
:10148000F090E000EC0110E800E088E0C82E87E072
:10149000D82E92ECA92EBB24B394209741F18091D1
:1014A000C900853040F482E00FB6F89416BD86BDC1
:1014B0000FBEC50106C00FB6F89416BD06BD0FBE1F
:1014C000C6010197F1F70FB6F89416BD06BD0FBE21
:1014D000C2DF8091B60081110CC02091DF003091F5
:1014E000E0002197E216F30629F47ED6D6CF81E0FC
:1014F00001C080E0DF91CF911F910F91FF90EF909D
:10150000DF90CF90BF90AF900895CF93C82F8823DE
:1015100081F089E16DD786EA90E0A6DF80E068D7A8
:101520008AEF90E0A1DFC150A1F78AE992E0CF9164
:101530009BCF89E15DD788E090E096DF80E058D7C7
:101540008AEF90E091DFF1CFCF93DF93C82F8436FD
:1015500038F08CE98C0F843628F0C85C82E004C037
:1015600080E002C0C82F81E0D0E0CA3018F0DF5F11
:10157000CA50FBCF882381F0C8DF882381F08D2FEC
:10158000C4DF882361F08C2FC0DF882341F088EE10
:1015900093E0DF91CF9168CFD111F1CFF4CF80E00C
:1015A000DF91CF910895CF92DF92EF92FF920F9348
:1015B0001F93CF93DF93EB01E0916C0091E0909348
:1015C000B200E33009F0E5C0883029F410929400AD
:1015D00090936300E0C0823C19F410929400E9C03B
:1015E000813BC9F420916200CD2B51F42E3620F0BE
:1015F0008FEF8093630004C0223010F49093630057
:1016000080916300820F11F481E048C18F3608F4A5
:1016100045C18EE643C1813E31F4809163008195DE
:1016200080936300FCC0823B59F4909363008091E7
:101630006200823008F4FBC0815080936200F7C0E2
:10164000833C79F480919400843E08F019C1855E52
:10165000809394008091C900805ECAD682E0AED5A6
:101660000FC1813009F003C16E33710511F480930D
:10167000630020919400FE01FF70213069F4809195
:10168000620090E04996BF0134E0769567953A95FF
:10169000E1F7CDD3C92E01C0C12CEF3FFF4061F46B
:1016A000222351F0215020939400211105C060E0C5
:1016B00070E086ED93E008D8D09093008D2D880FD0
:1016C000D7FC809590E067E070E0B1D3492FE090BF
:1016D00092008E2D880FE7FC809500916100602FAD
:1016E00070E090E0A4D3F09091003F2D330FF7FC11
:1016F000309510916000809162008C19840F282F22
:10170000290F612F70E0832F90E091D3822F890FF2
:1017100087FD80E06DD6C0FD05C0C4D58170D80EB0
:10172000D092930080919000E80EE0929200BAD59A
:1017300065E28ED3F90EF0929100B4D58F7329F43F
:10174000B1D56DE085D390939000002331F0AAD5F8
:101750008F7319F4015000936100A4D5811107C063
:10176000A1D56BE075D39093610010929200133075
:1017700030F098D58F7119F411501093600092D504
:101780008F7709F07FC08ED566E062D390936000BA
:1017900079C0883021F481E08093640081C0813C6D
:1017A00031F460E070E086ED93E08ED779C0823C42
:1017B00049F48E2F90E0019665E070E069D3809344
:1017C0006C005AC0813B49F5E23088F460FD68C086
:1017D000F0E0E659FF4F808190916400891B8830CA
:1017E00020F08F3F99F58EEF31C088E02FC0E430B4
:1017F00009F056C09091690080916400890F809330
:10180000690080916900823010F482E02AC08091E2
:101810006900893740F188E724C0813E31F4809126
:10182000640081958093640027C0823B19F581E0B4
:1018300080936400E23060F4C0FD32C0F0E0E6590D
:10184000FF4F80818F3F61F180818F5F808328C04F
:10185000E43031F580916900833028F0809169008F
:1018600081508093690080916900C2D519C0813C84
:1018700009F497CF823E11F452D512C0813011F095
:1018800081E00FC0CE33D10519F481E0809364006C
:101890008091C700C80FC093C70002C08093620048
:1018A00080E0DF91CF911F910F91FF90EF90DF903B
:1018B000CF9008950F931F93CF93DF93D82F8B0171
:1018C000883031F48091B200813011F488E06BDE11
:1018D0008D2F8079803959F481E08093B100C091D7
:1018E000B200C1110AC08091730082D521C0803836
:1018F00031F41092B10080E07BD5C0E019C0D13046
:10190000B1F4C091B100CC2351F08091B20081308C
:10191000A1F7B801DF91CF911F910F9144CE07330A
:10192000114058F3D093CA0080E056D501C0C1E001
:101930008C2FDF91CF911F910F9108951F920F92DD
:101940000FB60F9211242F933F938F939F93AF93D2
:10195000BF93EF93FF938091EF008823E9F0E0912C
:10196000EE0024B135B1F0E0EE0FFF1FDF01A6510C
:10197000BF4F2D933C93EA51FF4F80819181821795
:10198000930708F401962817390708F40197918303
:10199000808381E08093F00081E08093EF00FF91ED
:1019A000EF91BF91AF919F918F913F912F910F90A8
:1019B0000FBE0F901F9018951F920F920FB60F92A7
:1019C00011248F9381E08093CD008F910F900FBEF3
:1019D0000F901F9018951F920F920FB60F9211241F
:1019E0008F9381E08093CC008F910F900FBE0F906A
:1019F0001F901895F89484B7877F84BF0FB6F8942A
:101A0000A89581B5886181BD11BC0FBEB89A81E0EF
:101A100083BF81EA8ABDB99A88E088BB85BB8BB752
:101A200080628BBFA89581B5886181BD80E481BD4E
:101A3000ADDA87EE86B9789481E0C0D360E070E0DB
:101A40008CEA93E029D682E1D3D483E0B7D380E057
:101A5000CFD41FD4811108C0F89480E091E02BD23C
:101A6000853A69F178947AC0C0E08C2FC1D483E1C3
:101A700090E0FADC8C2F8695BBD483E190E0F4DC17
:101A800008D4882399F0CF5FC03479F785E180933B
:101A9000B3001092B4001DD442D4C6E98C2FA8D450
:101AA00084E090E0E1DCC150C9F7D6CFCC23A1F2AD
:101AB0008C2F9ED48DE090E0D7DCC150F7CF07EBA0
:101AC00010E0C1E0D1E0CE01F6D1F80181938F01A1
:101AD0002196C131F1E0DF07B1F778948091B7002A
:101AE0008093AD008091B800809372008091B9001E
:101AF000809371008091BA00809370008091BB0048
:101B000080936F008091BC0080936E008091BD0037
:101B10008093AE008091BE0080936C008091BF00E6
:101B200080936A008091C00080936B008091C10017
:101B3000809369008091C200809368008091C30007
:101B40008093B0008091C400809375008091C5009F
:101B50008093E1008091C60080936D008091B00079
:101B6000882329F065E370E084EF94E004C061E02D
:101B700070E086ED93E090D543E4342E992493945D
:101B800057EE452E60E4562E8824839477E0772E16
:101B9000CC24C394D12CF5E06F2EACEFAA2EA3E099
:101BA000BA2E22D38091CA00882309F445C080E070
:101BB0001FD4A89581B5886181BD31BC379869D3A0
:101BC0008111FDCF109223019092B6008BB78062F5
:101BD0008BBF1092F0001092CD001092CC0080913B
:101BE000CA008823E9F085B7877E806185BF85B705
:101BF000806285BF889585B78F7D85BF8091CC0039
:101C000081111092CA008091F000882319F080920F
:101C1000E500C6D98091CD00882309F38CDBDFCFA6
:101C2000909274008BB78F7D8BBFB0D946B8A895C2
:101C300081B5886181BD51BC0EDC8091DF0090913F
:101C4000E00021E087369207A1F4CEE1D0E0FE016A
:101C5000849180535ADC8CE291E006DC2196F0E01E
:101C6000C632DF07A1F760E070E086ED93E02CD587
:101C7000DBC02AE0833D920779F03CE08A35930788
:101C800009F09FC08091B200813009F0C3C08091FB
:101C9000B100882309F4BEC0C0916C00C23001F1CC
:101CA00020F0C43009F476C0BFC0EC2FF0E0E65954
:101CB000FF4FD08186E99CD3C11109C0DA3220F4EC
:101CC000C5010197F1F707C081E090E003C08D2FB7
:101CD000869590E0C9DB80E08BD38D2F90E098C093
:101CE000E1D28F73E82EF12CDDD2672DB1D0E60161
:101CF00002C0CC0FDD1F9A95E2F7D4D2662DA8D092
:101D0000F60102C0EE0FFF1F9A95E2F7CE0FDF1F1C
:101D1000C9D290E0BE01BCD0C80FD91FC739D105C8
:101D200014F0C6E9D0E08C2F63D3C7019DDB8E0190
:101D300033E0159507953A95E1F7011101C001E0EF
:101D400010E0C70191DBC01BD10BD7FF02C0C0E080
:101D5000D0E08C2F4DD3A6D2837031F4C70184DB41
:101D6000CE019595879544D3C230D10554F79AD2C8
:101D70006DE06ED0E60102C0CC0FDD1F9A95E2F750
:101D800091D290E0BE0170D0C80FD91F80E030D34F
:101D9000CE013EC0C0916900CC0FC73908F0C6E93A
:101DA000D4E08C2F25D385E090E05EDB8091690044
:101DB0001FD381E490E058DBD15099F780ED92E099
:101DC00027C0F8E08F3E9F0721F48091E400BCDB40
:101DD0002BC025E0893B920789F48091730008D3DA
:101DE00084E690E041DB80E003D38091680090E0DE
:101DF00068EE73E01CD0845691090AC08F59954053
:101E000049F48091E2009091E3009EDB88EE93E03C
:101E10002BDB0AC085B7877E85BF85B7806285BF0B
:101E2000889585B78F7D85BF1092B600BACE002405
:101E3000552704C0080E591F880F991F009729F0D5
:101E400076956795B8F37105B9F7802D952F0895AC
:101E5000991B79E004C0991F961708F0961B881FFC
:101E60007A95C9F780950895AA1BBB1B51E107C05D
:101E7000AA1FBB1FA617B70710F0A61BB70B881F1A
:101E8000991F5A95A9F780959095BC01CD010895A9
:101E900097FB072E16F4009406D077FD08D0E4DFF8
:101EA00007FC05D03EF4909581959F4F089570955D
:101EB00061957F4F0895E199FECF9FBB8EBBE09A5D
:101EC00099278DB30895262FE199FECF9FBB8EBB36
:101ED000E09A01970DB2021639F01CBA2DBB0FB66D
:0E1EE000F894E29AE19A0FBE0895F894FFCFAD
:101EEE00060B18010101000402412943030E077875
:101EFE0014780141012D00010201000000000000D4
:061F0E00010000000000CC
:00000001FF
