:1000000021C02EC02DC02CC02BC02AC029C028C0A2
:1000100027C026C08AA9ABACAEAFB0B4B7BCC2FF94
:10002000A1A3A3A3A3A1A1A1A1A1A1A1041446FFDF
:10003000FF00000000000000000005075AFFFAFB67
:10004000FEFCFFFD11241FBECFE9CDBF20E0A0E6DE
:10005000B0E001C01D92A536B207E1F7AED0CDC128
:10006000CFCF23E433E0019720F0F9013197F1F786
:10007000FACF089588EE93E0F4CFCF93C091620059
:1000800081E08C0F8F7380936200609161006295B4
:10009000660F660F607C90916000692B90E09FD1A5
:1000A0006FEF8C2F90E0CF919AC1CF9310926200A6
:1000B000C0916200C03490F48C2F90E088D18F3FC3
:1000C00021F4CF5FC0936200F3CF982F9F7090937D
:1000D000600086FB882780F980936100CF910895A6
:1000E000811104C0611102C091EA9FBD89BD66BF44
:1000F000089590E0FC01E05EFF4FE491EFBDFC014C
:10010000E45DFF4F6491FC01E85CFF4F8491E8CF10
:10011000369A3699FECF85B108951F93CF93DF931A
:10012000C82F14E1D1EACC2369F019BC16BF84E6CC
:1001300090E097DFDFBD19BC16BE80E991E091DF4A
:10014000C150F1CFDF91CF911F9108951F93CF93AD
:10015000DF93C82FD6E011EACC23C1F019BCD6BF7B
:1001600082E390E07EDF1FBD19BC16BE84E690E0FE
:1001700078DF19BCD6BF82E390E073DF1FBD19BCE6
:1001800016BE80ED99E36DDFC150E6CFDF91CF91D0
:100190001F9108951F93CF93DF93EC01888111E0A5
:1001A000812788836ADF82E0B8DF8881812788839E
:1001B00064DFDF91CF911F915DCFA39A83E687B96A
:1001C00086EC86B93699FECF369A3699FECFC5B100
:1001D000B99AB89A81EA8FBD81E083BF66DF86E075
:1001E000809363008CE080936400C93C70F0809140
:1001F00065008F5F8F7180936500809160008F5FD5
:10020000809360008630C0F008C010926500CF3542
:1002100078F080916000863019F4109260000CC074
:10022000882311F0815001C08BE08093600004C0EE
:1002300080916100882389F320DFBB9AC39AA29A38
:1002400081E687B986EC86B9369A10E0E12C84E61F
:10025000C82E01EA94E6B92EDD24DA94809160007C
:10026000E82FF0E0E85CFF4FC49190916500903179
:1002700048F000DF109265001092600081E690E087
:1002800089DF7AC0CD3F59F4D9BC16BE82E390E035
:10029000E8DE0FBD19BC16BE82E390E011C0CC3F72
:1002A00089F4C4E0D9BC16BE85E090E0DADE19BC62
:1002B000C6BE81E490E0D5DEC150A1F780ED92E0AA
:1002C000D0DE5AC0CB3F19F5C0E0D3E019BCB6BEB2
:1002D000C13049F480E991E0C4DE0FBD19BC16BEFF
:1002E00080E991E008C084E690E0BBDE0FBD19BC58
:1002F00016BE88EC90E0B5DED15041F788EC90E076
:10030000B0DECF5FC33009F784EC99E0D9CFCA3FA4
:1003100081F4C8E9DAE3F12C8F2DFFDECE01A1DEF6
:1003200083E014DFF394C45FD1408AE0F812F4CF85
:1003300023C0CE3F81F4ECDE982F80E0E82FF0E080
:10034000EC5EFF4FE491E91710F48F5FF7CFE5DE25
:1003500080ED97E0B5CFCDDEE39484E18E1548F4CF
:10036000CF3F39F480916300825080936000C1DEFA
:1003700084DE80DE10926500349B70CF85B18138B9
:1003800018F51F5F123008F1C09160008091630082
:10039000C81798F4CC2311F0C15010C00FBD19BC80
:1003A00016BE85B7877E806185BF85B7806285BFB1
:1003B000889585B78F7D85BF01C0C2E08C2F99DEFF
:1003C000C09360005ADE56DE10E0369A47CFE199BE
:1003D000FECF1FBA8EBBE09A99278DB30895262FC2
:1003E000E199FECF1CBA1FBA8EBB2DBB0FB6F89495
:0E03F000E29AE19A0FBE01960895F894FFCFAD
:00000001FF
