:1000000026C033C032C031C030C02FC02EC02DC07A
:100010002CC02BC02AC029C028C027C026C08AA94E
:10002000ABACAEAFB0B4B7BCC2FFA1A3A3A3A3A1B6
:10003000A1A1A1A1A1A1041446FFFF00000000009E
:100040000000000005075AFFFAFBFEFCFFFD11242B
:100050001FBECFEDCDBF20E0A0E6B0E001C01D92F5
:10006000A536B207E1F7AED0CDC1CACF20ED37E05B
:10007000019720F0F9013197F1F7FACF089588EE52
:1000800093E0F4CFCF93C091620081E08C0F8F7723
:1000900080936200609161006295660F660F607CDC
:1000A00090916000692B90E09FD16FEF8C2F90E0D2
:1000B000CF919AC1CF9310926200C0916200C7FDA8
:1000C00012C08C2F90E088D18F3F21F4CF5FC09376
:1000D0006200F3CF982F9F709093600086FB882773
:1000E00080F980936100CF910895811104C061115E
:1000F00002C091EA9ABD88BD69BD089590E0FC01F7
:10010000E65DFF4FE491EABDFC01EA5CFF4F6491BC
:10011000FC01EE5BFF4F8491E8CF369A3699FECF13
:1001200085B108951F93CF93DF93C82F14E1D1EACF
:10013000CC2369F018BC19BD84E690E097DFDABDE6
:1001400018BC19BC80E991E091DFC150F1CFDF917B
:10015000CF911F9108951F93CF93DF93C82FD6E0BF
:1001600011EACC23C1F018BCD9BD82E390E07EDF58
:100170001ABD18BC19BC84E690E078DF18BCD9BD64
:1001800082E390E073DF1ABD18BC19BC80ED99E3DF
:100190006DDFC150E6CFDF91CF911F9108951F937E
:1001A000CF93DF93EC01888111E0812788836ADF98
:1001B00082E0B8DF88818127888364DFDF91CF9177
:1001C0001F915DCFA39A83EA87B986EC86B93699E9
:1001D000FECF369A3699FECFC5B1B99AB89A81EA60
:1001E0008ABD81E083BF66DF86E0809363008CE098
:1001F00080936400C93C70F0809165008F5F8F71BF
:1002000080936500809160008F5F809360008630EE
:10021000C0F008C010926500CF3578F08091600082
:10022000863019F4109260000CC0882311F08150C0
:1002300001C08BE08093600004C08091610088233E
:1002400089F320DFBB9AC39AA29A81EA87B986EC28
:1002500086B9369A10E0E12C84E6C82E01EA94E6CD
:10026000B92EDD24DA9480916000E82FF0E0EE5B97
:10027000FF4FC49190916500903148F000DF1092DB
:1002800065001092600081E690E089DF7AC0CD3F82
:1002900059F4D8BC19BC82E390E0E8DE0ABD18BC72
:1002A00019BC82E390E011C0CC3F89F4C4E0D8BC13
:1002B00019BC85E090E0DADE18BCC9BC81E490E0AE
:1002C000D5DEC150A1F780ED92E0D0DE5AC0CB3F21
:1002D00019F5C0E0D3E018BCB9BCC13049F480E9DD
:1002E00091E0C4DE0ABD18BC19BC80E991E008C0E9
:1002F00084E690E0BBDE0ABD18BC19BC88EC90E037
:10030000B5DED15041F788EC90E0B0DECF5FC3306E
:1003100009F784EC99E0D9CFCA3F81F4C8E9DAE360
:10032000F12C8F2DFFDECE01A1DE83E014DFF394EC
:10033000C45FD1408AE0F812F4CF23C0CE3F81F4ED
:10034000ECDE982F80E0E82FF0E0E25EFF4FE491D2
:10035000E91710F48F5FF7CFE5DE80ED97E0B5CFBA
:10036000CDDEE39484E18E1548F4CF3F39F48091DB
:100370006300825080936000C1DE84DE80DE1092D4
:100380006500349B70CF85B1813818F51F5F12303E
:1003900008F1C091600080916300C81798F4CC23E5
:1003A00011F0C15010C00ABD18BC19BC85B7877EBA
:1003B000806185BF85B7806285BF889585B78F7D51
:1003C00085BF01C0C2E08C2F99DEC09360005ADE69
:1003D00056DE10E0369A47CFE199FECF1FBA8EBBAA
:1003E000E09A99278DB30895262FE199FECF1CBA84
:1003F0001FBA8EBB2DBB0FB6F894E29AE19A0FBEDE
:0804000001960895F894FFCF66
:00000001FF
