:10000000A4C0BEC052C4BCC0BBC0BAC0B9C0B8C096
:10001000B9C2B6C0B5C0B4C05BC4B2C0B1C0000004
:1000200000000000000000000000000000000000D0
:1000300000000000000000000000000000000000C0
:1000400000000000000000000000000000000000B0
:1000500000000000000000000000000000000000A0
:100060000000000000000000000000000000000090
:10007000000103040507080A0B0D0E1012131517D3
:10008000191B1D1F222426292B2E303336393C3FC5
:100090004245484C4F53575B5F63676B7074797E82
:1000A00083888D92989EA3A9AFB6BCC3CAD1D8DF6E
:1000B000E7EFF7FF0101020203030404050506064A
:1000C000070808090A0A0B0C0D0E0F101112131560
:1000D0001617191A1B1D1F20222426282A2C2E3100
:1000E0003336383B3E4144474A4E5155595D616570
:1000F0006A6E73787D82888D9399A0A6ADB4BBC3D8
:10010000CAD2DBE3ECF5FFFFFFFFFFFFFFFFFFFFBE
:10011000FFFFFFFFFFFFFFFFFFFFFFFFFFFFFFFFEF
:10012000FFFFFFFFFFFFFFFFFFFFFFFFFFFFFFFFDF
:10013000FFFFFFFFFFFFFFFFFFFFFFFFFFFFFFFFCF
:10014000FFFFFFFFFFFFFFFFFF0011241FBECFE5F2
:10015000D2E0DEBFCDBF10E0A0E6B0E0E8E6FBE114
:1001600002C005900D92AC38B107D9F721E0ACE898
:10017000B0E001C01D92A235B207E1F76DDCF2CC10
:100180003FCF20914F01222361F080910501909192
:1001900006019595879590919500891B281B2093C2
:1001A000950080915001882319F0825E8093700041
:1001B00080917000873418F086E480937000089571
:1001C00080914F01811180936600089520918D00E8
:1001D00090914F0180915001222381F091119093D1
:1001E0006B00882321F097E9981B90936A00809117
:1001F0005101882361F080936900089591119093D3
:100200006D00882321F097E9981B90936C00089566
:100210008CEF93E00197F1F70895FF920F931F93EE
:10022000CF93DF938C01EB01842FF22E20910201FA
:1002300030910301232B29F0E0910201F091030199
:1002400009951093030100930201012B61F0E091E5
:100250000201F0910301BE018F2DDF91CF911F911B
:100260000F91FF900994DF91CF911F910F91FF9013
:100270000895DC0190919400983090F4E92FF0E01B
:10028000EE0FFF1FE15CFE4FB183A0839F5F909351
:10029000940028E049E0CD01C0DF809194000895EA
:1002A0008FEF0895CF93DF93E0919400EE2359F000
:1002B000E150E0939400F0E0EE0FFF1FE15CFE4F91
:1002C000C081D18102C0C0E0D0E0E0919400EE2373
:1002D00041F0F0E0EE0FFF1FE35CFE4F8081918163
:1002E00002C080E090E02AE049E060E070E095DF45
:1002F000CE01DF91CF9108950F931F93CF93DF939A
:10030000EC018B01CFDFB801CE01DF91CF911F91BE
:100310000F91AFCF813C29F460E070E087E398E073
:1003200006C0823C31F460E070E08EEB91E0E4DFE7
:1003300007C0843C39F460E070E085E39CE099DF1D
:1003400080E0089581E00895813C29F460E070E048
:1003500087E398E006C0823C31F460E070E08AE810
:1003600091E0CADF07C0843C39F460E070E089E3C3
:100370009CE07FDF80E0089581E00895813C29F4CE
:1003800060E070E087E398E006C0823C39F460E00A
:1003900070E080E897E0B0DF80E0089581E00895A4
:1003A00010923C0181E080938F0008951092F50037
:1003B0001092F40090913C01803159F4892F8069AA
:1003C0009F709E3020F080933C0181E008958F5F04
:1003D000FACF882329F0906890933C0180E008953B
:1003E000892F8F7E95FD02C08068EDCF806CEBCFAA
:1003F000482FDB0120E030E0C90163E070E054DB0E
:10040000FC01E55FFE4F8081882331F02F5F3F4F75
:100410002031310589F703C04083B283A183089559
:1004200020E030E0F22FE32F2F5F3F4FC90163E060
:1004300070E03ADBDC01A55FBE4F4C918F2F9E2F01
:1004400063E070E031DBFC01E55FFE4F4083119615
:100450008D919C911297928381832F30310511F7F2
:100460001092380110923A0110923901089590E8E3
:1004700022E048EA57E0815040F096BD26BDFA01DF
:100480003197F1F796BD16BCF6CF08950F931F93E1
:10049000CF93DF93D82F8B01C0919400C150C7FD3B
:1004A0000FC0EC2FEE0FFF0BE15CFE4F0190F081CF
:1004B000E02DB8018D2F09958111F0CF80E001C0AA
:1004C00081E0DF91CF911F910F91089580910B01F1
:1004D000882349F060910C0170910D0180910B010E
:1004E000D5DF9EDFF3CF0895AF92BF92CF92DF9218
:1004F000EF92FF920F931F93CF93DF93E09002014F
:10050000F0900301EC0110E888EAC82E87E0D82EAD
:1005100002E09AEEA92EBB24B3942097E1F08091DB
:10052000910016BD863018F406BDC50102C016BC88
:10053000C6010197F1F716BD16BC80918F0081119D
:100540000CC020910201309103012197E216F306BD
:1005500029F4BCDFE2CF81E001C080E0DF91CF91E0
:100560001F910F91FF90EF90DF90CF90BF90AF90D1
:1005700008953ECF9093F5008093F400BC018091E4
:100580003C0136CF1F920F920FB60F9211242F937A
:100590003F934F935F936F937F938F939F93AF930B
:1005A000BF93EF93FF9380910901882309F433C12E
:1005B0001092090164B175B180919000860F80930B
:1005C00090008091F3008F5F83708093F3008130FF
:1005D00039F580E098E585DA6B5F7F4F7695679512
:1005E00060930A018091F200882321F0815080936A
:1005F000F20009C180910A018D3178F48091F100F7
:10060000843020F48F5F8093F100FDC060E070E0E3
:1006100084E0EEDE84E18093F2001092F100F3C0FA
:10062000833009F0F0C08091950063517140680FEC
:10063000711D87FD7A9580916F008823F9F01092E3
:100640006F00E1EEF0E081EF90E0619371938E171F
:100650009F07D9F7660F771FE1ECF0E081EE90E09D
:10066000619371938E179F07D9F7E1EBF0E06193E7
:10067000719320E0E13CF207D1F719C0E1EEF0E020
:100680004FEE50E080E090E022813381219331935E
:10069000820F931F4E175F07B9F77093F0006093B6
:1006A000EF00680F791F759567957595679570933D
:1006B0000601609305018091050190910601E1EC2E
:1006C000F0E02FED30E042815381419351932E179A
:1006D0003F07C9F79093E0008093DF002091C100AD
:1006E0003091C200AC01421B530B9A0154E0220F1F
:1006F000331F5A95E1F7280F391F30933E0120939D
:100700003D018091B000E82FF0E0EE0FFF1FEF54A5
:10071000FF4F318320838F5F87708093B000E1EBC0
:10072000F0E041EC50E080E090E061917191860F43
:10073000971F4E175F0771F46091700070E0660FAD
:10074000771FAB01435151092417350744F010922C
:10075000AF000AC080386EE396073CF3EDCF261752
:10076000370714F41092AE002091AD00222321F03F
:1007700021502093AD0047C097FD079623E0959543
:1007800087952A95E1F768177907DCF42091AE0088
:10079000243020F42F5F2093AE0035C01092AE00BD
:1007A00024E12093AD009C01261B370BB90193E097
:1007B000759567959A95E1F71616170624F585E065
:1007C00021C06451710986179707ECF42091AF009E
:1007D000243020F42F5F2093AF0015C01092AF009B
:1007E00024E12093AD00681B790B83E07595679534
:1007F0008A95E1F71616170634F480910A018E31B6
:1008000010F086E0F5DD8091F300823010F48CE08A
:1008100001C08FE887B9FF91EF91BF91AF919F9190
:100820008F917F916F915F914F913F912F910F9099
:100830000FBE0F901F901895A89581B5886181BD56
:1008400080E481BD08950F931F9361E04DE750E070
:1008500026B38091A6009091A700A091A800B09126
:10086000A900880F991FAA1FBB1F23FB222720F96D
:100870002627822B8093A6009093A700A093A80020
:10088000B093A900FA013197F1F78C019D01015055
:100890001109210931090E3F1F4F2F4F3F4FC0F261
:1008A000809308011F910F9108951895CF93C82F39
:1008B000882311F080E101C080E078DD882331F0E9
:1008C000C093080180E090E0CF9154CECF9108957D
:1008D0001F920F920FB60F9211242F933F934F93B5
:1008E0005F936F937F938F939F93AF93BF93CF93B8
:1008F000DF93EF93FF9381E08093930080919200C8
:10090000882399F0C091AB00D091AC00BE0183E088
:100910006FDDCE010196CC27D078C82BD92BD09390
:10092000AC00C093AB00D2DD4DC01092AC00109271
:10093000AB00C091080187DFC813B8DF8091F400D5
:100940009091F500EC01219688279078C82BD92B3F
:10095000D093F500C093F40080913C01807F803BF0
:1009600019F460E070E001C0BE0181E041DD8091DA
:100970003C0184FF0DC085FF02C0CE0107C068970F
:10098000A0F0806280933C0180E090E0F3DD0DC038
:10099000882359F085FD08C0689738F080648093FB
:1009A0003C0180E090E0E6DDFBDC8091AA008F5FF7
:1009B0008093AA00837031F486B1886486B981E09F
:1009C00080930901FF91EF91DF91CF91BF91AF919A
:1009D0009F918F917F916F915F914F913F912F9157
:1009E0000F900FBE0F901F901895A89581B5886144
:1009F00081BD83E481BD379826DF8111FDCFD0DC36
:100A00008BB780628BBF809192008823C9F01092CF
:100A1000930085B7877E806185BF85B7806285BF7B
:100A200085B7846885BF8B7F85BF889585B78F7DA7
:100A300085BF809193008111E6CF10929200E3CFA1
:100A400081E080936F008CE087B986EC86B9F4CEA4
:100A500085B7877E85BF85B7806285BF889585B756
:100A60008F7D85BF0895809107019091910089172E
:100A700020F480919100815007C0909191009817C7
:100A800018F4809191008F5F6FEF680F262F30E090
:100A9000A9014C545F4FFA0194917091910067172E
:100AA00028F469B5611102C09F3F59F069B5691713
:100AB00018F499B59F5F05C069B5961718F499B5F4
:100AC000915099BD225E3F4FF901949168B5691725
:100AD00018F498B59F5F05C068B5961718F498B5D7
:100AE000915098BD99B5FA014491941307C098B5F7
:100AF000F9012491921302C0809391000895E0912E
:100B00006400F09165003196FB70F460F09365002D
:100B1000E0936400809190008B5A80939000E49160
:100B2000809190008E0F08950F931F93CF93DF93C2
:100B3000F89480E091E0FCD7853A89F406EF10E064
:100B4000C1E0D1E0CE01F4D7F80181938F01219665
:100B5000CD30F1E0DF07B1F7789481E002C07894FE
:100B600080E0DF91CF911F910F9108950F931F9314
:100B7000CF93DF93F89406EF10E0C1E0D1E0F801E5
:100B800061918F01CE01DCD72196CD30F1E0DF07F6
:100B9000B1F765EA80E091E0D3D77894DF91CF9107
:100BA0001F910F91089580919100863020F480E884
:100BB00086BD82E005C08D3028F480E886BD81E0E6
:100BC00086BD089580E886BD16BC0895882321F06F
:100BD000813029F4BC9804C0BC98C4980895BC9A8C
:100BE000C49A0895CF93C82F8093910080930701F2
:100BF00080919200811101C0E9DFC11103C019BCCD
:100C000018BC0DC0C1508C2F90E0FC01EC54FF4F7C
:100C1000E491E9BDFC01E25EFF4FE491E8BDCF91B4
:100C2000C2CFCF93C82F882381F089E1DBDF88EC26
:100C300090E05ADC80E0D6DF80E991E055DCC150DD
:100C4000A1F788E592E0CF914FCC89E1CBDF88E036
:100C500090E04ADC80E0C6DF80E991E045DCF1CF3E
:100C6000CF93DF93C82F843638F08CE98C0F84360D
:100C700028F0C85C82E004C080E002C0C82F81E098
:100C8000D0E0CA3018F0DF5FCA50FBCF882381F074
:100C9000C8DF882381F08D2FC4DF882361F08C2F7B
:100CA000C0DF882341F088EE93E0DF91CF911CCC28
:100CB000D111F1CFF4CF80E0DF91CF9108958091F1
:100CC0000A01CECF982F8079803919F480916E0077
:100CD00003C0803821F480E085DF80E00895913002
:100CE00051F480919100811106C0633A734020F065
:100CF00090939200089581E00895CF93DF93883018
:100D000059F410929A0060939900109298001092F2
:100D100097001092960081C0813009F068C09091D0
:100D20009800892F8D7F81F4209196003091970053
:100D30002F31310538F42F5F3F4F309397002093C8
:100D400096006EC09F5F25C0913051F5809199004B
:100D50008823F1F0C0919600D09197009E012F71E9
:100D600033272A30310511F485E204C024313105DE
:100D700019F480E037DF06C02F31310519F48150B6
:100D8000809399002196D0939700C093960045C018
:100D900092E090939800109297001092960040C0B5
:100DA0009330E9F4C0919600D09197002196D093AA
:100DB0009700C0939600CE0183709927009711F495
:100DC00089E103C0029711F482E10CDFCB3BD1052E
:100DD00020F180E007DF84E0809398001EC094300B
:100DE000E1F480919A0080933B015CDA16C081386F
:100DF000B1F4D6DA80919800833079F480919A002A
:100E00008F5F80939A0010929700109296008BE467
:100E1000E9DE84E02CDB80E0E5DE80E001C081E0FB
:100E2000DF91CF9108950F931F93CF93DF93EC0140
:100E300060916D0080916C0090918D00992321F05C
:100E400060916B0080916A00262F30E0C217D307B3
:100E50000CF440C0282F30E02C173D07E4F18091BE
:100E60008D00811102C08C2F36C0E0916A00809104
:100E70006B00E81B60916900F0E070E0615071095F
:100E8000CF0143D66093040180916B006695262FB5
:100E900030E010E0909169001917E8F44091690082
:100EA00000916B00812F90E0BF01FED5642F70E0B0
:100EB0006150710916D6802F860FAE01481B51096B
:100EC00057FF03C0519541955109241735071CF46C
:100ED0001F5FE0CF862FDF91CF911F910F91089573
:100EE000CF93C82FCC2351F085E27CDE82E0BFDABD
:100EF00080E078DE89E1BBDAC150F4CFCF9108956C
:100F0000883049F410929F0010929E0082E0E8DF42
:100F100088E168DE07C0813C39F460E070E087E377
:100F200098E0EAD980E00895823C29F460E070E01E
:100F300084EA91E0F6CF8130D9F480919E009091BF
:100F40009F000196853524E2920728F490939F0034
:100F500080939E00E7CF10929F0010929E00809198
:100F6000910081503FDE809191008111DBCFD5CF80
:100F700081E00895CF93DF93CDB7DEB760970FB6CA
:100F8000F894DEBF0FBECDBF90E1E1E7F0E0DE01F7
:100F9000119601900D929A95E1F78F70E1E0F0E0E3
:100FA000EC0FFD1FE80FF11D808160960FB6F894DD
:100FB000DEBF0FBECDBFDF91CF9108CE982F880F37
:100FC00097FD80950895B0DD882361F18091F6004A
:100FD00080938D008091F70080936D008091F800E0
:100FE00080936C008091F90080936B008091FA00EF
:100FF00080936A008091FB00809369008091FD00DE
:10100000809366008091FE0080938E008091FF00A7
:101010008093700080910001809395008091010180
:1010200080936800089580918D00E6EFF0E0808362
:1010300080916D00818380916C00828380916B0030
:10104000838380916A008483809169008583809185
:101050006600878380918E008087809170008187F1
:101060008091950082878091680083877FCDCF93A0
:10107000883051F480E0B6DD809168008370A6DD91
:1010800081E08093920089C0813059F46D377105F9
:1010900008F483C08093920080916800837096DD8D
:1010A0007CC0833049F4809168008370833009F0FC
:1010B00074C0862F5FDF71C0813919F481E090E040
:1010C0001FC0813BB1F46115710541F4C0919100DD
:1010D00080E088DD82E0CBD98C2F26C080918D0006
:1010E000811104C06831710508F45AC061E070E0F4
:1010F00013C0813ED9F3813829F480916E0090E0CD
:1011000092DE12C0813C21F460916E0070E004C058
:10111000823B29F466E970E082ED98E02FC0823CC2
:10112000C9F3833919F480E05DDD37C0833C29F4CD
:1011300060E070E08EEB91E021C0833B29F460E039
:1011400070E080E29AE01AC0843C39F482E0C8DEA4
:1011500060E070E086E19BE011C0853C39F481E0FD
:10116000BFDE60E070E082E696E008C0863C41F4B5
:1011700081E0B6DE60E070E08AE69BE0BDD80DC09D
:10118000873C69F49091680081E0890F83709C7FAF
:10119000982B909368001ADD46DF80E001C081E063
:1011A000CF9108951F93CF93DF93CDB7DEB72897E4
:1011B0000FB6F894DEBF0FBECDBF9B0190916D00BE
:1011C00010916C0040918D00442339F090916B0098
:1011D00010916A004091040101C041E0883029F07B
:1011E0008A30B1F420916E0030E0892F90E08217B0
:1011F000930738F4812F90E02817390710F42093D3
:101200006E00C90110DE80938C00ECDC81E069C0C7
:10121000813C31F460E070E087E398E06DD803C171
:10122000823C59F480919100863910F486E902C01D
:1012300080916E0080938C007DC0833CA1F49091DE
:101240008D0081E0911180E080938D00809191006C
:1012500090E0E9DD80936E0080938C00E4DE80E016
:10126000C1DC85E064C0843C31F460E070E08FE272
:101270009CE0FFD7D8C0813B79F580918D00882311
:1012800039F0C90168E170E02CD4892B09F0CBC09A
:101290002230310538F480919100811718F08FEFDA
:1012A000809363002091910080916300642F70E02F
:1012B000082E000C990BF8D3820F911DB4DD80939A
:1012C0006E0080938C0090919100891789F183358D
:1012D00059F118132DC028C0813E31F4809163006C
:1012E0008195809363009FC0823B31F581E08093BC
:1012F000630080918D00882339F0C90168E170E0B6
:10130000F0D3892B09F08FC08091910090E0841B6D
:10131000910989DD80936E0080938C0090919100FB
:10132000891731F0833521F480E05CDC82E09FD8BE
:1013300080916E0057DC77C0813009F042C02E33B7
:10134000310511F48093630020FF05C08091910066
:10135000873808F468C088E0E1E8F0E0DE01119623
:1013600001900D928A95E1F79091A5009F5F90936F
:10137000A5002091070180919100821728F48091A7
:1013800007012091910004C08091910020910701F4
:10139000821B3091910021E0373808F420E0882347
:1013A00019F02F5F8695FBCFE1E0F0E0EC0FFD1F19
:1013B000E20FF11D80818917B0F555DB1092A50071
:1013C00032C08530B9F4809191008D3360F1809105
:1013D000910090E0821B930B8C33910534F0873998
:1013E000910528F086E990E002C08CE390E08093BC
:1013F000070119C08630C9F49091910080918C004A
:10140000981788F490919100290F311D90E0821770
:10141000930734F02C33310524F42CE330E001C081
:101420009C012093070180E001C081E028960FB65F
:10143000F894DEBF0FBECDBFDF91CF911F9108950D
:10144000AF92BF92CF92DF92EF92FF920F931F93D2
:10145000CF93DF9390916700883019F41092A40025
:1014600042C0EB01813C31F460E070E087E398E03A
:1014700043D739C0823C51F4892F90E001968170A6
:101480009927809367001092A4001AC0813B41F411
:10149000913049F5809162008B3428F58F5F09C047
:1014A000823B51F49130F9F4809162008230D8F09F
:1014B00081508093620017C02FE1280F223010F472
:1014C000B2DD11C0833C89F4913069F48091A400AD
:1014D000843E48F4855E8093A40080919100805EF4
:1014E00081DB82E0C4D780E096C0813009F092C0F1
:1014F00080919000860F809390009130A1F7209109
:10150000A400FB01FF70213069F48091620090E03B
:101510004496BF0134E0769567953A95E1F7C4D2D9
:10152000B92E01C0B12CEF3FFF4061F4222351F0EE
:1015300021502093A400211105C060E070E087E3F2
:1015400098E0DAD6C090A3008C2D38DDF82ED0902C
:10155000A2008D2D33DDA82E00916100E090A10046
:101560008E2D2CDD482F109160002F2D30E083E070
:10157000220F331F8A95E1F7209162002B19230F68
:10158000602F70E08A2D90E08FD2290F612F70E0DC
:10159000842F90E089D2822F890F87FD80E022DBA3
:1015A000C0FD05C0ACDA8170C80EC092A300809166
:1015B000A000D80ED092A200A2DA65E286D2E90E8F
:1015C000E092A1009CDA8F7329F499DA6DE07DD264
:1015D0009093A000002331F092DA8F7319F4015038
:1015E000009361008CDA811105C087E0809361006F
:1015F0001092A200133030F082DA8F7119F411507A
:10160000109360007CDA8F7709F06DCF95E09093AE
:10161000600001C081E0DF91CF911F910F91FF9099
:10162000EF90DF90CF90BF90AF9008950F931F93EE
:10163000CF93C82F8B018079803929F481E090E025
:10164000F2DBD0DA1BC0803819F480E0CBDA09C0B5
:10165000C83039F48091680086958695B7DA81E0C4
:1016600035C0C13059F40D37110520F1C0939200F7
:101670008091680086958695A9DA1CC0C33041F434
:10168000809168008C708C30A9F4802F73DC12C0BC
:10169000C33C91F490916800892F869586958F5F61
:1016A0008370282F220F220F9370920F909368005F
:1016B0008DDAB9DC80E00AC081E0C43C39F410DC8A
:1016C00060E070E087E398E017D6F4CFCF911F91E8
:1016D0000F910895CF93883061F4C1E0C0939D00CD
:1016E000C0938E00A0DCC0939C008EE380936E00BC
:1016F00036C0813939F480919C00882309F483C075
:1017000086E110C0813841F480919C00882309F45F
:101710007AC080916E0006C0823931F481E08093F6
:101720009C0080E05FDA6FC0813C51F490919C0096
:1017300081E0892780939C00882389F080E00EC097
:10174000813B31F560FD0BC080919C00882349F0FE
:1017500010929C0081E080939D0086E143DA80E056
:1017600053C0909191006230710528F4973618F0BB
:101770008FEF80939D0080919D00890F863120F02E
:10178000883618F087E601C086E180936E00E6CFC8
:10179000813E31F480919D00819580939D00DFCF43
:1017A000863C59F481E09CDB10928E003CDC60E0CA
:1017B00070E087E398E0A0D5D2CF813081F46E331A
:1017C000710511F480939D0080919C00882339F26B
:1017D0006F33710520F281E080939200C0CF853095
:1017E00009F4BBCF843079F49091910080919100FD
:1017F000969586958695890F863108F0AFCF81E062
:1018000080939C00ACCF81E0CF910895883029F47B
:1018100010929B0080E0E6D920C0813081F4609175
:101820009B00641738F470E06F5F7F4F8DE796E0A0
:1018300020D513C0F9010995F6DB34D50EC08A30E6
:1018400061F480919B0090913B01E82FF0E0E15B17
:10185000FE4F90838F5F80939B0080E008954091BE
:101860008D004E5F26EE30E0D1CF21EC30E042E03B
:10187000CDCF20EE30E041E0C9CFCF93809102017F
:10188000909103012AE08032920729F469E170E027
:1018900082ED98E019C0825D984091F480919100AA
:1018A000823070F0C091910080919100C69586952C
:1018B0008695C80F8C2F96D9C0938C00CF91089530
:1018C00060E070E087E398E0CF9116C5843019F4AA
:1018D000D4DF80E0089581E0089582E183D983E038
:1018E000C6D580E07FD96FDB80918E00882329F0F8
:1018F0006EE370E08AE69BE004C060E070E087E39E
:1019000098E0B7C4EF92FF920F931F93CF93DF93AA
:1019100080910201909103012AE08032920709F040
:101920005AC080916700811190C0E9D88F73E82E6A
:10193000F12CE5D867E0C9D0C1E0D0E08E0102C04B
:10194000000F111F9A95E2F7DAD8837002C0CC0F0E
:10195000DD1F8A95E2F7C00FD11FD1D890E0BE01FC
:10196000D4D0C80FD91F8C2F3DD9C701BDD58E014A
:1019700043E0159507954A95E1F7011101C001E093
:1019800010E0C701B1D5C01BD10BD7FF02C0C0E02A
:10199000D0E08C2F27D9B3D8837031F4C701A4D5F8
:1019A000CE01959587951ED9C230D10554F7A7D899
:1019B0006DE08BD0C1E0D0E002C0CC0FDD1F9A9566
:1019C000E2F79DD890E0BE018CD0C80FD91F80E00F
:1019D00009D9CE0118C021E08E3B920739F4DF917E
:1019E000CF911F910F91FF90EF9069C921E08A3844
:1019F000920781F480910501909106019595879554
:101A00002FD988EE93E0DF91CF911F910F91FF9036
:101A1000EF906AC5845A914089F480916E00E2D8B3
:101A200084EF91E061D580E0DDD88091660090E0A0
:101A300068EE73E039D0845F9140E5CFDF91CF91BC
:101A40001F910F91FF90EF9003C8DF91CF911F91ED
:101A50000F91FF90EF900895F894B89A81E083BFBA
:101A600081EA8ABDB99A88E088BB85BB8BB7806262
:101A70008BBFE2D68CE087B986EC86B9789481E09A
:101A8000F6D48ED460E070E086E69CE0F2D325DFE9
:101A90001DD580919200882319F080E0A3D8A5D7A6
:101AA00031DF10928F00F4CF0024552704C0080EB8
:101AB000591F880F991F009729F076956795B8F3FD
:101AC0007105B9F7802D952F0895991B79E004C011
:101AD000991F961708F0961B881F7A95C9F780956D
:101AE0000895AA1BBB1B51E107C0AA1FBB1FA61765
:101AF000B70710F0A61BB70B881F991F5A95A9F7B7
:101B000080959095BC01CD01089597FB072E16F4A2
:101B1000009406D077FD08D0E4DF07FC05D03EF442
:101B2000909581959F4F0895709561957F4F089589
:101B3000E199FECF9FBB8EBBE09A99278DB30895A4
:101B4000262FE199FECF9FBB8EBBE09A01970DB285
:101B5000021639F01CBA2DBB0FB6F894E29AE19A3E
:081B60000FBE0895F894FFCFB9
:101B680004071801000402010D07781478015301D5
:101B78002D0001020100000000000001000000002B
:0C1B880000F88042221109040202000053
:00000001FF
