:10000000EFC009C19DC407C106C105C104C103C138
:1000100004C301C100C1FFC0A6C4FDC0FCC00000F4
:1000200000000000000000000000000000000000D0
:1000300000000000000000000000000000000000C0
:1000400000000000000000000000000000000000B0
:1000500000000000000000000000000000000000A0
:100060000000000000000000000000000000000090
:100070000000000000000000000000000000000080
:100080000000000000000000000000000000000070
:100090000000000000000000000000070D151C23F8
:1000A0002B333C444D57606A757F8A96A1ADBAC721
:1000B000D4E2F0FF0000000000000000000000009B
:1000C0000000000000000000000000000000000030
:1000D0000000000000000000000000000000000020
:1000E0000000000000000000000000000000000010
:1000F00000000000001011121314151617191A1B16
:100100001D1E2022232527292B2E303235373A3D3C
:10011000404346494D5154585C61656A6E73787E20
:1001200083898F959CA2A9B1B8C0C8D0D9E2EBF55C
:10013000FFFFFFFFFFFFFFFFFFFFFFFFFFFFFFFFCF
:10014000FFFFFFFFFFFFFFFFFF00010102020303AC
:10015000040405060708090A0C0D0E0F11131416E6
:10016000181A1D1F2224272A2D3033373B3E4246C2
:100170004B4F54595D63686E73797F868C939AA157
:10018000A8B0B8C0C8D1D9E2ECF5FFFFFFFFFFFF70
:10019000FFFFFFFFFFFFFFFFFFFFFFFFFFFFFFFF6F
:1001A000FFFFFFFFFFFFFFFFFFFFFFFFFFFFFFFF5F
:1001B000FFFFFFFFFFFFFFFFFFFFFFFFFFFFFFFF4F
:1001C000FFFFFFFFFFFFFFFFFFFFFFFFFFFFFFFF3F
:1001D000FFFFFFFFFFFFFFFFFFFFFFFFFFFFFF002E
:1001E00011241FBECFE5D2E0DEBFCDBF10E0A0E6F8
:1001F000B0E0E0E9FBE102C005900D92AC37B10739
:10020000D9F721E0ACE7B0E001C01D92AF33B207EF
:10021000E1F730DCBBCCF4CE20913C01222361F02D
:100220008091F2009091F3009595879590918400CC
:10023000891B281B2093840080913D01882319F09D
:10024000825E8093700080917000873418F086E49D
:1002500080937000089580913C0181118093660025
:10026000089520917D0090913C0180913D012223D1
:1002700081F0911190936B00882321F097E9981BEE
:1002800090936A0080913E01882361F08093690019
:100290000895911190936D00882321F097E9981BA0
:1002A00090936C0008958CEF93E00197F1F7089517
:1002B000FF920F931F93CF93DF938C01EB01842F59
:1002C000F22E2091EF003091F000232B29F0E091E5
:1002D000EF00F091F00009951093F0000093EF000B
:1002E000012B61F0E091EF00F091F000BE018F2D45
:1002F000DF91CF911F910F91FF900994DF91CF91E2
:100300001F910F91FF900895DC0190918300983028
:1003100090F4E92FF0E0EE0FFF1FE45DFE4FB18394
:10032000A0839F5F9093830028E049E0CD01C0DF68
:100330008091830008958FEF0895CF93DF93E0912C
:100340008300EE2359F0E150E0938300F0E0EE0FDC
:10035000FF1FE45DFE4FC081D18102C0C0E0D0E04C
:10036000E0918300EE2341F0F0E0EE0FFF1FE65D29
:10037000FE4F8081918102C080E090E02AE049E058
:1003800060E070E095DFCE01DF91CF9108950F938B
:100390001F93CF93DF93EC018B01CFDFB801CE0128
:1003A000DF91CF911F910F91AFCF813C29F460E095
:1003B00070E08CE598E006C0823C31F460E070E0CB
:1003C00089E092E0E4DF07C0843C39F460E070E04B
:1003D00083E49CE099DF80E0089581E00895813C0A
:1003E00029F460E070E08CE598E006C0823C31F4CE
:1003F00060E070E085ED91E0CADF07C0843C39F42D
:1004000060E070E087E49CE07FDF80E0089581E0B9
:100410000895813C29F460E070E08CE598E006C026
:10042000823C39F460E070E089EC97E0B0DF80E076
:10043000089581E008951092290181E080937F0062
:1004400008951092E2001092E1009091290180310C
:1004500059F4892F80699F709E3020F08093290184
:1004600081E008958F5FFACF882329F090689093F8
:10047000290180E00895892F8F7E95FD02C0806854
:10048000EDCF806CEBCF482FDB0120E030E0C901DD
:1004900063E070E01DDBFC01E850FF4F80818823A2
:1004A00031F02F5F3F4F2031310589F703C0408382
:1004B000B283A183089520E030E0F22FE32F2F5F75
:1004C0003F4FC90163E070E003DBDC01A850BF4F80
:1004D0004C918F2F9E2F63E070E0FADAFC01E85018
:1004E000FF4F408311968D919C9112979283818347
:1004F0002F30310511F7109225011092270110922B
:100500002601089590E822E048EA57E0815040F043
:1005100096BD26BDFA013197F1F796BD16BCF6CF10
:1005200008950F931F93CF93DF93D82F8B01C09122
:100530008300C150C7FD0FC0EC2FEE0FFF0BE45D31
:10054000FE4F0190F081E02DB8018D2F09958111AA
:10055000F0CF80E001C081E0DF91CF911F910F913A
:1005600008958091F800882349F06091F900709116
:10057000FA008091F800D5DF9EDFF3CF0895AF92A7
:10058000BF92CF92DF92EF92FF920F931F93CF9380
:10059000DF93E090EF00F090F000EC0110E888EAC3
:1005A000C82E87E0D82E02E09AEEA92EBB24B39481
:1005B0002097E1F08091810016BD883018F406BDC7
:1005C000C50102C016BCC6010197F1F716BD16BCE5
:1005D00080917F0081110CC02091EF003091F000DC
:1005E0002197E216F30629F4BCDFE2CF81E001C0D7
:1005F00080E0DF91CF911F910F91FF90EF90DF90FE
:10060000CF90BF90AF9008953ECF9093E20080933B
:10061000E100BC018091290136CF1F920F920FB6E5
:100620000F9211242F933F934F935F936F937F9378
:100630008F939F93AF93BF93EF93FF938091F600B7
:10064000882309F433C11092F60064B175B180912A
:100650008000860F809380008091E0008F5F837020
:100660008093E000813039F580E098E54EDA695FEB
:100670007F4F769567956093F7008091DF00882320
:1006800021F081508093DF0009C18091F7008D3106
:1006900078F48091DE00843020F48F5F8093DE0058
:1006A000FDC060E070E084E0EEDE84E18093DF0076
:1006B0001092DE00F3C0833009F0F0C08091840016
:1006C00063517140680F711D87FD7A9580916F00AD
:1006D0008823F9F010926F00EEECF0E08EED90E0E0
:1006E000619371938E179F07D9F7660F771FEEEA14
:1006F000F0E08EEC90E0619371938E179F07D9F72D
:10070000EEE9F0E06193719320E0EE3AF207D1F761
:1007100019C0EEECF0E04CED50E080E090E022817A
:10072000338121933193820F931F4E175F07B9F7DF
:100730007093DD006093DC00680F791F75956795F5
:10074000759567957093F3006093F2008091F200C5
:100750009091F300EEEAF0E02CEC30E0428153811E
:10076000419351932E173F07C9F79093CD00809383
:10077000CC002091AE003091AF00AC01421B530B76
:100780009A0154E0220F331F5A95E1F7280F391FC1
:1007900030932B0120932A0180919D00E82FF0E0F7
:1007A000EE0FFF1FE256FF4F318320838F5F87706C
:1007B00080939D00EEE9F0E04EEA50E080E090E0AA
:1007C00061917191860F971F4E175F0771F46091C9
:1007D000700070E0660F771FAB0143515109241779
:1007E000350744F010929C000AC080386EE39607EB
:1007F0003CF3EDCF2617370714F410929B0020919D
:100800009A00222321F0215020939A0047C097FD9F
:10081000079623E0959587952A95E1F7681779075C
:10082000DCF420919B00243020F42F5F20939B0068
:1008300035C010929B0024E120939A009C01261B56
:10084000370BB90193E0759567959A95E1F7161600
:10085000170624F585E021C06451710986179707B2
:10086000ECF420919C00243020F42F5F20939C0016
:1008700015C010929C0024E120939A00681B790B0C
:1008800083E0759567958A95E1F71616170634F497
:100890008091F7008E3110F086E0F5DD8091E00068
:1008A000823010F48CE001C08FE887B9FF91EF919E
:1008B000BF91AF919F918F917F916F915F914F9178
:1008C0003F912F910F900FBE0F901F901895A895F4
:1008D00081B5886181BD80E481BD08950F931F9328
:1008E00061E04DE750E026B380919500909196002D
:1008F000A0919700B0919800880F991FAA1FBB1F65
:1009000023FB222720F92627822B809395009093A2
:100910009600A0939700B0939800FA013197F1F7F1
:100920008C019D0101501109210931090E3F1F4F12
:100930002F4F3F4FC0F28093F5001F910F91089504
:100940001895CF93C82F882311F080E101C080E073
:1009500078DD882331F0C093F50080E090E0CF91FE
:1009600054CECF9108951F920F920FB60F9211247B
:100970002F933F934F935F936F937F938F939F93A7
:10098000AF93BF93CF93DF93EF93FF93C091F500A5
:10099000A5DFC813D6DF8091E1009091E200EC0161
:1009A000219688279078C82BD92BD093E200C0934A
:1009B000E10080912901807F803B19F460E070E0C4
:1009C00001C0BE0181E05FDD8091290184FF0DC07F
:1009D00085FF02C0CE0107C06897A0F080628093B7
:1009E000290180E090E011DE0DC0882359F085FDDB
:1009F00008C0689738F080648093290180E090E017
:100A000004DE19DD809199008F5F809399008370D7
:100A100031F486B1886486B981E08093F600FF9155
:100A2000EF91DF91CF91BF91AF919F918F917F9186
:100A30006F915F914F913F912F910F900FBE0F904B
:100A40001F901895A89584B7877F84BF81B588616A
:100A500081BD11BC379842DF8111FDCFECDC8BB733
:100A600080628BBF1092820085B7877E806185BFD0
:100A700085B7806285BF85B7846885BF8B7F85BF5A
:100A8000889585B78F7D85BF81E080936F008CE06E
:100A900087B986EC86B91BCF85B7877E85BF85B7BA
:100AA000806285BF889585B78F7D85BF08958091C9
:100AB000F40090918100891720F480918100815089
:100AC00007C090918100981718F4809181008F5F82
:100AD0004FEF480F242F30E0B901665B7E4FFB01DA
:100AE000949150918100451728F449B5411102C0F5
:100AF0009F3F59F049B5491718F499B59F5F05C054
:100B000049B5941718F499B5915099BDA9014C5461
:100B10005F4FFA019491E8B5E91718F498B59F5F13
:100B200005C0E8B59E1718F498B5915098BD225E9F
:100B30003F4FF9019491EBB5E91718F49BB59F5F0E
:100B400005C0EBB59E1718F49BB591509BBD99B5A8
:100B5000FB01649196130CC098B5FA01449194136B
:100B600007C09BB5F9012491921302C080938100C4
:100B70000895E0916400F09165003196FB70F46097
:100B8000F0936500E0936400809180008B5A80931D
:100B90008000E491809180008E0F08950F931F9341
:100BA000CF93DF93F89480E091E0D6D7853A89F42B
:100BB00003EE10E0C1E0D1E0CE01CED7F801819381
:100BC0008F012196CD30F1E0DF07B1F7789481E015
:100BD00002C0789480E0DF91CF911F910F9108952A
:100BE0000F931F93CF93DF93F89403EE10E0C1E0CF
:100BF000D1E0F80161918F01CE01B6D72196CD30B9
:100C0000F1E0DF07B1F765EA80E091E0ADD77894D5
:100C1000DF91CF911F910F910895809181008830CD
:100C200020F480E886BD82E005C08E3028F480E89C
:100C300086BD81E086BD089580E886BD16BC089516
:100C4000882321F0813029F4BA9804C0BA98C29858
:100C50000895BA9AC29A0895CF93C82F80938100BD
:100C60008093F4008091820081110AC091E0C1114B
:100C700001C090E081E0C23408F480E0890FE0DF39
:100C8000C11104C019BC18BC1BBC12C0C1508C2FB0
:100C900090E0FC01E65BFE4FE491E9BDFC01EC5401
:100CA000FF4FE491E8BDFC01E25EFF4FE491EBBD34
:100CB000CF91B3CFCF93C82F882381F089E1CCDFC8
:100CC00088EC90E05CDC80E0C7DF80E991E057DCF5
:100CD000C150A1F788E592E0CF9151CC89E1BCDF0A
:100CE00088E090E04CDC80E0B7DF80E991E047DC11
:100CF000F1CFCF93DF93C82F843638F08CE98C0F77
:100D0000843628F0C85C82E004C080E002C0C82FAE
:100D100081E0D0E0CA3018F0DF5FCA50FBCF8823F3
:100D200081F0C8DF882381F08D2FC4DF882361F034
:100D30008C2FC0DF882341F088EE93E0DF91CF91C4
:100D40001ECCD111F1CFF4CF80E0DF91CF91089587
:100D50008091F700CECF982F8079803919F4809157
:100D60006E0003C0803821F480E076DF80E00895D3
:100D7000913051F480918100811106C0633A734033
:100D800020F090938200089581E00895CF93DF933F
:100D9000883059F41092890060938800109287007F
:100DA000109286001092850081C0813009F068C0E1
:100DB00090918700892F8D7F81F42091850030915B
:100DC00086002F31310538F42F5F3F4F3093860076
:100DD000209385006EC09F5F25C0913051F58091B2
:100DE00088008823F1F0C0918500D09186009E0193
:100DF0002F7133272A30310511F485E204C02431E4
:100E0000310519F480E028DF06C02F31310519F4CF
:100E10008150809388002196D0938600C0938500EE
:100E200045C092E090938700109286001092850052
:100E300040C09330E9F4C0918500D091860021969E
:100E4000D0938600C0938500CE01837099270097C8
:100E500011F489E103C0029711F482E1FDDECB3B7E
:100E6000D10520F180E0F8DE84E0809387001EC089
:100E70009430E1F480918900809328015EDA16C0F5
:100E80008138B1F4D8DA80918700833079F4809189
:100E900089008F5F809389001092860010928500F0
:100EA0008BE4DADE84E02EDB80E0D6DE80E001C079
:100EB00081E0DF91CF9108950F931F93CF93DF933C
:100EC000EC0160916D0080916C0090917D00992300
:100ED00021F060916B0080916A00262F30E0C217EC
:100EE000D3070CF440C0282F30E02C173D07E4F165
:100EF00080917D00811102C08C2F36C0E0916A0084
:100F000080916B00E81B60916900F0E070E0615037
:100F10007109CF010ED66093F10080916B00669548
:100F2000262F30E010E0909169001917E8F4409105
:100F3000690000916B00812F90E0BF01C9D5642F3B
:100F400070E061507109E1D5802F860FAE01481B1A
:100F5000510957FF03C05195419551092417350791
:100F60001CF41F5FE0CF862FDF91CF911F910F916F
:100F70000895CF93C82FCC2351F085E26DDE82E037
:100F8000C1DA80E069DE89E1BDDAC150F4CFCF91EA
:100F90000895883049F410928E0010928D0082E0FE
:100FA000E8DF88E159DE07C0813C39F460E070E099
:100FB0008CE598E0ECD980E00895823C29F460E06B
:100FC00070E08FEE91E0F6CF8130D9F480918D0002
:100FD00090918E000196853524E2920728F4909333
:100FE0008E0080938D00E7CF10928E0010928D00BE
:100FF00080918100815030DE809181008111DBCFB2
:10100000D5CF81E00895982F880F97FD809508959A
:10101000C5DD882361F18091E30080937D0080919C
:10102000E40080936D008091E50080936C008091D6
:10103000E60080936B008091E70080936A008091C6
:10104000E800809369008091EA00809366008091B7
:10105000EB0080937E008091EC0080937000809183
:10106000ED00809384008091EE00809368000895E5
:1010700080917D00E3EEF0E0808380916D008183BC
:1010800080916C00828380916B00838380916A00E1
:101090008483809169008583809166008783809135
:1010A0007E00808780917000818780918400828794
:1010B00080916800838794CDCF93883051F480E08D
:1010C000CBDD809168008370BBDD81E0809382007E
:1010D00081C0813059F46D37710508F47BC080936D
:1010E0008200809168008370ABDD74C0813919F48F
:1010F00081E090E020C0813BB9F46115710549F4AD
:10110000C091810080E0A8DD82E0FCD98C2FA4DDB5
:1011100061C080917D00811104C06831710508F4BF
:101120005CC061E070E00EC0813ED9F3813829F4E3
:1011300080916E0090E0C0DEEACF813C39F460918E
:101140006E0070E08FEE98E022D944C0823B19F423
:1011500066E970E0F7CF823CD9F3833911F480E07F
:10116000D6CF833C29F460E070E089E092E0ECCFD8
:10117000833B29F460E070E085E39AE0E5CF843CAE
:1011800039F482E0F6DE60E070E08BE29BE0DCCFD9
:10119000853C39F481E0EDDE60E070E08BEA96E0BA
:1011A000D3CF863C39F481E0E4DE60E070E088E78C
:1011B0009BE0CACF873C81F420916800822F837026
:1011C0008F5F63E096D4892F2C7F292B20936800B2
:1011D00037DD4EDF80E001C081E0CF910895CF93ED
:1011E000DF93CDB7DEB728970FB6F894DEBF0FBEFA
:1011F000CDBF9B0190916D00E0916C0040917D000E
:10120000442339F090916B00E0916A004091F10025
:1012100001C041E0883029F08A30B1F420916E009D
:1012200030E0892F90E08217930738F48E2F90E0FA
:101230002817390710F420936E00C9013DDE809312
:101240007C000ADD81E05DC0813C31F460E070E04B
:101250008CE598E09CD8FDC0823C49F480918100E7
:10126000863910F486E968C080916E0065C0833CC1
:10127000B9F490917D0081E0911180E080937D0030
:101280008091810090E018DE80936E0080937C0056
:10129000EFDE80E0E1DC85E035D980916E004EC064
:1012A000843C31F460E070E08DE39CE02DD8D1C047
:1012B000813B11F580917D00882339F0C90168E1F7
:1012C00070E023D4892B09F0C4C02230310538F4F2
:1012D000809181008E1718F08FEF8093630020912A
:1012E000810080916300642F70E0082E000C990B40
:1012F000EFD3820F911D1DC0813E31F480916300B8
:10130000819580936300A5C0823BD1F481E08093F6
:10131000630080917D00882339F0C90168E170E0A5
:10132000F4D3892B09F095C08091810090E0841B53
:101330009109C2DD80936E0080937C008DDC89C0B2
:10134000813009F04AC02E33310511F480936300D7
:1013500020FF05C080918100823808F47AC0809116
:101360008100823840F0909181008091F4008917CB
:1013700010F49DDB6EC088E0E1E7F0E0DE0111963D
:1013800001900D928A95E1F7909194009F5F909360
:1013900094002091F40080918100821728F48091BC
:1013A000F4002091810004C0809181002091F4001C
:1013B000821B20E0882319F02F5F8695FBCFE1E0A8
:1013C000F0E0EC0FFD1FE20FF11D8081891708F09E
:1013D00040C06DDB109294003CC0853009F58091CF
:1013E0008100833830F082E88093F40080937C00A1
:1013F00030C080918100823460F18091810090E062
:10140000821B930B8134910534F08739910528F0C4
:1014100086E990E002C081E490E08093F40019C076
:101420008630C9F49091810080917C00981788F4EF
:1014300090918100290F311D90E08217930734F0BD
:101440002134310524F421E430E001C09C012093D3
:10145000F40080E001C081E028960FB6F894DEBF6A
:101460000FBECDBFDF91CF910895AF92BF92CF92C3
:10147000DF92EF92FF920F931F93CF93DF939091A0
:101480006700883019F41092930042C0EB01813C50
:1014900031F460E070E08CE598E079D739C0823CA7
:1014A00051F4892F90E0019681709927809367000D
:1014B000109293001AC0813B41F4913049F580911C
:1014C00062008B3428F58F5F09C0823B51F4913064
:1014D000F9F4809162008230D8F0815080936200EC
:1014E00017C02FE1280F223010F4C2DD11C0833C59
:1014F00089F4913069F480919300843E48F4855ECC
:101500008093930080918100805EA6DB82E0FAD711
:1015100080E096C0813009F092C080918000860FF3
:10152000809380009130A1F720919300FB01FF7020
:10153000213069F48091620090E04496BF0134E06C
:10154000769567953A95E1F7C3D2B92E01C0B12CD3
:10155000EF3FFF4061F4222351F02150209393008C
:10156000211105C060E070E08CE598E010D7C090D4
:1015700092008C2D48DDF82ED09091008D2D43DD0A
:10158000A82E00916100E09090008E2D3CDD482F48
:10159000109160002F2D30E083E0220F331F8A95D9
:1015A000E1F7209162002B19230F602F70E08A2D44
:1015B00090E08ED2290F612F70E0842F90E088D2C6
:1015C000822F890F87FD80E047DBC0FD05C0D1DA9F
:1015D0008170C80EC092920080918F00D80ED09278
:1015E0009100C7DA65E285D2E90EE0929000C1DA97
:1015F0008F7329F4BEDA6DE07CD290938F000023C4
:1016000031F0B7DA8F7319F4015000936100B1DA49
:10161000811105C087E08093610010929100133022
:1016200030F0A7DA8F7119F4115010936000A1DA2D
:101630008F7709F06DCF95E09093600001C081E055
:10164000DF91CF911F910F91FF90EF90DF90CF909E
:10165000BF90AF9008950F931F93CF93C82F8B0126
:101660008079803929F481E090E026DCF5DA1BC02E
:10167000803819F480E0F0DA09C0C83039F480917C
:10168000680086958695DCDA81E02EC0C13059F479
:101690000D371105E8F0C0938200809168008695AF
:1016A0008695CEDA15C0C33CA9F420916800822F3C
:1016B0008695869590E0019663E070E03AD2982F87
:1016C000990F990F2370290F20936800B9DAD0DCA5
:1016D00080E00AC081E0C43C39F44BDC60E070E09B
:1016E0008CE598E054D6F4CFCF911F910F910895D7
:1016F000CF93883061F4C1E0C0938C00C0937E002A
:10170000B7DCC0938B0085E380936E0036C08139CF
:1017100039F480918B00882309F483C086E110C0DE
:10172000813841F480918B00882309F47AC080913C
:101730006E0006C0823931F481E080938B0080E036
:101740008BDA6FC0813C51F490918B0081E0892746
:1017500080938B00882389F080E00EC0813B31F5B7
:1017600060FD0BC080918B00882349F010928B00A4
:1017700081E080938C0086E16FDA80E053C0909125
:1017800081006230710528F4953518F08FEF809351
:101790008C0080918C00890F863120F0863518F0FE
:1017A00085E501C086E180936E00E6CF813E31F48D
:1017B00080918C00819580938C00DFCF863C59F41A
:1017C00081E0D7DB10927E0053DC60E070E08CE5B6
:1017D00098E0DDD5D2CF813081F46E33710511F4FC
:1017E00080938C0080918B00882339F26F337105D0
:1017F00020F281E080938200C0CF853009F4BBCF16
:10180000843079F49091810080918100969586953D
:101810008695890F863108F0AFCF81E080938B00E9
:10182000ACCF81E0CF910895883029F410928A00DE
:1018300080E012DA20C0813081F460918A00641760
:1018400038F470E06F5F7F4F86EC96E05DD513C093
:10185000F90109950DDC71D50EC08A3061F48091D3
:101860008A0090912801E82FF0E0E45CFE4F90831D
:101870008F5F80938A0080E0089540917D004E5FE5
:1018800021E331E0D1CF2CE031E042E0CDCF2BE2BB
:1018900031E041E0C9CFCF938091EF009091F0000B
:1018A0002AE08533920729F469E170E08FEE98E031
:1018B00019C08F5E984091F480918100823070F061
:1018C000C091810080918100C69586958695C80F4C
:1018D0008C2FC2D9C0937C00CF91089560E070E056
:1018E0008CE598E0CF9153C5843019F4D4DF80E0C3
:1018F000089581E0089582E1AFD983E003D680E0C6
:10190000ABD986DB80917E00882329F065E370E007
:1019100088E79BE004C060E070E08CE598E0F4C4E8
:10192000EF92FF920F931F93CF93DF938091EF007D
:101930009091F0002AE08533920709F05AC0809117
:101940006700811190C015D98F73E82EF12C11D941
:1019500067E0CFD0C1E0D0E08E0102C0000F111FC0
:101960009A95E2F706D9837002C0CC0FDD1F8A95E5
:10197000E2F7C00FD11FFDD890E0BE01DAD0C80F4A
:10198000D91F8C2F69D9C701FAD58E0143E015956F
:1019900007954A95E1F7011101C001E010E0C70188
:1019A000EED5C01BD10BD7FF02C0C0E0D0E08C2F1A
:1019B00053D9DFD8837031F4C701E1D5CE019595B5
:1019C00087954AD9C230D10554F7D3D86DE091D06C
:1019D000C1E0D0E002C0CC0FDD1F9A95E2F7C9D874
:1019E00090E0BE0192D0C80FD91F80E035D9CE015A
:1019F00018C022E08930920739F4DF91CF911F910E
:101A00000F91FF90EF90A4C921E0853D920781F4EA
:101A10008091F2009091F300959587956AD988EEB0
:101A200093E0DF91CF911F910F91FF90EF90A7C5A9
:101A30008F5E914089F480916E000ED984EF91E021
:101A40009ED580E009D98091660090E068EE73E051
:101A50003FD0845F9140E5CFDF91CF911F910F91EF
:101A6000FF90EF9019C8DF91CF911F910F91FF90D8
:101A7000EF900895F894B89A81E083BF91EA9ABDF7
:101A8000B99ABC9A80BF80E68CBD8FEF8DBD88E08F
:101A900088BB85BB8BB780628BBF19D78CE087B9B9
:101AA00086EC86B9789481E02DD5C5D460E070E0ED
:101AB00084E79CE029D41FDF54D5809182008823DD
:101AC00019F080E0C9D8BED72BDF10927F00F4CF89
:101AD0000024552704C0080E591F880F991F00972E
:101AE00029F076956795B8F37105B9F7802D952F94
:101AF0000895991B79E004C0991F961708F0961B6A
:101B0000881F7A95C9F780950895AA1BBB1B51E1E0
:101B100007C0AA1FBB1FA617B70710F0A61BB70B5D
:101B2000881F991F5A95A9F780959095BC01CD0102
:101B3000089597FB072E16F4009406D077FD08D081
:101B4000E4DF07FC05D03EF4909581959F4F089502
:101B5000709561957F4F0895E199FECF9FBB8EBB35
:101B6000E09A99278DB30895262FE199FECF9FBB68
:101B70008EBBE09A01970DB2021639F01CBA2DBB4C
:101B80000FB6F894E29AE19A0FBE0895F894FFCF49
:101B9000040718010004020102077D147D014101C0
:0C1BA0002DF8804222110904020200000E
:00000001FF
