:10000000A4C0BEC052C4BCC0BBC0BAC0B9C0B8C096
:10001000B9C2B6C0B5C0B4C05BC4B2C0B1C0000004
:1000200000000000000000000000000000000000D0
:1000300000000000000000000000000000000000C0
:1000400000000000000000000000000000000000B0
:1000500000000000000000000000000000000000A0
:10006000010304050708090B0C0E0F1113141618D1
:10007000191B1D1F21232527292B2D3032343739F9
:100080003B3E404346484B4E5154575A5D60636671
:10009000696D7073777A7E8185898D9094989CA024
:1000A000A5A9ADB1B6BABFC3C8CDD1D6DBE0E5EAEC
:1000B000EFF4FAFF01010202030304040506070836
:1000C000090A0C0D0E0F11131416181A1D1F2224E5
:1000D000272A2D3033373B3E42464B4F54595D6300
:1000E000686E73797F868C939AA1A8B0B8C0C8D186
:1000F000D9E2ECF5FFFFFFFFFFFFFFFFFFFFFFFF70
:10010000FFFFFFFFFFFFFFFFFFFFFFFFFFFFFFFFFF
:10011000FFFFFFFFFFFFFFFFFFFFFFFFFFFFFFFFEF
:10012000FFFFFFFFFFFFFFFFFFFFFFFFFFFFFFFFDF
:10013000FFFFFFFFFFFFFFFFFFFFFFFFFFFFFFFFCF
:10014000FFFFFFFFFFFFFFFFFF0011241FBECFE5F2
:10015000D2E0DEBFCDBF10E0A0E6B0E0E4E1FAE11E
:1001600002C005900D92AA37B107D9F721E0AAE79E
:10017000B0E001C01D92AC33B207E1F7C3DB48CC5D
:100180003FCF20913901222361F08091EF009091BF
:10019000F0009595879590918200891B281B2093EC
:1001A000820080913A01882319F0825E80936F006B
:1001B00080916F00873418F086E480936F00089573
:1001C00080913901811180936600089520917B0010
:1001D0009091390180913A01222381F091119093FD
:1001E0006A00882321F097E9981B90936900809119
:1001F0003B01882361F080936800089591119093EA
:100200006C00882321F097E9981B90936B00089568
:100210008CEF93E00197F1F70895FF920F931F93EE
:10022000CF93DF938C01EB01842FF22E2091EC0011
:100230003091ED00232B29F0E091EC00F091ED00DE
:1002400009951093ED000093EC00012B61F0E09113
:10025000EC00F091ED00BE018F2DDF91CF911F9149
:100260000F91FF900994DF91CF911F910F91FF9013
:100270000895DC0190918100983090F4E92FF0E02E
:10028000EE0FFF1FE75DFE4FB183A0839F5F90934A
:10029000810028E049E0CD01C0DF80918100089510
:1002A0008FEF0895CF93DF93E0918100EE2359F013
:1002B000E150E0938100F0E0EE0FFF1FE75DFE4F9D
:1002C000C081D18102C0C0E0D0E0E0918100EE2386
:1002D00041F0F0E0EE0FFF1FE95DFE4F808191815C
:1002E00002C080E090E02AE049E060E070E095DF45
:1002F000CE01DF91CF9108950F931F93CF93DF939A
:10030000EC018B01CFDFB801CE01DF91CF911F91BE
:100310000F91AFCF813C29F460E070E084E497E076
:1003200006C0823C31F460E070E08EEB91E0E4DFE7
:1003300007C0843C39F460E070E08BE89BE099DF13
:1003400080E0089581E00895813C29F460E070E048
:1003500084E497E006C0823C31F460E070E08AE813
:1003600091E0CADF07C0843C39F460E070E08FE8B8
:100370009BE07FDF80E0089581E00895813C29F4CF
:1003800060E070E084E497E006C0823C39F460E00D
:1003900070E08CEB97E0B0DF80E0089581E0089595
:1003A0001092260181E080937D0008951092E00074
:1003B0001092DF0090912601803159F4892F8069D5
:1003C0009F709E3020F08093260181E008958F5F1A
:1003D000FACF882329F090689093260180E0089551
:1003E000892F8F7E95FD02C08068EDCF806CEBCFAA
:1003F000482FDB0120E030E0C90163E070E0AADAB9
:10040000FC01EB50FF4F8081882331F02F5F3F4F7D
:100410002031310589F703C04083B283A183089559
:1004200020E030E0F22FE32F2F5F3F4FC90163E060
:1004300070E090DADC01AB50BF4F4C918F2F9E2FB4
:1004400063E070E087DAFC01EB50FF4F40831196C8
:100450008D919C911297928381832F30310511F7F2
:10046000109222011092240110922301089590E825
:1004700022E048EA57E0815040F096BD26BDFA01DF
:100480003197F1F796BD16BCF6CF08950F931F93E1
:10049000CF93DF93D82F8B01C0918100C150C7FD4E
:1004A0000FC0EC2FEE0FFF0BE75DFE4F0190F081C8
:1004B000E02DB8018D2F09958111F0CF80E001C0AA
:1004C00081E0DF91CF911F910F9108958091F50008
:1004D000882349F06091F6007091F7008091F50053
:1004E000D5DF9EDFF3CF0895AF92BF92CF92DF9218
:1004F000EF92FF920F931F93CF93DF93E090EC0066
:10050000F090ED00EC0110E888EAC82E87E0D82EC4
:1005100002E09AEEA92EBB24B3942097E1F08091DB
:100520007F0016BD853018F406BDC50102C016BC9B
:10053000C6010197F1F716BD16BC80917D008111AF
:100540000CC02091EC003091ED002197E216F306EB
:1005500029F4BCDFE2CF81E001C080E0DF91CF91E0
:100560001F910F91FF90EF90DF90CF90BF90AF90D1
:1005700008953ECF9093E0008093DF00BC0180910E
:10058000260136CF1F920F920FB60F9211242F9390
:100590003F934F935F936F937F938F939F93AF930B
:1005A000BF93EF93FF938091F300882309F433C145
:1005B0001092F30064B175B180917E00860F809334
:1005C0007E008091DE008F5F83708093DE0081303B
:1005D00039F580E098E5DBD96B5F7F4F76956795BD
:1005E0006093F4008091DD00882321F08150809396
:1005F000DD0009C18091F4008D3178F48091DC0038
:10060000843020F48F5F8093DC00FDC060E070E0F8
:1006100084E0EEDE84E18093DD001092DC00F3C024
:10062000833009F0F0C08091820063517140680FFF
:10063000711D87FD7A9580916E008823F9F01092E4
:100640006E00ECECF0E08CED90E0619371938E170E
:100650009F07D9F7660F771FECEAF0E08CEC90E08B
:10066000619371938E179F07D9F7ECE9F0E06193DE
:10067000719320E0EC3AF207D1F719C0ECECF0E00E
:100680004AED50E080E090E0228133812193319364
:10069000820F931F4E175F07B9F77093DB006093CB
:1006A000DA00680F791F7595679575956795709352
:1006B000F0006093EF008091EF009091F000ECEA81
:1006C000F0E02AEC30E042815381419351932E17A0
:1006D0003F07C9F79093CB008093CA002091AC00EC
:1006E0003091AD00AC01421B530B9A0154E0220F34
:1006F000331F5A95E1F7280F391F309328012093B3
:10070000270180919B00E82FF0E0EE0FFF1FE456D9
:10071000FF4F318320838F5F877080939B00ECE9CC
:10072000F0E04CEA50E080E090E061917191860F3A
:10073000971F4E175F0771F460916F0070E0660FAE
:10074000771FAB01435151092417350744F010922C
:100750009A000AC080386EE396073CF3EDCF261767
:10076000370714F41092990020919800222321F069
:1007700021502093980047C097FD079623E0959558
:1007800087952A95E1F768177907DCF4209199009D
:10079000243020F42F5F2093990035C010929900E7
:1007A00024E1209398009C01261B370BB90193E0AC
:1007B000759567959A95E1F71616170624F585E065
:1007C00021C06451710986179707ECF420919A00B3
:1007D000243020F42F5F20939A0015C010929A00C5
:1007E00024E120939800681B790B83E07595679549
:1007F0008A95E1F71616170634F48091F4008E31CD
:1008000010F086E0F5DD8091DE00823010F48CE09F
:1008100001C08FE887B9FF91EF91BF91AF919F9190
:100820008F917F916F915F914F913F912F910F9099
:100830000FBE0F901F901895A89581B5886181BD56
:1008400080E481BD08950F931F9361E04DE750E070
:1008500026B38091930090919400A0919500B0915F
:100860009600880F991FAA1FBB1F23FB222720F980
:100870002627822B8093930090939400A093950059
:10088000B0939600FA013197F1F78C019D01015068
:100890001109210931090E3F1F4F2F4F3F4FC0F261
:1008A0008093F2001F910F9108951895CF93C82F50
:1008B000882311F080E101C080E078DD882331F0E9
:1008C000C093F20080E090E0CF9154CECF91089594
:1008D0001F920F920FB60F9211242F933F934F93B5
:1008E0005F936F937F938F939F93AF93BF93CF93B8
:1008F000DF93EF93FF93C091F200A5DFC813D6DF1B
:100900008091DF009091E000EC012196882790789B
:10091000C82BD92BD093E000C093DF008091260133
:10092000807F803B19F460E070E001C0BE0181E08F
:100930005FDD8091260184FF0DC085FF02C0CE01DE
:1009400007C06897A0F080628093260180E090E065
:1009500011DE0DC0882359F085FD08C0689738F076
:1009600080648093260180E090E004DE19DD8091B0
:1009700097008F5F80939700837031F486B188640D
:1009800086B981E08093F300FF91EF91DF91CF91E1
:10099000BF91AF919F918F917F916F915F914F9197
:1009A0003F912F910F900FBE0F901F901895A89513
:1009B00084B7877F84BF81B5886181BD11BC3798BA
:1009C00042DF8111FDCFECDC8BB780628BBF1092D0
:1009D000800085B7877E806185BF85B7806285BFCF
:1009E00085B7846885BF8B7F85BF889585B78F7DE8
:1009F00085BF81E080936E008CE087B986EC86B974
:100A00001BCF85B7877E85BF85B7806285BF8895F8
:100A100085B78F7D85BF08958091F10090917F000B
:100A2000891720F480917F00815007C090917F004A
:100A3000981718F480917F008F5F6FEF680F262F53
:100A400030E0A9014C545F4FFA01949170917F00FE
:100A5000671728F469B5611102C09F3F59F069B565
:100A6000691718F499B59F5F05C069B5961718F412
:100A700099B5915099BD225E3F4FF901949168B5A7
:100A8000691718F498B59F5F05C068B5961718F4F4
:100A900098B5915098BD99B5FA014491941307C047
:100AA00098B5F9012491921302C080937F000895B4
:100AB000E0916400F09165003196FB70F460F09372
:100AC0006500E093640080917E008B5A80937E00E5
:100AD000E49180917E008E0F08950F931F93CF9322
:100AE000DF93F89480E091E079D7853A89F401EEBC
:100AF00010E0C1E0D1E0CE0171D7F80181938F0100
:100B00002196CC30F1E0DF07B1F7789481E002C0A4
:100B1000789480E0DF91CF911F910F9108950F930A
:100B20001F93CF93DF93F89401EE10E0C1E0D1E082
:100B3000F80161918F01CE0159D72196CC30F1E0B7
:100B4000DF07B1F765EA80E091E050D77894DF9154
:100B5000CF911F910F91089580917F00853020F4EF
:100B600080E886BD82E005C08E3028F480E886BD2E
:100B700081E086BD089580E886BD16BC0895809307
:100B80007F008093F100811103C019BC18BC0CC018
:100B9000815090E0FC01EC54FF4FE491E9BDFC0171
:100BA000E25EFF4F849188BDD7CF982F807980393E
:100BB00019F480916D0003C0803821F480E0DFDFFC
:100BC00080E00895913051F480917F00811106C03A
:100BD000633A734020F090938000089581E0089577
:100BE000CF93DF93883059F410928700609386008A
:100BF00010928500109284001092830081C0813091
:100C000009F068C090918500892F8D7F81F4209133
:100C10008300309184002F31310538F42F5F3F4F2E
:100C200030938400209383006EC09F5F25C0913075
:100C300051F5809186008823F1F0C0918300D09116
:100C400084009E012F7133272A30310511F485E28B
:100C500004C02431310519F480E091DF06C02F3142
:100C6000310519F48150809386002196D093840039
:100C7000C093830045C092E0909385001092840059
:100C80001092830040C09330E9F4C0918300D0916A
:100C900084002196D0938400C0938300CE0183709A
:100CA0009927009711F489E103C0029711F482E1BA
:100CB00066DFCB3BD10520F180E061DF84E08093EB
:100CC00085001EC09430E1F4809187008093250157
:100CD000E9DA16C08138B1F463DB80918500833096
:100CE00079F4809187008F5F809387001092840051
:100CF000109283008BE443DF84E0B9DB80E03FDFC8
:100D000080E001C081E0DF91CF910895CF93C82F9B
:100D1000882381F089E133DF88EC90E0E5DB80E037
:100D20002EDF80E991E0E0DBC150A1F788E592E099
:100D3000CF91DACB89E123DF88E090E0D5DB80E05A
:100D40001EDF80E991E0D0DBF1CFCF93DF93C82F96
:100D5000843638F08CE98C0F843628F0C85C82E049
:100D600004C080E002C0C82F81E0D0E0CA3018F093
:100D7000DF5FCA50FBCF882381F0C8DF882381F072
:100D80008D2FC4DF882361F08C2FC0DF882341F0D2
:100D900088EE93E0DF91CF91A7CBD111F1CFF4CFC3
:100DA00080E0DF91CF9108958091F400CECF0F9332
:100DB0001F93CF93DF93EC0160916C0080916B00E7
:100DC00090917B00992321F060916A0080916900E5
:100DD000262F30E0C217D3070CF440C0282F30E094
:100DE0002C173D07E4F180917B00811102C08C2F0C
:100DF00036C0E091690080916A00E81B609168004C
:100E0000F0E070E061507109CF01D5D56093EE003C
:100E100080916A006695262F30E010E0909168007E
:100E20001917E8F44091680000916A00812F90E062
:100E3000BF0190D5642F70E061507109A8D5802F53
:100E4000860FAE01481B510957FF03C051954195CC
:100E50005109241735071CF41F5FE0CF862FDF915F
:100E6000CF911F910F910895CF93C82FCC2351F0AC
:100E700085E285DE82E0FBDA80E081DE89E1F7DA77
:100E8000C150F4CFCF910895CF93883021F480E002
:100E900076DE81E006C0813039F46D37710508F4E3
:100EA00066C08093800063C0813919F481E090E0CE
:100EB0001FC0813BB1F46115710541F4C0917F0001
:100EC00080E05DDE82E0D3DA8C2F13C080917B005E
:100ED000811104C06831710508F44CC061E070E014
:100EE0000FC0813ED9F3813831F480916D0090E0DC
:100EF0005EDF45DE3CC0813C31F460916D0070E006
:100F00008AE698E033C0823B19F466E970E0F8CFD6
:100F1000823CD9F3833911F480E0EBCF833C29F490
:100F200060E070E08EEB91E021C0833B29F460E04B
:100F300070E08AEC99E01AC0843C39F482E094DFD6
:100F400060E070E086EF97E011C0853C39F481E005
:100F50008BDF60E070E085ED95E008C0863C49F4E9
:100F600081E082DF60E070E080EC9AE0C5D980E04B
:100F700001C081E0CF910895883049F410928C002F
:100F800010928B0082E070DF88E1F9DD07C0813CC0
:100F900039F460E070E084E497E0AED980E0089531
:100FA000823C29F460E070E084EA91E0F6CF813081
:100FB000D9F480918B0090918C000196853524E2C4
:100FC000920728F490938C0080938B00E7CF1092C7
:100FD0008C0010928B0080917F008150D0DD809139
:100FE0007F008111DBCFD5CF81E00895CF93C82F4B
:100FF0008079803921F481E090E0D9DE03C0803827
:1010000019F480E0BCDD08C0C13031F46D377105E2
:1010100060F0C093800009C081E0C43C39F424DF53
:1010200060E070E084E497E067D980E0CF910895B4
:10103000982F880F97FD809508954FDD882341F103
:101040008091E10080937B008091E20080936C00AE
:101050008091E30080936B008091E40080936A00AC
:101060008091E500809369008091E600809368009C
:101070008091E800809366008091E90080937C0075
:101080008091EA0080936F008091EB008093820052
:10109000089580917B00E1EEF0E0808380916C0008
:1010A000818380916B00828380916A008383809129
:1010B00069008483809168008583809166008783BE
:1010C00080917C00808780916F0081878091820071
:1010D000828725CD1F93CF93DF93CDB7DEB72897B7
:1010E0000FB6F894DEBF0FBECDBF9B0190916C0090
:1010F00010916B0040917B00442339F090916A007D
:10110000109169004091EE0001C041E0883029F063
:101110008A30B1F420916D0030E0892F90E0821781
:10112000930738F4812F90E02817390710F42093A3
:101130006D00C9013CDE80937A0021DD81E069C049
:10114000813C31F460E070E084E497E0D5D815C1CB
:10115000823C59F480917F00863910F486E902C000
:1011600080916D0080937A007DC0833CA1F49091C2
:101170007B0081E0911180E080937B0080917F0073
:1011800090E015DE80936D0080937A0082DF80E02E
:10119000F6DC85E064C0843C31F460E070E085E812
:1011A0009BE067D8EAC0813B79F580917B0088237A
:1011B00039F0C90168E170E0EAD3892B09F0DDC09C
:1011C0002230310538F480917F00811718F08FEFBD
:1011D0008093630020917F0080916300642F70E012
:1011E000082E000C990BB6D3820F911DE0DD809381
:1011F0006D0080937A0090917F00891789F1813486
:1012000059F118132DC028C0813E31F4809163003C
:10121000819580936300B1C0823B31F581E080937A
:10122000630080917B00882339F0C90168E170E098
:10123000AED3892B09F0A1C080917F0090E0841B80
:101240009109B5DD80936D0080937A0090917F00C5
:10125000891731F0813421F480E091DC82E007D9F4
:1012600080916D008CDC89C0813009F04AC02E333A
:10127000310511F48093630020FF05C080917F0049
:10128000893608F47AC080917F00893640F09091C9
:101290007F008091F100891710F4BEDB6EC088E0FA
:1012A000E0E7F0E0DE01119601900D928A95E1F7FA
:1012B000909192009F5F909392002091F100809115
:1012C0007F00821728F48091F10020917F0004C0F4
:1012D00080917F002091F100821B20E0882319F08B
:1012E0002F5F8695FBCFE1E0F0E0EC0FFD1FE20FF2
:1012F000F11D8081891708F040C08EDB10929200AA
:101300003CC0853009F580917F008A3630F089E64F
:101310008093F10080937A0030C080917F00823406
:1013200060F180917F0090E0821B930B81349105E6
:1013300034F08739910528F086E990E002C081E415
:1013400090E08093F10019C08630C9F490917F003D
:1013500080917A00981788F490917F00290F311DB1
:1013600090E08217930734F02134310524F421E40E
:1013700030E001C09C012093F10080E001C081E0D9
:1013800028960FB6F894DEBF0FBECDBFDF91CF9188
:101390001F910895AF92BF92CF92DF92EF92FF928A
:1013A0000F931F93CF93DF9390916700883019F4C8
:1013B0001092910042C0EB01813C31F460E070E09A
:1013C00084E497E099D739C0823C51F4892F90E0AA
:1013D00001968170992780936700109291001AC03E
:1013E000813B41F4913049F5809162008B3428F5BE
:1013F0008F5F09C0823B51F49130F9F48091620013
:101400008230D8F081508093620017C02FE1280FFE
:10141000223010F43EDE11C0833C89F4913069F42F
:1014200080919100843E48F4855E80939100809184
:101430007F00805EA4DB82E01AD880E096C0813015
:1014400009F092C080917E00860F80937E009130DB
:10145000A1F720919100FB01FF70213069F4809188
:10146000620090E04496BF0134E0769567953A9526
:10147000E1F770D2B92E01C0B12CEF3FFF4061F40B
:10148000222351F0215020939100211105C060E0EA
:1014900070E084E497E030D7C09090008C2DC8DDD8
:1014A000F82ED0908F008D2DC3DDA82E0091610005
:1014B000E0908E008E2DBCDD482F109160002F2D06
:1014C00030E083E0220F331F8A95E1F7209162001C
:1014D0002B19230F602F70E08A2D90E03BD2290F4B
:1014E000612F70E0842F90E035D2822F890F87FD25
:1014F00080E045DBC0FD05C0DBDA8170C80EC0921C
:10150000900080918D00D80ED0928F00D1DA65E2E4
:1015100032D2E90EE0928E00CBDA8F7329F4C8DA6A
:101520006DE029D290938D00002331F0C1DA8F73E2
:1015300019F4015000936100BBDA811105C087E006
:101540008093610010928F00133030F0B1DA8F7108
:1015500019F4115010936000ABDA8F7709F06DCF5A
:1015600095E09093600001C081E0DF91CF911F91E1
:101570000F91FF90EF90DF90CF90BF90AF900895C4
:10158000CF93883061F4C1E0C0938A00C0937C009F
:1015900080DDC093890085E380936D0036C081397A
:1015A00039F480918900882309F483C086E110C052
:1015B000813841F480918900882309F47AC08091B0
:1015C0006D0006C0823931F481E08093890080E0AB
:1015D000D6DA6FC0813C51F49091890081E089276F
:1015E00080938900882389F080E00EC0813B31F52B
:1015F00060FD0BC080918900882349F0109289001A
:1016000081E080938A0086E1BADA80E053C090914D
:101610007F006230710528F4953518F08FEF8093C4
:101620008A0080918A00890F863120F0863518F073
:1016300085E501C086E180936D00E6CF813E31F4FF
:1016400080918A00819580938A00DFCF863C59F48F
:1016500081E00ADC10927C001CDD60E070E084E434
:1016600097E04AD6D2CF813081F46E33710511F400
:1016700080938A0080918900882339F26F33710545
:1016800020F281E080938000C0CF853009F4BBCF89
:10169000843079F490917F0080917F0096958695B3
:1016A0008695890F863108F0AFCF81E0809389005D
:1016B000ACCF81E0CF910895883029F41092880052
:1016C00080E05DDA20C0813081F460918800641789
:1016D00038F470E06F5F7F4F80EF95E0CAD513C09C
:1016E000F9010995D6DCDED50EC08A3061F480910F
:1016F000880090912501E82FF0E0E75CFE4F908391
:101700008F5F8093880080E0089540917B004E5F5A
:1017100026EE30E0D1CF21EC30E042E0CDCF20EE1C
:1017200030E041E0C9CFCF938091EC009091ED0083
:1017300029E08A3C920729F469E170E08AE698E0A2
:1017400019C08A56984091F480917F00823070F0E1
:10175000C0917F0080917F00C69586958695C80FC1
:101760008C2F0DDAC0937A00CF91089560E070E07D
:1017700084E497E0CF91C0C5843019F4D4DF80E0D1
:10178000089581E0089582E1FAD983E070D680E07F
:10179000F6D953DC80917C00882329F065E370E062
:1017A00080EC9AE004C060E070E084E497E061C5FA
:1017B000EF92FF920F931F93CF93DF938091EC00F2
:1017C0009091ED0029E08A3C920709F05AC080917F
:1017D0006700811190C06CD98F73E82EF12C68D905
:1017E00067E0C9D0C1E0D0E08E0102C0000F111F38
:1017F0009A95E2F75DD9837002C0CC0FDD1F8A9500
:10180000E2F7C00FD11F54D990E0BE01D4D0C80F69
:10181000D91F8C2FB4D9C70167D68E0143E0159527
:1018200007954A95E1F7011101C001E010E0C701F9
:101830005BD6C01BD10BD7FF02C0C0E0D0E08C2F1D
:101840009ED936D9837031F4C7014ED6CE01959515
:10185000879595D9C230D10554F72AD96DE08BD040
:10186000C1E0D0E002C0CC0FDD1F9A95E2F720D98D
:1018700090E0BE018CD0C80FD91F80E080D9CE0186
:1018800018C021E08E3B920739F4DF91CF911F9170
:101890000F91FF90EF9088CA21E08A38920781F477
:1018A0008091EF009091F000959587954EDA88EE43
:1018B00093E0DF91CF911F910F91FF90EF9014C6AD
:1018C000845A914089F480916D0059D984EF91E058
:1018D0000BD680E054D98091660090E068EE73E00A
:1018E00039D0845F9140E5CFDF91CF911F910F9167
:1018F000FF90EF9086C8DF91CF911F910F91FF90DD
:10190000EF900895F894B89A81E083BF81EA8ABD88
:10191000B99A88E088BB85BB8BB780628BBF8CD7B8
:101920008CE087B986EC86B9789481E0A0D538D56B
:1019300060E070E08CEB9BE09CD425DFC7D5809104
:101940008000882319F080E01AD931D831DF109255
:101950007D00F4CF0024552704C0080E591F880FBE
:10196000991F009729F076956795B8F37105B9F737
:10197000802D952F0895991B79E004C0991F961723
:1019800008F0961B881F7A95C9F780950895AA1BC1
:10199000BB1B51E107C0AA1FBB1FA617B70710F05A
:1019A000A61BB70B881F991F5A95A9F7809590958C
:1019B000BC01CD01089597FB072E16F4009406D0C4
:1019C00077FD08D0E4DF07FC05D03EF490958195C3
:1019D0009F4F0895709561957F4F0895E199FECFCF
:1019E0009FBB8EBBE09A99278DB30895262FE1996E
:1019F000FECF9FBB8EBBE09A01970DB2021639F065
:101A00001CBA2DBB0FB6F894E29AE19A0FBE089566
:041A1000F894FFCF78
:101A14000407180100040201077814780141012D1C
:0A1A2400F8804222110904020200BA
:00000001FF
