:10000000A4C0BEC052C4BCC0BBC0BAC0B9C0B8C096
:10001000B9C2B6C0B5C0B4C05BC4B2C0B1C0000004
:1000200000000000000000000000000000000000D0
:1000300000000000000000000000000000000000C0
:1000400000000000000000000000000000000000B0
:1000500000000000000000000000000000000000A0
:10006000010304050708090B0C0E0F1113141618D1
:10007000191B1D1F21232527292B2D3032343739F9
:100080003B3E404346484B4E5154575A5D60636671
:10009000696D7073777A7E8185898D9094989CA024
:1000A000A5A9ADB1B6BABFC3C8CDD1D6DBE0E5EAEC
:1000B000EFF4FAFF01010202030304040506070836
:1000C000090A0C0D0E0F11131416181A1D1F2224E5
:1000D000272A2D3033373B3E42464B4F54595D6300
:1000E000686E73797F868C939AA1A8B0B8C0C8D186
:1000F000D9E2ECF5FFFFFFFFFFFFFFFFFFFFFFFF70
:10010000FFFFFFFFFFFFFFFFFFFFFFFFFFFFFFFFFF
:10011000FFFFFFFFFFFFFFFFFFFFFFFFFFFFFFFFEF
:10012000FFFFFFFFFFFFFFFFFFFFFFFFFFFFFFFFDF
:10013000FFFFFFFFFFFFFFFFFFFFFFFFFFFFFFFFCF
:10014000FFFFFFFFFFFFFFFFFF0011241FBECFE5F2
:10015000D2E0DEBFCDBF10E0A0E6B0E0EAEEFCE109
:1001600002C005900D92AE38B107D9F721E0AEE894
:10017000B0E001C01D92A735B207E1F72EDDB3CD87
:100180003FCF20915401222361F080910A01909188
:100190000B019595879590919700891B281B2093BB
:1001A000970080915501882319F0825E8093730037
:1001B00080917300873418F086E48093730008956B
:1001C00080915401811180936600089520918F00E1
:1001D0009091540180915501222381F091119093C7
:1001E0006E00882321F097E9981B90936D00809111
:1001F0005601882361F080936C00089591119093CB
:100200007000882321F097E9981B90936F00089560
:100210008CEF93E00197F1F70895FF920F931F93EE
:10022000CF93DF938C01EB01842FF22E20910701F5
:1002300030910801232B29F0E0910701F09108018A
:1002400009951093080100930701012B61F0E091DB
:100250000701F0910801BE018F2DDF91CF911F9111
:100260000F91FF900994DF91CF911F910F91FF9013
:100270000895DC0190919600983090F4E92FF0E019
:10028000EE0FFF1FEC5BFE4FB183A0839F5F909347
:10029000960028E049E0CD01C0DF809196000895E6
:1002A0008FEF0895CF93DF93E0919600EE2359F0FE
:1002B000E150E0939600F0E0EE0FFF1FEC5BFE4F85
:1002C000C081D18102C0C0E0D0E0E0919600EE2371
:1002D00041F0F0E0EE0FFF1FEE5BFE4F8081918159
:1002E00002C080E090E02AE049E060E070E095DF45
:1002F000CE01DF91CF9108950F931F93CF93DF939A
:10030000EC018B01CFDFB801CE01DF91CF911F91BE
:100310000F91AFCF813C29F460E070E083E299E077
:1003200006C0823C31F460E070E08EEB91E0E4DFE7
:1003300007C0843C39F460E070E081EC9CE099DF18
:1003400080E0089581E00895813C29F460E070E048
:1003500083E299E006C0823C31F460E070E08AE814
:1003600091E0CADF07C0843C39F460E070E085ECBE
:100370009CE07FDF80E0089581E00895813C29F4CE
:1003800060E070E083E299E006C0823C39F460E00E
:1003900070E084E598E0B0DF80E0089581E00895A2
:1003A0001092410181E08093910008951092F7002E
:1003B0001092F60090914101803159F4892F8069A3
:1003C0009F709E3020F08093410181E008958F5FFF
:1003D000FACF882329F090689093410180E0089536
:1003E000892F8F7E95FD02C08068EDCF806CEBCFAA
:1003F000482FDB0120E030E0C90163E070E015DC4C
:10040000FC01E05FFE4F8081882331F02F5F3F4F7A
:100410002031310589F703C04083B283A183089559
:1004200020E030E0F22FE32F2F5F3F4FC90163E060
:1004300070E0FBDBDC01A05FBE4F4C918F2F9E2F45
:1004400063E070E0F2DBFC01E05FFE4F4083119659
:100450008D919C911297928381832F30310511F7F2
:1004600010923D0110923F0110923E01089590E8D4
:1004700022E048EA57E0815040F096BD26BDFA01DF
:100480003197F1F796BD16BCF6CF08950F931F93E1
:10049000CF93DF93D82F8B01C0919600C150C7FD39
:1004A0000FC0EC2FEE0FFF0BEC5BFE4F0190F081C5
:1004B000E02DB8018D2F09958111F0CF80E001C0AA
:1004C00081E0DF91CF911F910F91089580911001EC
:1004D000882349F0609111017091120180911001FF
:1004E000D5DF9EDFF3CF0895AF92BF92CF92DF9218
:1004F000EF92FF920F931F93CF93DF93E09007014A
:10050000F0900801EC0110E888EAC82E87E0D82EA8
:1005100002E09AEEA92EBB24B3942097E1F08091DB
:10052000930016BD853018F406BDC50102C016BC87
:10053000C6010197F1F716BD16BC8091910081119B
:100540000CC020910701309108012197E216F306B3
:1005500029F4BCDFE2CF81E001C080E0DF91CF91E0
:100560001F910F91FF90EF90DF90CF90BF90AF90D1
:1005700008953ECF9093F7008093F600BC018091E0
:10058000410136CF1F920F920FB60F9211242F9375
:100590003F934F935F936F937F938F939F93AF930B
:1005A000BF93EF93FF9380910E01882309F433C129
:1005B00010920E0164B175B180919200860F809304
:1005C00092008091F5008F5F83708093F5008130F9
:1005D00039F580E098E546DB6B5F7F4F7695679550
:1005E00060930F018091F400882321F08150809363
:1005F000F40009C180910F018D3178F48091F300EE
:10060000843020F48F5F8093F300FDC060E070E0E1
:1006100084E0EEDE84E18093F4001092F300F3C0F6
:10062000833009F0F0C08091970063517140680FEA
:10063000711D87FD7A95809172008823F9F01092E0
:100640007200E3EEF0E083EF90E0619371938E1718
:100650009F07D9F7660F771FE3ECF0E083EE90E099
:10066000619371938E179F07D9F7E3EBF0E06193E5
:10067000719320E0E33CF207D1F719C0E3EEF0E01C
:1006800041EF50E080E090E022813381219331936B
:10069000820F931F4E175F07B9F77093F2006093B4
:1006A000F100680F791F759567957595679570933B
:1006B0000B0160930A0180910A0190910B01E3EC18
:1006C000F0E021EE30E042815381419351932E17A7
:1006D0003F07C9F79093E2008093E1002091C300A7
:1006E0003091C400AC01421B530B9A0154E0220F1D
:1006F000331F5A95E1F7280F391F30934301209398
:1007000042018091B200E82FF0E0EE0FFF1FED54A0
:10071000FF4F318320838F5F87708093B200E3EBBC
:10072000F0E043EC50E080E090E061917191860F41
:10073000971F4E175F0771F46091730070E0660FAA
:10074000771FAB01435151092417350744F010922C
:10075000B1000AC080386EE396073CF3EDCF261750
:10076000370714F41092B0002091AF00222321F03B
:1007700021502093AF0047C097FD079623E0959541
:1007800087952A95E1F768177907DCF42091B00086
:10079000243020F42F5F2093B00035C01092B000B9
:1007A00024E12093AF009C01261B370BB90193E095
:1007B000759567959A95E1F71616170624F585E065
:1007C00021C06451710986179707ECF42091B1009C
:1007D000243020F42F5F2093B10015C01092B10097
:1007E00024E12093AF00681B790B83E07595679532
:1007F0008A95E1F71616170634F480910F018E31B1
:1008000010F086E0F5DD8091F500823010F48CE088
:1008100001C08FE887B9FF91EF91BF91AF919F9190
:100820008F917F916F915F914F913F912F910F9099
:100830000FBE0F901F901895A89581B5886181BD56
:1008400080E481BD08950F931F9361E04DE750E070
:1008500026B38091A8009091A900A091AA00B09120
:10086000AB00880F991FAA1FBB1F23FB222720F96B
:100870002627822B8093A8009093A900A093AA001A
:10088000B093AB00FA013197F1F78C019D01015053
:100890001109210931090E3F1F4F2F4F3F4FC0F261
:1008A00080930D011F910F9108951895CF93C82F34
:1008B000882311F080E101C080E078DD882331F0E9
:1008C000C0930D0180E090E0CF9154CECF91089578
:1008D0001F920F920FB60F9211242F933F934F93B5
:1008E0005F936F937F938F939F93AF93BF93CF93B8
:1008F000DF93EF93FF9381E08093950080919400C4
:10090000882399F0C091AD00D091AE00BE0183E084
:100910006FDDCE010196CC27D078C82BD92BD09390
:10092000AE00C093AD00D2DD4DC01092AE0010926B
:10093000AD00C0910D0187DFC813B8DF8091F600CC
:100940009091F700EC01219688279078C82BD92B3D
:10095000D093F700C093F60080914101807F803BE7
:1009600019F460E070E001C0BE0181E041DD8091DA
:10097000410184FF0DC085FF02C0CE0107C068970A
:10098000A0F080628093410180E090E0F3DD0DC033
:10099000882359F085FD08C0689738F080648093FB
:1009A000410180E090E0E6DDFBDC8091AC008F5FF0
:1009B0008093AC00837031F486B1886486B981E09D
:1009C00080930E01FF91EF91DF91CF91BF91AF9195
:1009D0009F918F917F916F915F914F913F912F9157
:1009E0000F900FBE0F901F901895A89581B5886144
:1009F00081BD83E481BD379826DF8111FDCFD0DC36
:100A00008BB780628BBF809194008823C9F01092CD
:100A1000950085B7877E806185BF85B7806285BF79
:100A200085B7846885BF8B7F85BF889585B78F7DA7
:100A300085BF809195008111E6CF10929400E3CF9D
:100A400081E0809372008CE087B986EC86B9F4CEA1
:100A500085B7877E85BF85B7806285BF889585B756
:100A60008F7D85BF089580910C0190919300891727
:100A700020F480919300815007C0909193009817C3
:100A800018F4809193008F5F6FEF680F262F30E08E
:100A9000A9014C545F4FFA0194917091930067172C
:100AA00028F469B5611102C09F3F59F069B5691713
:100AB00018F499B59F5F05C069B5961718F499B5F4
:100AC000915099BD225E3F4FF901949168B5691725
:100AD00018F498B59F5F05C068B5961718F498B5D7
:100AE000915098BD99B5FA014491941307C098B5F7
:100AF000F9012491921302C0809393000895E0912C
:100B00006400F09165003196FB70F460F09365002D
:100B1000E0936400809192008B5A80939200E4915C
:100B2000809192008E0F08950F931F93CF93DF93C0
:100B3000F89480E091E0BDD8853A89F408EF10E0A0
:100B4000C1E0D1E0CE01B5D8F80181938F012196A3
:100B5000C031F1E0DF07B1F7789481E002C078940A
:100B600080E0DF91CF911F910F9108950F931F9314
:100B7000CF93DF93F89408EF10E0C1E0D1E0F801E3
:100B800061918F01CE019DD82196C031F1E0DF0740
:100B9000B1F765EA80E091E094D87894DF91CF9145
:100BA0001F910F91089580919300853020F480E883
:100BB00086BD82E005C08E3028F480E886BD81E0E5
:100BC00086BD089580E886BD16BC0895882321F06F
:100BD000813029F4BC9804C0BC98C4980895BC9A8C
:100BE000C49A0895CF93C82F8093930080930C01EB
:100BF00080919400811101C0E9DFC11103C019BCCB
:100C000018BC0DC0C1508C2F90E0FC01EC54FF4F7C
:100C1000E491E9BDFC01E25EFF4FE491E8BDCF91B4
:100C2000C2CFCF93C82F882381F089E1DBDF88EC26
:100C300090E05ADC80E0D6DF80E991E055DCC150DD
:100C4000A1F788E592E0CF914FCC89E1CBDF88E036
:100C500090E04ADC80E0C6DF80E991E045DCF1CF3E
:100C6000CF93DF93C82F843638F08CE98C0F84360D
:100C700028F0C85C82E004C080E002C0C82F81E098
:100C8000D0E0CA3018F0DF5FCA50FBCF882381F074
:100C9000C8DF882381F08D2FC4DF882361F08C2F7B
:100CA000C0DF882341F088EE93E0DF91CF911CCC28
:100CB000D111F1CFF4CF80E0DF91CF9108958091F1
:100CC0000F01CECF982F8079803919F4809171006F
:100CD00003C0803821F480E085DF80E00895913002
:100CE00051F480919300811106C0633A734020F063
:100CF00090939400089581E00895CF93DF93883016
:100D000059F410929C0060939B0010929A001092EC
:100D100099001092980081C0813009F068C09091CC
:100D20009A00892F8D7F81F420919800309199004D
:100D30002F31310538F42F5F3F4F309399002093C6
:100D400098006EC09F5F25C0913051F580919B0047
:100D50008823F1F0C0919800D09199009E012F71E5
:100D600033272A30310511F485E204C024313105DE
:100D700019F480E037DF06C02F31310519F48150B6
:100D800080939B002196D0939900C093980045C012
:100D900092E090939A00109299001092980040C0AF
:100DA0009330E9F4C0919800D09199002196D093A6
:100DB0009900C0939800CE0183709927009711F491
:100DC00089E103C0029711F482E10CDFCB3BD1052E
:100DD00020F180E007DF84E080939A001EC0943009
:100DE000E1F480919C00809340015CDA16C0813868
:100DF000B1F4D6DA80919A00833079F480919C0026
:100E00008F5F80939C0010929900109298008BE461
:100E1000E9DE84E02CDB80E0E5DE80E001C081E0FB
:100E2000DF91CF910895982F880F97FD80950895B1
:100E3000AF92BF92CF92DF92EF92FF920F931F93E8
:100E4000CF93DF93883019F41092A60024C0823C1F
:100E5000D9F3813B31F4809162008B34E0F48F5FF1
:100E600007C0823B41F4809162008230A0F0815043
:100E70008093620010C0EB01833C79F48091A6005E
:100E8000843E48F4855E8093A60080919300805E46
:100E9000A9DE82E0ECDA80E08FC0813009F08BC0FF
:100EA0002091A600FB01FF70213069F4809162005F
:100EB00090E04496BF0134E0769567953A95E1F766
:100EC000B4D6B92E01C0B12CEF3FFF4061F422230C
:100ED00051F021502093A600211105C060E070E080
:100EE00083E299E009DAC090A5008C2D9CDFF82EF2
:100EF000D090A4008D2D97DFA82E00916100E09086
:100F0000A3008E2D90DF482F109160002F2D30E030
:100F100083E0220F331F8A95E1F7209162002B199D
:100F2000230F602F70E08A2D90E07FD6290F612F6C
:100F300070E0842F90E079D6822F890F87FD80E0C2
:100F400051DEC0FD05C0DBDD8170C80EC092A5007A
:100F50008091A200D80ED092A400D1DD65E276D6B1
:100F6000E90EE092A300CBDD8F7329F4C8DD6DE0BC
:100F70006DD69093A200002331F0C1DD8F7319F478
:100F8000015000936100BBDD811105C087E08093B3
:100F900061001092A400133030F0B1DD8F7119F4AC
:100FA000115010936000ABDD8F7709F074CF95E09E
:100FB0009093600001C081E0DF91CF911F910F916C
:100FC000FF90EF90DF90CF90BF90AF9008950F9378
:100FD0001F93CF93DF93EC016091700080916F00BD
:100FE00090918F00992321F060916E0080916D00A7
:100FF000262F30E0C217D3070CF440C0282F30E072
:101000002C173D07E4F180918F00811102C08C2FD5
:1010100036C0E0916D0080916E00E81B60916C001D
:10102000F0E070E061507109CF0130D660930901A2
:1010300080916E006695262F30E010E090916C0054
:101040001917E8F440916C0000916E00812F90E038
:10105000BF01EBD5642F70E06150710903D6802F7A
:10106000860FAE01481B510957FF03C051954195AA
:101070005109241735071CF41F5FE0CF862FDF913D
:10108000CF911F910F910895CF93C82FCC2351F08A
:1010900085E2A8DD82E0EBD980E0A4DD89E1E7D933
:1010A000C150F4CFCF910895883049F41092A10037
:1010B0001092A00082E0E8DF88E194DD07C0813C67
:1010C00039F460E070E083E299E016D980E0089599
:1010D000823C29F460E070E084EA91E0F6CF813050
:1010E000D9F48091A0009091A1000196853524E269
:1010F000920728F49093A1008093A000E7CF10926C
:10110000A1001092A0008091930081506BDD80912E
:1011100093008111DBCFD5CF81E00895CF93DF938A
:10112000CDB7DEB760970FB6F894DEBF0FBECDBF68
:1011300090E1E4E7F0E0DE01119601900D929A95BE
:10114000E1F78F70E1E0F0E0EC0FFD1FE80FF11D1B
:10115000808160960FB6F894DEBF0FBECDBFDF91E1
:10116000CF9134CDE1DC8823E1F18091F8008093C8
:101170008F008091F900809370008091FA00809335
:101180006F008091FB0080936E008091FC00809343
:101190006D008091FD0080936C008091FE00809333
:1011A0006A008091FF008093680080910001809325
:1011B0006900809101018093670080910201809312
:1011C00066008091030180939000809104018093D8
:1011D00073008091050180939700809106018093B0
:1011E0006B00089580918F00E8EFF0E0808380919C
:1011F0007000818380916F00828380916E00838371
:1012000080916D00848380916C00858380916A0059
:101210008683A8E6B0E08C91878311968C918087B5
:10122000809167008187809166008287809190001D
:101230008387809173008487809197008587809150
:101240006B00868793CCCF93883051F480E0CADC62
:1012500080916B008370BADC81E08093940090C031
:10126000813059F46D37710508F48AC08093940079
:1012700080916B008370AADC83C0833049F4809135
:101280006B008370833009F07BC0862F47DF78C006
:10129000813919F481E090E01FC0813BB1F4611500
:1012A000710541F4C091930080E09CDC83E0DFD8BD
:1012B0008C2F29C080918F00811104C06831710585
:1012C00008F461C061E070E013C0813ED9F3813859
:1012D00029F48091710090E07ADE15C0813C21F400
:1012E0006091710070E004C0823B29F466E970E00F
:1012F00085EC99E036C0823C41F466E970E085EC0B
:1013000099E0FAD786E96EDC3BC0833911F480E0BE
:10131000FACF833C29F460E070E08EEB91E021C0CD
:10132000833B29F460E070E088E19BE01AC0843CD4
:1013300039F482E0A9DE60E070E083E89BE011C050
:10134000853C39F481E0A0DE60E070E082E696E062
:1013500008C0863C41F481E097DE60E070E086EFF3
:101360009BE0CAD70DC0873C69F490916B0081E087
:10137000890F83709C7F982B90936B0027DC32DF62
:1013800080E001C081E0CF9108951F93CF93DF9358
:10139000CDB7DEB728970FB6F894DEBF0FBECDBF2E
:1013A0009B014091700010916F0090918F009923E4
:1013B00039F040916E0010916D00E091090101C07B
:1013C000E1E0883029F08A30B1F42091710030E0FA
:1013D000842F90E08217930738F4812F90E028172C
:1013E000390710F420937100C901F1DD80938E005C
:1013F000F9DB81E06EC0813C31F460E070E083E2B3
:1014000099E07AD708C1823C59F4809193008639DB
:1014100010F486E902C08091710080938E0082C032
:10142000833CA1F490918F0081E0911180E0809342
:101430008F008091930090E0CADD809371008093CB
:101440008E00D0DE80E0CEDB85E069C0843C31F4E4
:1014500060E070E08BEB9CE00CD7DDC0813BA1F538
:1014600080918F00882339F0C90168E170E0FAD3D8
:10147000892B09F0D0C0232B69F480919300811748
:1014800010F08FEF05C080919300481718F081E0AD
:101490008093630020919300809163006E2F70E031
:1014A000082E000C990BC1D3820F911D90DD809303
:1014B000710080938E0090919300891789F1813497
:1014C00059F118132DC028C0813E31F4809163007A
:1014D0008195809363009FC0823B31F581E08093CA
:1014E000630080918F00882339F0C90168E170E0C2
:1014F000B9D3892B09F08FC08091930090E08E1BA7
:10150000910965DD8093710080938E009091930026
:10151000891731F0813421F480E064DB82E0A7D7C1
:10152000809171005FDB77C0813009F042C02E33BB
:10153000310511F48093630020FF05C08091930072
:10154000873808F468C088E0E4E8F0E0DE0111962E
:1015500001900D928A95E1F79091A7009F5F90937B
:10156000A70020910C0180919300821728F48091AC
:101570000C012091930004C08091930020910C01F4
:10158000821B3091930021E0373808F420E0882353
:1015900019F02F5F8695FBCFE1E0F0E0EC0FFD1F27
:1015A000E20FF11D80818917B0F55DDA1092A70076
:1015B00032C08530B9F480919300823460F180911B
:1015C000930090E0821B930B8134910534F08739AE
:1015D000910528F086E990E002C081E490E08093D4
:1015E0000C0119C08630C9F49091930080918E004F
:1015F000981788F490919300290F311D90E082177D
:10160000930734F02134310524F421E430E001C0A3
:101610009C0120930C0180E001C081E028960FB668
:10162000F894DEBF0FBECDBFDF91CF911F9108951B
:101630001F93CF93DF93D82F162FC0916A00C3302A
:1016400009F4F6DBD13C31F460E070E083E299E02C
:1016500053D652C0D23C49F48C2F90E0019665E0FD
:1016600070E014D380936A003EC0D13BC1F4C23015
:1016700060F410FD41C0EC2FF0E0E859FF4F80818D
:101680008930D0F18081815019C0C430A9F5809192
:101690006700883700F5809167008F5F1AC0D23BE2
:1016A000F1F4C23068F410FD27C0EC2FF0E0E859E7
:1016B000FF4F80818F3F01F180818F5F80831CC04D
:1016C000C430D1F480916700833028F080916700A6
:1016D0008150809367008091670084DA0DC08FE1AC
:1016E0008D0F823010F47EDD07C0D13039F4809147
:1016F0009200180F1093920080E001C081E0DF910A
:10170000CF911F910895EF92FF921F93CF93DF9394
:1017100000D0CDB7DEB7182F7B0180798039D1F4A6
:1017200080917000898380916E008A83812F8F70F1
:10173000823029F490918F0081E0892702C0809146
:101740008F00E1E0F0E0EC0FFD1FE80FF11D80815C
:1017500049DA1CC0803819F480E044DA09C0183036
:1017600039F480916B008695869530DA81E036C039
:10177000113061F48DE7E816F10488F010939400BD
:1017800080916B008695869521DA09C0133049F463
:1017900080916B008C708C3011F48E2DBFDC80E05A
:1017A0001DC0133C89F490916B00892F8695869516
:1017B0008F5F8370282F220F220F9370920F9093C8
:1017C0006B0004DA0FDDEBCF81E0143C39F45CDC14
:1017D00060E070E083E299E08FD5E1CF0F900F9049
:1017E000DF91CF911F91FF90EF900895CF938830B4
:1017F00061F4C1E0C0939F00C0939000F3DCC093FC
:101800009E0085E38093710036C0813939F4809160
:101810009E00882309F483C086E110C0813841F41A
:1018200080919E00882309F47AC08091710006C0DF
:10183000823931F481E080939E0080E0D3D96FC07B
:10184000813C51F490919E0081E0892780939E0015
:10185000882389F080E00EC0813B31F560FD0BC02C
:1018600080919E00882349F010929E0081E0809331
:101870009F0086E1B7D980E053C090919300623019
:10188000710528F4953518F08FEF80939F008091B3
:101890009F00890F863120F0863518F085E501C05C
:1018A00086E180937100E6CF813E31F480919F0004
:1018B000819580939F00DFCF863C59F481E0E4DB83
:1018C000109290008FDC60E070E083E299E014D524
:1018D000D2CF813081F46E33710511F480939F0073
:1018E00080919E00882339F26F33710520F281E0E8
:1018F00080939400C0CF853009F4BBCF843079F455
:101900009091930080919300969586958695890F86
:10191000863108F0AFCF81E080939E00ACCF81E0AC
:10192000CF910895883029F410929D0080E05AD913
:1019300020C0813081F460919D00641738F470E01C
:101940006F5F7F4F8DE796E094D413C0F90109953E
:1019500049DCA8D40EC08A3061F480919D0090913A
:101960004001E82FF0E0EC5AFE4F90838F5F8093A8
:101970009D0080E0089540918F004E5F26EE30E09C
:10198000D1CF21EC30E042E0CDCF20EE30E041E09D
:10199000C9CFCF9380910701909108012BE0883146
:1019A000920729F469E170E085EC99E019C0855C43
:1019B000994091F480919300823070F0C09193002F
:1019C00080919300C69586958695C80F8C2F0AD96D
:1019D000C0938E00CF91089560E070E083E299E0BB
:1019E000CF918AC4843019F4D4DF80E0089581E077
:1019F000089582E1F7D883E03AD580E0F3D8B2DBEE
:101A000080919000882329F065E370E086EF9BE0E9
:101A100004C060E070E083E299E02BC4EF92FF9293
:101A20000F931F93CF93DF9380910701909108014B
:101A30002BE08831920709F095C0C0916A00C2304E
:101A4000F1F020F0C43009F476C0C0C0EC2FF0E013
:101A5000E859FF4FD08186E9C5D8C11107C0DA32F5
:101A600010F4D6D307C081E090E003C08D2F869597
:101A700090E03AD580E0B6D88D2F90E055C03FD8A1
:101A80008F73E82EF12C3BD867E0E0D0C1E0D0E0C6
:101A90008E0102C0000F111F9A95E2F730D88370B3
:101AA00002C0CC0FDD1F8A95E2F7C00FD11F27D8E7
:101AB00090E0BE01EBD0C80FD91F8C2F93D8C7017F
:101AC00013D58E0143E0159507954A95E1F701116D
:101AD00001C001E010E0C70107D5C01BD10BD7FF43
:101AE00002C0C0E0D0E08C2F7DD809D8837031F4DB
:101AF000C701FAD4CE019595879574D8C230D10527
:101B000054F7FDD76DE0A2D0C1E0D0E002C0CC0F09
:101B1000DD1F9A95E2F7F3D790E0BE01A3D0C80F7E
:101B2000D91F80E05FD8CE01DF91CF911F910F9137
:101B3000FF90EF90D9C4C0916700CC0FC73908F06F
:101B4000C6E9D4E08C2F4ED885E090E0CDD48091CA
:101B5000670048D881E490E0C7D4D15099F780ED70
:101B600092E0E2CF21E08E3B920739F4DF91CF91F2
:101B70001F910F91FF90EF90A2C821E0843A920745
:101B800089F4809171002ED884EF91E0ADD480E08B
:101B900029D88091660090E068EE73E046D0845FBB
:101BA0009140C2CF8A58914051F480910A0190919E
:101BB0000B019595879554D888EE93E0B5CFDF91CA
:101BC000CF911F910F91FF90EF9042C7DF91CF917E
:101BD0001F910F91FF90EF900895F894B89A81E0CB
:101BE00083BF81EA8ABDB99A88E088BB85BB8BB781
:101BF00080628BBF21D68CE087B986EC86B9789459
:101C000081E035D4CDD360E070E082EF9CE031D349
:101C1000F0DE5CD480919400882319F080E0E2D754
:101C2000E4D6FCDE10929100F4CF0024552704C0C6
:101C3000080E591F880F991F009729F07695679510
:101C4000B8F37105B9F7802D952F0895991B79E0A8
:101C500004C0991F961708F0961B881F7A95C9F73C
:101C600080950895AA1BBB1B51E107C0AA1FBB1F8B
:101C7000A617B70710F0A61BB70B881F991F5A9518
:101C8000A9F780959095BC01CD01089597FB072E8B
:101C900016F4009406D077FD08D0E4DF07FC05D0E9
:101CA0003EF4909581959F4F0895709561957F4F73
:101CB0000895E199FECF9FBB8EBBE09A99278DB323
:101CC0000895262FE199FECF9FBB8EBBE09A019726
:101CD0000DB2021639F01CBA2DBB0FB6F894E29A79
:0A1CE000E19A0FBE0895F894FFCFBB
:101CEA0004071801000402412843030D07781478F9
:101CFA000141012D00010201000000000000010065
:0E1D0A0000000000F8804222110904020500CA
:00000001FF
