:100000001EC036C035C034C033C032C031C030C06D
:100010002FC02EC065456A466E47734878497D609B
:10002000826187628C63906495659A669F67A46815
:10003000A969AE80B381B782BC83C184FF2111243A
:100040001FBECFE9CDBF10E0A0E6B0E0E6E8F3E0E8
:1000500002C005900D92A037B107D9F710E0A0E7D4
:10006000B0E001C01D92A137B107E1F774D089C19A
:10007000C7CF2AE134E003C0F9013197F1F70197C6
:10008000D8F708958EE591E00197F1F7089588EE8D
:1000900093E0EFCF369A3699FECF85B10895EF926F
:1000A000FF920F931F93CF93DF93F82EEB018B01F9
:1000B000000F111F000F111F95E2E92E07C0E9BCC8
:1000C000CE01D7DF19BCC801D4DFFA94F110F7CF05
:1000D000DF91CF911F910F91FF90EF900895CF93F3
:1000E00019BCD8DF88EC90E0C4DFD4DF90E001C019
:1000F0009E5F292F30E0F901EC5EFF4FE491E81795
:10010000B8F3F901EB5EFF4FC4916EE370E08C2F02
:10011000829586958770C3DF84EF91E0AADF65E062
:1001200070E081E0BCDF8EEE92E0A3DF6EE370E072
:100130008C2F8F71B4DFCF91AACF19BC379885B7B8
:10014000877E806185BF85B7806285BF889585B7CA
:100150008F7D85BF0895CF93DF931F92CDB7DD27A5
:1001600082E087BBA29A81E687B986EC86B9479A76
:1001700085B7877E85BF80917200882329F0109211
:1001800071001092700013C0809171008093700014
:10019000809170008F5F809370008091700080313B
:1001A00010F0109270008091700080937100109296
:1001B0007200E0917000F0E0E05AFF4F80818A30D9
:1001C00010F481E201C083E28FBD81E083BFE09142
:1001D0007000F0E0E05AFF4F808189BDD12C11E220
:1001E000CC24CA9404E652E4F52E8091700081304C
:1001F000E1F475DF1FBD24E029BD8AEF90E029837B
:1002000038DF29812F5F2F30B9F78EE089BD48EBA9
:10021000E42E89833CDF3BDFEA948981E110F9CF4A
:100220008150833099F789DF8CC0809170008630CF
:1002300008F405C080917000873018F450DF27DF84
:1002400080C080917000883080F4C9BC81E090E06B
:1002500010DF19BC89EF90E00CDFC9BC81E090E0B1
:1002600008DF19BC8DEE92E06BC0809170008B307E
:10027000B8F4C9BCE0917000F0E0E05AFF4F808113
:10028000823310F4FFDE03C081E090E0F2DE19BC9F
:10029000E0917000F0E0E05AFF4F808190E050C0A4
:1002A000809170008B30B9F4E12CC9BC81E090E002
:1002B000E0DE19BC80E28E1518F48F2D8E1901C076
:1002C0008E2D90E04B96880F991FD3DEE394E2E4E5
:1002D000EE12EBCF36C0809170008C3099F4E12C97
:1002E000C9BCD0DE19BCF1E3FE1518F4802F8E19BD
:1002F00001C08E2D90E00996BCDEE39484E6E812FE
:10030000EFCF1FC0809170008031D8F424E0E22E3E
:10031000E0917000F0E0E45AFF4F808189BD85E0F4
:1003200090E0A7DEE0917000F0E0E05AFF4F80819E
:1003300089BD81E490E09DDEEA9451F780ED92E082
:1003400098DE349B52CFA6DE90E020917000211100
:1003500003C02EE630E002C023E730E082179307A7
:100360006CF4D394E2E0ED1550F480917000882392
:1003700019F01092700001C0E0DE89DED12C369AAF
:0603800034CFF894FFCF1A
:10038600040E0E256EFF25FF52290FFFFF040E25D2
:00000001FF
