:100000001EC02EC02DC02CC02BC02AC029C028C0A5
:1000100091C026C069456D46724777487B4980602C
:10002000856189628E63936497659C66A167A56804
:10003000AA69AF80B381B882BD83C184FF21112436
:100040001FBECFE9CDBF10E0A0E6B0E0E2EBF1E0EB
:1000500002C005900D92AE36B107D9F781D0A7C086
:10006000CFCF26EB33E003C0F9013197F1F70197C9
:10007000D8F7089588EE93E0F4CF369A3699FECFFC
:1000800085B1089583E188BB87BB089518BA83E1E1
:1000900087BB0895CF93C82F09C0F4DF84E690E0B2
:1000A000E0DFF4DF88EC90E0DCDFC150C111F5CF78
:1000B000CF910895CF92DF92EF92FF920F931F930B
:1000C000CF93DF93D82E7B0100E610E0E80183E1B7
:1000D000C82E05C0899188BBC7BAC701C2DF8C2F63
:1000E000801B8D15B8F3DF91CF911F910F91FF9079
:1000F000EF90DF90CF900895C0DF282F80E001C0FF
:100100008F5FE82FF0E0E959FF4F90819217C0F31D
:1001100062E470E0CFCFB1DF282F80E001C08F5FB5
:10012000E82FF0E0E959FF4F90819217C0F360E0AB
:1001300070E0C0CF1F920F920FB60F9211240F9054
:100140000FBE0F901F90189585B7877E806185BF81
:1001500085B7806285BF889585B78F7D85BF0895F7
:1001600083E187BB1FBC13BEA29A81E687B986ECE8
:1001700086B9479A82DFC5E061E270E086E09ADFE7
:10018000C150D1F7B9DF76DF75DF74DFF894A89539
:1001900081B5886181BD80E681BD789461E270E0BF
:1001A00086E088DFA9DF66DF71DFCEDFF7CFF89466
:0201B000FFCF7F
:0E01B20010110103021213008E9CA5AFFF0076
:00000001FF
